:020000040000FA
:100000000C9454050C947C050C947C050C947C0594
:100010000C947C050C947C050C947C050C947C055C
:100020000C947C050C947C050C947C050C947C054C
:100030000C947C050C947C050C947C050C947C053C
:100040000C94911A0C947C050C94011B0C94DB1AF3
:100050000C947C050C947C050C947C050C947C051C
:100060000C94331B0C947C0500000000003E5B4F99
:100070005B3E3E6B4F6B3E1C3E7C3E1C183C7E3C08
:10008000181C577D571C1C5E7F5E1C00183C180016
:10009000FFE7C3E7FF0018241800FFE7DBE7FF30A6
:1000A000483A060E2629792926407F050507407F14
:1000B00005253F5A3CE73C5A7F3E1C1C08081C1C87
:1000C0003E7F14227F22145F5F005F5F06097F017D
:1000D0007F006689956A606060606094A2FFA29468
:1000E00008047E040810207E201008082A1C080836
:1000F0001C2A08081E101010100C1E0C1E0C303884
:100100003E3830060E3E0E06000000000000005F84
:1001100000000007000700147F147F14242A7F2AA0
:100120001223130864623649562050000807030062
:10013000001C2241000041221C002A1C7F1C2A08AE
:10014000083E080800807030000808080808000011
:1001500060600020100804023E5149453E00427F85
:10016000400072494949462141494D331814127FD4
:100170001027454545393C4A494931412111090774
:100180003649494936464949291E000014000000F5
:1001900040340000000814224114141414140041C7
:1001A00022140802015909063E415D594E7C121184
:1001B000127C7F494949363E414141227F414141BC
:1001C0003E7F494949417F090909013E4141517337
:1001D0007F0808087F00417F41002040413F017FA8
:1001E000081422417F404040407F021C027F7F0470
:1001F00008107F3E4141413E7F090909063E4151B9
:10020000215E7F09192946264949493203017F01A8
:10021000033F4040403F1F2040201F3F4038403FA9
:10022000631408146303047804036159494D4300BF
:100230007F4141410204081020004141417F0402F6
:10024000010204404040404000030708002054548D
:1002500078407F284444383844444428384444286B
:100260007F385454541800087E090218A4A49C78BE
:100270007F0804047800447D40002040403D007F1A
:100280001028440000417F40007C047804787C08FA
:100290000404783844444438FC18242418182424CE
:1002A00018FC7C08040408485454542404043F44B3
:1002B000243C4040207C1C2040201C3C4030403CE2
:1002C00044281028444C9090907C4464544C440042
:1002D00008364100000077000000413608000201A6
:1002E0000204023C2623263C1EA1A161123A404092
:1002F000207A38545455592155557941225454780F
:1003000042215554784020545579400C1E527212A7
:100310003955555559395454545939555454580030
:1003200000457C410002457D420001457C407D1234
:1003300011127DF0282528F07C5455450020545496
:100340007C547C0A097F4932494949323A44444441
:100350003A324A4848303A4141217A3A424020787C
:10036000009DA0A07D3D4242423D3D4040403D3C7D
:1003700024FF2424487E4943662B2FFC2F2BFF09A2
:1003800029F620C0887E0903205454794100004496
:100390007D413048484A32384040227A007A0A0A81
:1003A000727D0D19317D2629292F282629292926F4
:1003B00030484D4020380808080808080808382F39
:1003C00010C8ACBA2F102834FA00007B00000814C3
:1003D0002A142222142A14085500550055AA55AA99
:1003E00055AAFF55FF55FF000000FF00101010FF39
:1003F00000141414FF001010FF00FF1010F010F094
:10040000141414FC001414F700FF0000FF00FF1484
:1004100014F404FC141417101F10101F101F1414D0
:10042000141F00101010F0000000001F101010101A
:100430001F10101010F010000000FF10101010100E
:1004400010101010FF10000000FF140000FF00FF4C
:1004500000001F10170000FC04F4141417101714E8
:1004600014F404F40000FF00F7141414141414140A
:10047000F700F7141414171410101F101F1414147D
:10048000F4141010F010F000001F101F0000001FE7
:1004900014000000FC140000F010F01010FF10FF1A
:1004A000141414FF141010101F00000000F010FFAF
:1004B000FFFFFFFFF0F0F0F0F0FFFFFF0000000093
:1004C00000FFFF0F0F0F0F0F3844443844FC4A4A17
:1004D0004A347E02020606027E027E0263554941CC
:1004E000633844443C04407E201E2006027E020203
:1004F00099A5E7A5991C2A492A1C4C7201724C3017
:100500004A4D4D303048784830BC625A463D3E49ED
:100510004949007E0101017E2A2A2A2A2A44445F91
:10052000444440514A444040444A51400000FF0185
:1005300003E080FF000008086B6B08361236243693
:10054000060F090F060000181800000010100030F8
:1005500040FF0101001F01011E00191D1712003C80
:100560003C3C3C0000000000000103070F1F3F7FE0
:100570000080C0E0F0F8FCFEDB40A4A62EAF200017
:10058000A1C8D300408DAED580A800006000000057
:100590000000000000000000000000E0000000007B
:1005A00000000000000000000001E000000000006A
:1005B000000000000000000001F00000000000004A
:1005C0000000000000000003F00000000000000038
:1005D00000000000000007F0000000000000000024
:1005E000000000000007F80000000000000000000C
:1005F000000000000FF800000003C0007E000001B2
:10060000E0007F0FF800000003C000FE000001E0E2
:1006100000FFEFF800000003C000FE000001E00052
:10062000FFFFF800000003C000F00000000F007F93
:10063000FE7FC0000003C000F00000000F003FFE7E
:100640007FF83FF1FBCFFCFEF3BC3DEFE01FFE7FE8
:10065000FF7FFBFFDFFEFEFFBC3DEFE01FC6FFFF9D
:100660007FFBFFDFFEFEFFBC3DEFE00FE3C7FE7840
:100670007BC3DE1EF0FFBC3DEF0007FF87FC787BED
:10068000C3DE1EF0F83C3DEF0001FFFFF0007BC32E
:10069000C01EF0F03C3DEF0001F37FE03FFBC3CF15
:1006A000FEF0F03C3DEF0003E33F807FFBC3DFFE45
:1006B000F0F03C3DEF0007E73C00787BC3DE1EF026
:1006C000F03C3DEF0007FFBE00787BC3DE1EF0F07C
:1006D0003C3DEF0007FFFE00787BC3DE1EF0F03CE0
:1006E0003DEF000FFFFE007FFBFFDFFEF0F03FFD60
:1006F000EFE00FFFFF007FFBFFDFFEF0F03FFDEFBD
:10070000E00FF9FF003E79F9CF9EF0F01F3DE7E0E2
:100710001FF1FF0000000000000000000000001FAB
:1007200080FF007FFFFFFFFFFFFFFFFFFFE01C00D8
:100730007F007FFFFFFFFEB46D888D18E000001F73
:10074000007FFFFFFFFE95AD7DB577E000000F0055
:100750007FFFFFFFFEA5AD9D8D19E0000006007F25
:10076000FFFFFFFEB5ADEDB57EE00000000000012B
:100770008000000000000000000003800000000076
:10078000000000000007C0000000000000000000A2
:1007900007C00000000000000000000FC0000000C3
:1007A0000000000000001FE000000000000000004A
:1007B000001FE00000000000000000003FE000001B
:1007C000000000000000003FF000000000000000FA
:1007D00000007FF0000000000000001FF87FF00024
:1007E0000000000000003FFE7FF00000000000005D
:1007F000003FFF7FF0000000000000001FFFFBE053
:10080000000000000000000FFFF9FFC00000000022
:1008100000000FFFF9FFF800000000000007FFF1E3
:10082000FFFF00000000000003FC73FFFF800000DA
:1008300000000001FE3FFFFF80000000000000FFFD
:100840001E0FFF000000000000007FFE1FFC0000E4
:1008500000000000003FFFFFF80000000000000063
:100860000FDFFFE0000000000000001F19FFC000C4
:100870000000000000003F3CFF00000000000000FE
:10088000007E7CF800000000000000007FFE7C007D
:1008900000000000000000FFFFFC0000000000005E
:1008A0000000FFFFFE0000000000000000FFFFFE50
:1008B0000000000000000001FFEFFE00000000004B
:1008C000000001FFCFFE0000000000000003FF0752
:1008D000FE0000000000000003FC07FE0000000016
:1008E00000000003F003FE00000000000000018093
:1008F00000FE000000000000000000007E0000007C
:10090000000000000000003E0000000000000000A9
:1009100000000C000000000000078000FC00000345
:10092000C0000000078001FC000003C000000007B9
:100930008001FC000003C0000000078001E000000F
:10094000001E000000078001E00000001E007FE3A1
:10095000F79FF9FDE7787BDFC0FFF7FFBFFDFDFFE5
:10096000787BDFC0FFF7FFBFFDFDFF787BDFC0F0C6
:10097000F787BC3DE1FF787BDE00F0F787BC3DE107
:10098000F0787BDE0000F787803DE1E0787BDE00D9
:100990007FF7879FFDE1E0787BDE00FFF787BFFDF3
:1009A000E1E0787BDE00F0F787BC3DE1E0787BDEBC
:1009B00000F0F787BC3DE1E0787BDE00F0F787BC14
:1009C0003DE1E0787BDE00FFF7FFBFFDE1E07FFB6C
:1009D000DFC0FFF7FFBFFDE1E07FFBDFC07CF3F38B
:1009E0009F3DE1E03E7BCFC0000000000000000022
:1009F000000000FFFFFFFFFFFFFFFFFFFFC0FFFF43
:100A0000FFFFFD68DB111A31C0FFFFFFFFFD2B5A0E
:100A1000FB6AEFC0FFFFFFFFFD4B5B3B1A33C0FFDC
:100A2000FFFFFFFD6B5BDB6AFDC053534431333086
:100A300036206261C59F6C61746D6120686174616C
:100A400073C4B1210000000000240027002A000028
:100A5000000000250028002B0000000000230026D5
:100A60000029000404040404040404020202020233
:100A70000203030303030301020408102040800162
:100A800002040810200102040810200000000800E1
:100A90000201000003040700000000000000002223
:100AA00000FF2100521C352011241FBECFEFD8E0DB
:100AB000DEBFCDBF11E0A0E0B1E0EAE9F9E402C099
:100AC00005900D92A43AB107D9F724E0A4EAB1E069
:100AD00001C01D92AB35B207E1F715E0C3E5D5E0E3
:100AE00004C02197FE010E948923C235D107C9F7AE
:100AF0000E940B1D0C94C0240C94000008958330B8
:100B000081F028F4813099F08230A9F0089587307F
:100B1000A9F08830C9F08430B1F4809180008F7DD5
:100B200003C0809180008F7780938000089584B502
:100B30008F7784BD089584B58F7DFBCF8091B00001
:100B40008F778093B00008958091B0008F7DF9CFAA
:100B5000CF93DF93282F30E0F901E557F54F8491CB
:100B6000F901E958F54FD491F901ED59F54FC491C8
:100B7000CC23A1F081110E947F05EC2FF0E0EE0F55
:100B8000FF1FE75AF54FA591B491EC91ED2381E059
:100B900090E009F480E0DF91CF91089580E090E04B
:100BA000FACF1F93CF93DF93282F30E0F901E55759
:100BB000F54F8491F901E958F54FD491F901ED59B8
:100BC000F54FC491CC23A9F0162F81110E947F0507
:100BD000EC2FF0E0EE0FFF1FE15BF54FA591B49114
:100BE0008FB7F894EC91111108C0D095DE23DC93F7
:100BF0008FBFDF91CF911F910895DE2BF8CFCF9358
:100C0000DF9390E0FC01E958F54F24918D59954F01
:100C1000FC0184918823D1F090E0880F991FFC019A
:100C2000EB5BF54FA591B491FC01E15BF54FC591EC
:100C3000D49161110EC09FB7F8948C91E22FE0958A
:100C40008E238C932881E223E8839FBFDF91CF918D
:100C500008958FB7F894EC91E22BEC938FBFF6CF09
:100C60003FB7F89480915E0390915F03A091600379
:100C7000B091610326B5A89B05C02F3F19F00196DE
:100C8000A11DB11D3FBFBA2FA92F982F8827BC01E6
:100C9000CD01620F711D811D911D42E0660F771F0E
:100CA000881F991F4A95D1F708958F929F92AF920E
:100CB000BF92CF92DF92EF92FF924B015C010E94B4
:100CC00030066B017C010E9430066C197D098E098B
:100CD0009F09683E734081059105A8F321E0821ABF
:100CE0009108A108B10888EEC80E83E0D81EE11C67
:100CF000F11C81149104A104B10429F7FF90EF9035
:100D0000DF90CF90BF90AF909F908F9008950895FF
:100D10000895AF92BF92CF92DF92EF92FF920F931E
:100D20001F93CF93DF936C017B018B01040F151F81
:100D3000EB015E01AE18BF08C017D10759F06991E9
:100D4000D601ED91FC910190F081E02DC60109954D
:100D5000892B79F7C501DF91CF911F910F91FF90FA
:100D6000EF90DF90CF90BF90AF900895FC01538D2E
:100D7000448D252F30E0842F90E0821B930B541775
:100D800010F0CF96089501970895FC01918D828D02
:100D9000981761F0A28DAE0FBF2FB11D5D968C919B
:100DA000928D9F5F9F73928F90E008958FEF9FEFDA
:100DB0000895FC01918D828D981731F0828DE80F96
:100DC000F11D858D90E008958FEF9FEF0895FC0150
:100DD000918D228D892F90E0805C9F4F821B91091D
:100DE0008F739927089586E693E00E94E70621E035
:100DF000892B09F420E0822F089580E090E0892B70
:100E000029F00E94F30681110C9400000895FC0162
:100E1000A48DA80FB92FB11DA35ABF4F2C91848D5B
:100E200090E001968F739927848FA689B7892C93B8
:100E3000A089B1898C91837080648C93938D848D0B
:100E4000981306C00288F389E02D80818F7D80830E
:100E50000895EF92FF920F931F93CF93DF93EC01CE
:100E600081E0888F9B8D8C8D98131AC0E889F98951
:100E7000808185FF15C09FB7F894EE89FF89608354
:100E8000E889F98980818370806480839FBF81E0D5
:100E900090E0DF91CF911F910F91FF90EF90089517
:100EA000F62E0B8D10E00F5F1F4F0F731127E02EF2
:100EB0008C8D8E110CC00FB607FCFACFE889F9892A
:100EC000808185FFF5CFCE010E940707F1CFEB8D22
:100ED000EC0FFD2FF11DE35AFF4FF0829FB7F894FE
:100EE0000B8FEA89FB8980818062CFCFCF93DF931C
:100EF000EC01888D8823B9F0AA89BB89E889F98932
:100F00008C9185FD03C0808186FD0DC00FB607FC66
:100F1000F7CF8C9185FFF2CF808185FFEDCFCE0199
:100F20000E940707E9CFDF91CF910895EF92FF92DA
:100F30000F931F93CF93DF93EC01EC80FD806E1530
:100F40007F050CF070C057FF04C0240F351F50E020
:100F500040E08E819F81FA01E20FF31F8E179F07F9
:100F60001CF49C01241B350B121613060CF05BC0FD
:100F7000922F842F8695869586958E9DD0018F9D84
:100F8000B00D11246A0F7B1FAF8DB8A1A60FB71F3C
:100F9000477049F188E0841B482F682F70E0FB01FF
:100FA000E059FA4FE491281708F063C0621B7109F9
:100FB0002FEF30E002C0359527956A95E2F7E223DE
:100FC0000130110539F0B0F10230110561F58C9155
:100FD000E82702C08C91E82BEC93941720F12C8128
:100FE0003D81A20FB31FE92FE41BE83078F00230F7
:100FF000110521F58E2F9C9190959C932C813D811C
:10100000A20FB31F88508830B0F7E770EE2359F075
:10101000F0E0E859FA4FE49101301105F9F010F1D0
:101020000230110519F1DF91CF911F910F91FF90BF
:10103000EF900895E0958C91E823CECF81E00115E3
:10104000110509F480E081959E2F8C932C813D81C0
:10105000A20FB31F98509830C0F7D7CF8C91E82BD0
:10106000EC93E1CFE0958C91E823FACF8C91E827BF
:10107000F7CF0130110509F4ADCFE0F202301105D0
:1010800009F4A5CFAE0DBF1DAECF0F931F93CF9325
:10109000DF9377FF04C0260F371F70E060E0DC01AC
:1010A0001496CD91DC91FB01E20FF31FCE17DF0701
:1010B0001CF49E01261B370B121613064CF5FA0181
:1010C00057FD3796A3E0F595E795AA95E1F7EC9FD4
:1010D000D001ED9FB00DFC9FB00D11246A0F7B1F56
:1010E000DC015F96ED91FC91E60FF71F47705527E5
:1010F00081E090E001C0880F4A95EAF7482F01305F
:10110000110559F0A8F02E0F3F1F02301105E1F034
:10111000DF91CF911F910F9108952E0F3F1FE2177E
:10112000F307B1F38191DF011197842B8C93F7CFF3
:1011300080952E0F3F1FE217F30751F39191DF01C6
:10114000119798239C93F7CFE217F30709F3819146
:10115000DF01119784278C93F7CF0F931F93FA0128
:10116000DC0156964C9156974230E9F04330A1F19C
:10117000413061F514964D915C91DA01AE1BBF0BC5
:10118000FD01E21BF30B77FD0BC0DC0116964D91C0
:101190005C916417750724F4AB01BF010E944508F8
:1011A0001F910F91089514964D915C91DA01A61B41
:1011B000B70BBD0161507109DC0116964D915C9130
:1011C000DA01AE1BBF0BFD01E21BF30B77FDE8CF8D
:1011D000AF010E949607E4CF16964D915C91DA011B
:1011E000A61BB70BBD0161507109CDCF0F931F93A3
:1011F000FA01DC0156964C9156974230A9F04330E3
:1012000091F1413019F514964D915C91DA01AE1BC4
:10121000BF0BFD013197F7FD04C0AB01BF010E9478
:1012200096071F910F91089514964D915C91DA01E4
:10123000A61BB70BBD01DC0116964D915C91DA013E
:10124000AE1BBF0BFD013197621B730BF7FDE9CF9E
:10125000DC0116964D915C91E417F50714F7AF0188
:101260000E944508DECF16964D915C91DA01A61BCF
:10127000B70BBD01621B730BCECFFC0177FD64C0C1
:1012800080859185681779070CF05EC057FD5CC0BA
:1012900082859385481759070CF056C0868982309D
:1012A000B1F0833029F1813041F484819581841B30
:1012B000950BAB01BC01615071092130310509F179
:1012C00008F443C02230310509F463C008958481D5
:1012D0009581DC01A61BB70BBD01615071098681A8
:1012E0009781DC01A41BB50BAD0141505109E5CF3D
:1012F00086819781861B970BBA01AC014150510939
:10130000DCCFCA0157FD0796A3E095958795AA956E
:10131000E1F7A481B5818A9F90018B9F300D9A9F40
:10132000300D1124620F731F078CF0A1E02DE60F22
:10133000F71F4770552721E030E001C0220F4A9582
:10134000EAF78081822B80830895CA0157FD0796B2
:1013500033E0959587953A95E1F7A481B5818A9F09
:1013600090018B9F300D9A9F300D1124620F731FD7
:10137000078CF0A1E02DE60FF71F4770552781E09D
:1013800090E001C0880F4A95EAF780959081892303
:10139000DACFCA0157FD079623E0959587952A95E0
:1013A000E1F7A481B5818A9F90018B9F300D9A9FB0
:1013B000300D1124620F731F078CF0A1E02DE60F92
:1013C000F71F4770552721E030E001C0220F4A95F2
:1013D000EAF780818227B7CF08958EBD00000DB453
:1013E00007FEFDCF8EB508958CBD9DBD089508956F
:1013F000FC016370668B8481958126813781613021
:1014000039F0633029F091878087338722870895E8
:10141000318720879387828708952F923F924F923A
:101420005F926F927F928F929F92AF92BF92CF9274
:10143000DF92EF92FF920F931F93CF93DF93CDB77D
:10144000DEB76A970FB6F894DEBF0FBECDBF9A8F96
:10145000898F7A8369834A01D22E18870F833701D7
:10146000BC2CDC0159962D913C915A9721153105E0
:1014700009F015C118968D919C91199768177907F5
:101480000CF0D7C11A968D919C91481759070CF012
:10149000D0C14C2C512CB6E0CB9E600D711D112497
:1014A0007C876B87161617060CF0C3C1EA2DF0E097
:1014B000FA87E98793E0EE0FFF1F9A95E1F7F88B23
:1014C000EF87CF01840F951F181619060CF0B1C1D4
:1014D000A98DBA8D58968C91811104C0BFEABD15B3
:1014E00008F4D394A98DBA8DED91FC9111970284E3
:1014F000F385E02DCD010995B5E0DB9EC0011124F7
:10150000E981FA81FC83EB83312C212C9C01285941
:101510003F4F388F2F8B4A2D50E05E8B4D8BEF89DC
:10152000F88DE20DF31D44919E828D82D12CC12C49
:1015300069817A81620D731D7A8B698B842F90E0AB
:101540009C8B8B8BE98DFA8DA081B18140FF82C08D
:10155000F1E0BF126FC0AF126DC01C96ED91FC910F
:101560002F813885A4014C0D5D1D69897A89898D8B
:101570009A8D0995EB89FC89F595E7954E2F5FEFDC
:10158000C51AD50A6D817E818D899E89680F791F64
:101590007E836D8398E0C916D10481F6AFEF2A1AD5
:1015A0003A0AEB81FC81E40DF51DFC83EB83F5E049
:1015B0002F16310409F0B3CF2F8138852615370552
:1015C000B9F0A98DBA8DED91FC91B1E0BB1257C075
:1015D000AB1255C069817A816B5F7F4F0088F189BA
:1015E000E02D830128E030E0A401898D9A8D0995D2
:1015F000A98DBA8DED91FC9111970688F789E02DA0
:10160000CD016A960FB6F894DEBF0FBECDBFDF9155
:10161000CF911F910F91FF90EF90DF90CF90BF90EF
:10162000AF909F908F907F906F905F904F903F9082
:101630002F9009941E96ED91FC91EF80F884098516
:101640001A8592014D815E816B817C81898D9A8D95
:10165000099590CF2F8138852615370509F48ACF53
:1016600031E0B31207C0A31205C01C96ED91FC91A6
:10167000930178CF1E96ED91FC917301E0CF6B85BD
:101680007C85641975090684F785E02D73010F8543
:1016900018899201A401898D9A8D0995A9CFF90124
:1016A00034969491329745915491D91AB7E0DB9EC4
:1016B000400D511D1124F901259134913C8B2B8B48
:1016C000FA0125903490FA01329674903196349153
:1016D000398B329664903196449041E04C1518F065
:1016E0004A1508F07FC0662D062C000C770B7C8312
:1016F0006B83842D042C000C990B9E838D83A98D04
:10170000BA8DED91FC9111970284F385E02DCD0106
:101710000995512CD12CC12CEA2DF0E0FA87E987EC
:101720002B2D30E03C872B87A401440D511D47FC35
:101730005A95588F4F8B69817A81660D711D67FCB0
:101740007A957E876D877989C71608F051CF2C2D41
:1017500030E04D815E81420F531FA985BA854A9FB3
:10176000C0014B9F900D5A9F900D1124FC01E80D74
:10177000F91DF88BEF87852D612C4F89588D420F0D
:10178000531F5E8B4D8B671408F050C04424439464
:10179000480E877041F4C1010196EB89FC89E20D86
:1017A000F31DD4901C01D7FE19C0A98DBA8DED91FF
:1017B000FC91662D70E0B1E0BB1219C0AB1217C0EE
:1017C0002D853E85620F731F0484F585E02D2F81E2
:1017D00038854D895E89898D9A8D0995DD0C6394D4
:1017E000842DD1CF1E821D821C821B8288CF4B810B
:1017F0005C81640F751FAB85BC856A9FC0016B9FC0
:10180000900D7A9F900D112469817A81680F791F5C
:101810000684F785E02DEF80F88409851A859D01FF
:101820004F855889898D9A8D0995D8CF570CC394C7
:101830008ACF6A960FB6F894DEBF0FBECDBFDF9198
:10184000CF911F910F91FF90EF90DF90CF90BF90BD
:10185000AF909F908F907F906F905F904F903F9050
:101860002F9008958F929F92AF92CF92EF92FF9216
:101870000F931F93CF93DF93EC01262F898D9A8DC1
:10188000009709F051C06A30D1F41D861C868D89FD
:1018900048E0849F900111248E859F85820F931FBD
:1018A0009F878E8781E090E0DF91CF911F910F910C
:1018B000FF90EF90CF90AF909F908F9008956D30F4
:1018C00089F3CC88AD888F898823C1F08C859D856C
:1018D00036E0C39E800D911D112448855985481717
:1018E000590764F44E855F851D861C8638E0A39EEB
:1018F000C0011124840F951F9F878E87EA88FB887B
:10190000088919894E855F856C857D85CE010E9489
:101910000D0A2C898C859D8546E0249F800D911DA4
:1019200011249D878C87BECF6A3069F41D861C8682
:10193000FC013896E4912D898E859F85E29F800D6C
:10194000911D1124ADCF6D3009F4ACCFFC0134965C
:101950003491631708F4A6CF3296E491E61708F4A1
:10196000A1CFFC01329685909490462F431B342FD3
:1019700047E0349F800C911C1124F401329634917D
:101980003196E4913323A9F1EE2399F1CC88F40147
:101990003596E491AD884F89442301F10E2E000C59
:1019A000FF0BE30FF11DCE9EA001CF9E500D112421
:1019B0006C857D85460F571F688579856417750787
:1019C0006CF44E855F851D861C86FC013896E4917B
:1019D000AE9E400D511D11245F874E87EA88FB881B
:1019E000088919894E855F856C857D85CE010E94A9
:1019F0000D0AF4013496E4912C898C859D85E29F33
:101A0000800D911D11248DCF6F927F928F929F92A6
:101A1000AF92BF92CF92DF92EF92FF920F931F93FC
:101A2000CF93DF93EC016B015A0139014801E88142
:101A3000F9810284F385E02D0995E881F981028816
:101A4000F389E02D87019301A501B601CE01099527
:101A5000A501480D591D41505109E881F9810288BD
:101A6000F389E02D9301B601CE010995E881F98152
:101A70000088F189E02D9401A501B601CE010995F8
:101A8000C60CD71CB60161507109E881F981008844
:101A9000F189E02D9401A501CE010995E881F98134
:101AA0000688F789E02DCE01DF91CF911F910F912C
:101AB000FF90EF90DF90CF90BF90AF909F908F906E
:101AC0007F906F9009946F927F928F929F92AF92C6
:101AD000BF92CF92DF92EF92FF920F931F93CF931B
:101AE000DF935C01EB016A01490138018701DC01E8
:101AF000ED91FC916217730719F5641675062CF0C9
:101B0000962D872D3A01C92ED82E96012619370910
:101B10002F5F3F4F048CF58DE02DA301BE01C50161
:101B20000995DF91CF911F910F91FF90EF90DF907A
:101B3000CF90BF90AF909F908F907F906F900895BF
:101B40004615570591F42617370724F0892D4B01C8
:101B5000C22FD82F9E01281939092F5F3F4F068CBD
:101B6000F78DE02DA601B401DACF0284F385E02DD4
:101B70000995D501ED91FC910488F589E02D83014B
:101B80009401A601BE01C5010995D501ED91FC9115
:101B90000688F789E02DC501DF91CF911F910F9144
:101BA000FF90EF90DF90CF90BF90AF909F908F907D
:101BB0007F906F900994EF92FF920F931F93DC0137
:101BC0001A960D911C911B9718962D913C9119977F
:101BD000ED91FC9100A0F1A1E02D7B0150E040E0EF
:101BE00070E060E009951F910F91FF90EF900895CC
:101BF0004F925F926F927F928F929F92AF92BF921D
:101C0000CF92DF92EF92FF920F931F93CF93DF93C8
:101C10006C012B015A0139014801DC01ED91FC9165
:101C20000284F385E02D0995E201640C751CD60150
:101C3000ED91FC91C615D7055CF40088F189E02D83
:101C400087019401A501BE01C60109952196EFCF38
:101C50000688F789E02DC601DF91CF911F910F9182
:101C6000FF90EF90DF90CF90BF90AF909F908F90BC
:101C70007F906F905F904F9009948F929F92AF9258
:101C8000BF92CF92DF92EF92FF920F931F93CF9369
:101C9000DF93EC015B014A016901E881F98102846B
:101CA000F385E02D099595012C0D3D1D215031093D
:101CB000E881F9810488F589E02D78018401A40187
:101CC000B501CE010995E881F9810688F789E02DF3
:101CD000CE01DF91CF911F910F91FF90EF90DF9098
:101CE000CF90BF90AF909F908F9009948F929F92CA
:101CF000AF92BF92CF92DF92EF92FF920F931F931A
:101D0000CF93DF93EC015B014A0169017801E8811F
:101D1000F9810284F385E02D0995C80CD91C860150
:101D200001501109E881F9810488F589E02D9501B8
:101D3000A401B501CE010995E881F9810688F789EA
:101D4000E02DCE01DF91CF911F910F91FF90EF9089
:101D5000DF90CF90BF90AF909F908F900994EF92BB
:101D6000FF920F931F93DC01ED91FC9100A0F1A174
:101D7000E02D09951F910F91FF90EF9008950F931B
:101D80001F93DC01ED91FC91068CF78DE02D0995F8
:101D90001F910F9108950F931F93DC01ED91FC911A
:101DA000048CF58DE02D09951F910F910895DC01AC
:101DB000ED91FC910084F185E02D09943F924F92C2
:101DC0005F926F927F928F929F92AF92BF92CF92CB
:101DD000DF92EF92FF920F931F93CF93DF935C01FB
:101DE0007B014A016901390187E0680E711C93E0AB
:101DF000759467949A95E1F72B01400E511E10E0FF
:101E000000E0312CD0E0C0E0CE0187709927330C80
:101E1000892B59F4FE0183E0F595E7958A95E1F762
:101E2000E00FF11FE80DF91D349037FE0AC021E0E4
:101E300030E0A701B5016C0F7D1F87E194E00E949F
:101E4000D70E2196CC16DD06F9F68FEFE81AF80AC0
:101E5000060D171DE414F504A9F6DF91CF911F912B
:101E60000F91FF90EF90DF90CF90BF90AF909F9039
:101E70008F907F906F905F904F903F9008952F923A
:101E80003F924F925F926F927F928F929F92AF920A
:101E9000BF92CF92DF92EF92FF920F931F93CF9357
:101EA000DF9300D000D000D0CDB7DEB73C016A018F
:101EB0003E832D83FC82EB825801A41AB50AB7FE3B
:101EC00003C0B194A194B1088D809E80861A970AB0
:101ED00097FE03C09194819491088A149B045CF04E
:101EE000902F812F0D811E819D838E839C2D8D2DA2
:101EF0006B01692F782F0C151D055CF09D818E817B
:101F00007E836D83692F782F902F812F8601C92EB4
:101F1000D82E1601201A310A2B012D813E81421A3A
:101F2000530A57FE03C0519441945108710137FE82
:101F300003C03FEFE31AF30AF594E7948D819E8185
:101F4000861797075CF5A1E0B0E0BA83A983C016B5
:101F5000D1064CF1D301ED91FC910484F585E02D7F
:101F60002B813C81A8016D817E818A149B041CF029
:101F70004D815E81B801C3010995E418F508F7FEAB
:101F80000AC02D813E8189819A81280F391F3E83A5
:101F90002D83E20CF31C0F5F1F4FD9CF2FEF3FEFC4
:101FA0003A832983D4CF26960FB6F894DEBF0FBEAE
:101FB000CDBFDF91CF911F910F91FF90EF90DF90F8
:101FC000CF90BF90AF909F908F907F906F905F90D9
:101FD0004F903F902F900895089520911802260F5A
:101FE0003327331F21323105ECF420913C02FC01F0
:101FF00090E080E0243069F082E00895A09118021A
:102000002191AC0148505E4FA40FB52FB11D2C9308
:102010000196861798F380911802680F6093180252
:1020200080E0089581E0089510923C0281E0809361
:102030003E0210923D0261E082E10E94D10561E022
:1020400083E10E94D105E9EBF0E080818E7F8083FF
:1020500080818D7F808388E48093B80085E48093BD
:10206000BC000895CF93DF9391E09093F70188230C
:10207000B9F0C091B800D091BA008091BC008A7BC1
:102080008093BC0060E082E10E94D10560E083E1C2
:102090000E94D1050E941410D093BA00C093B800DA
:1020A000DF91CF910895E091680280916702E8176F
:1020B00030F4F0E0EE52FE4F808190E008958FEF13
:1020C0009FEF089590916802809167022FEF3FEF94
:1020D000981748F4E92FF0E0EE52FE4F208130E0EF
:1020E0009F5F90936802C901089580916702909163
:1020F0006802891B990B0895CF92DF92EF92FF92AD
:102100000F931F93CF93DF937C01CB018A01209122
:102110006503222389F0EB016B01C40ED51ECC159B
:10212000DD0569F06991D701ED91FC910190F08195
:10213000E02DC7010995F3CF642F0E94ED0FC80170
:10214000DF91CF911F910F91FF90EF90DF90CF9093
:102150000895CF93DF931F92CDB7DEB769832091A7
:1021600065032223F9F020916203203258F021E028
:1021700030E0FC013383228390E080E00F90DF9118
:10218000CF91089580916303E82FF0E0EE54FE4F65
:10219000998190838F5F809363038093620381E0D2
:1021A00090E0ECCF61E0CE0101960E94ED0FF7CFF9
:1021B000CF92DF92EF92FF920F931F93CF93DF9313
:1021C000D091620381E0D13208F09CC0C0916403D9
:1021D0000E9430066B017C0180913C0281116CC031
:1021E00082E080933C0281E080933E028FEF8093F7
:1021F0003B0210926002D0935F02A2EBB1E0EFE3EA
:10220000F2E080E0D8138DC01092610280916102EB
:10221000CC0FC82BC093610280913D02813009F040
:1022200084C010923D020E9430066B017C018091B7
:1022300061028093BB008091F3019091F401A09121
:10224000F501B091F601892B8A2B8B2BA1F00E940E
:1022500030060091F3011091F4012091F5013091C5
:10226000F6016C197D098E099F09061717072807C3
:10227000390708F442C08091BC0083FDD8CF85ECBB
:102280008093BC000E9430066B017C0180913C026F
:10229000823009F44CC080913B028F3F09F469C041
:1022A00080913B02803209F466C080913B0280330A
:1022B00009F463C084E026C08091F3019091F40199
:1022C000A091F501B091F601892B8A2B8B2B09F493
:1022D00083CF0E9430060091F3011091F401209108
:1022E000F5013091F6016C197D098E099F090617D9
:1022F00017072807390708F06FCF8091F2010E9475
:10230000321085E01092630310926203109265030D
:10231000DF91CF911F910F91FF90EF90DF90CF90C1
:1023200008959D9191938F5F6DCF85EEA9CF809198
:10233000F3019091F401A091F501B091F601892B80
:102340008A2B8B2B09F4A2CF0E9430060091F30157
:102350001091F4012091F5013091F6016C197D097D
:102360008E099F09061717072807390708F08ECF2F
:10237000C4CF80E0C7CF82E0C5CF83E0C3CFEF9268
:10238000FF920F931F93CF93DF937C01C62F809111
:10239000340490913504009709F459C02091380411
:1023A00031E030936503209364031092630310922D
:1023B0006203DC01ED91FC910190F081E02D60E081
:1023C00009958701EE24E394F12CD1E0C15080916E
:1023D000340490913504CF3F91F1B0E2EB16F10453
:1023E000D8F00E94D8108091340490913504209147
:1023F0003804D09365032093640310926303109212
:102400006203DC01ED91FC910190F081E02D60E030
:102410000995EE24E394F12C8091340490913504D5
:10242000F8016491DC01ED91FC910190F081E02DC7
:102430000995BFEFEB1AFB0A0F5F1F4FC7CFDF9164
:10244000CF911F910F91FF90EF900C94D810E091D5
:102450004404F0914504908180914A048095892339
:1024600080838701C15008F438C0F801849120911D
:10247000320430913304232B29F00E94ED090F5FC1
:102480001F4FF0CF28E030E040E8E0914004F091A9
:10249000410490914804582F5423D9F05081952B32
:1024A0009083E0914204F09143049081509149045B
:1024B000952B9083E0914204F091430450819091D8
:1024C0004904909595239083469521503109E9F66A
:1024D000D6CF508190959523E3CFDF91CF911F9177
:1024E0000F91FF90EF9008951F93CF93DF93EC012E
:1024F0008D8D9E8D009721F1162F29A131E030930B
:102500006503209364031092630310926203DC015D
:10251000ED91FC910190F081E02D60E009958D8DA9
:102520009E8DDC01ED91FC910190F081E02D612FF9
:1025300009958D8D9E8DDF91CF911F910C94D810B0
:10254000ADA5BEA59C918BA9809589238C938B8D7D
:102550009C8D892B31F0862FDF91CF911F910C94A8
:10256000ED0928E030E080E8A9A5BAA599A9462F91
:102570004823C1F04C91942B9C93ABA5BCA59C9196
:102580004AA9942B9C93ABA5BCA54C919AA9909574
:1025900094239C9386952150310931F7DF91CF9197
:1025A0001F9108954C9190959423E6CFDF92EF927E
:1025B000FF920F931F93CF93DF93809134049091F8
:1025C0003504892B09F498C020914C0430914D04B6
:1025D00040914E0450914F0460E074E284EF90E02B
:1025E0000E941A21205131094109510956954795F8
:1025F000379527952093B80065E08FE99AE00E940F
:10260000BF1160911B04615087E194E00E94741235
:1026100020911D0430911E04C901079697FD07966D
:1026200033E0959587953A95E1F720911B04309119
:102630001C04829F8001839F100D929F100D112416
:10264000C0913604D09137048091340490913504C0
:102650000C0F1D1F009709F48FC02091380431E042
:102660003093650320936403109263031092620316
:10267000DC01ED91FC910190F081E02D60E4099581
:10268000EE24E394F12CDD24D394809134049091D2
:1026900035040C171D0709F446C0B0E2EB16F1042F
:1026A000D8F00E94D8108091340490913504209184
:1026B0003804D09265032093640310926303109250
:1026C0006203DC01ED91FC910190F081E02D60E46A
:1026D0000995EE24E394F12C809134049091350413
:1026E0006991DC01ED91FC910190F081E02D09955B
:1026F000BFEFEB1AFB0AC9CF8091320490913304EB
:10270000892B31F080915504909156040E94F40970
:10271000E0914604F0914704908180914B048095AC
:102720008923808369CF0E94D810809134049091CE
:102730003504892B09F461C0209150043091510473
:10274000409152045091530460E074E284EF90E0B1
:102750000E941A2120513109410951095695479586
:10276000379527952093B800DF91CF911F910F9156
:10277000FF90EF90DF900895E0914404F0914504BC
:10278000808190914A04892B80830C171D0769F280
:1027900089912091320430913304232B19F00E9447
:1027A000ED09F3CF28E030E040E8E0914004F091FB
:1027B000410490914804582F5423D9F05081952B0F
:1027C0009083E0914204F091430490815091490438
:1027D000952B9083E0914204F091430450819091B5
:1027E0004904909595239083469521503109E9F647
:1027F000CCCF508190959523E3CFE0914604F091A2
:102800004704808190914B04892B8083ADCF1F9327
:10281000CF93DF93EC01162F8D8D9E8D892BB1F117
:102820002DA93EA94FA958AD60E074E284EF90E075
:102830000E941A21205131094109510956954795A5
:10284000379527952093B80066EA111167EACE0103
:102850000E9474128D8D9E8D892B41F129AD3AAD68
:102860004BAD5CAD60E074E284EF90E00E941A2111
:1028700020513109410951095695479537952795BA
:102880002093B800DF91CF911F9108958B8D9C8D7F
:10289000892B21F08EAD9FAD0E94F409EFA5F8A918
:1028A00090818CA9809589238083CECFEFA5F8A94C
:1028B00080819CA9892B8083E5CF90E080E00895FA
:1028C00020911D0430911E04C901079697FD0796BB
:1028D00023E0959587952A95E1F720911B04309187
:1028E0001C04829FA001839F500D929F500D1124C4
:1028F00070E060E080913604909137040C94B92424
:10290000FC0101900020E9F73197AF01481B590BFA
:10291000BC0187E194E00C9489062F923F924F927C
:102920005F926F927F928F929F92AF92BF92CF925F
:10293000DF92EF92FF920F931F93CF93DF93CDB768
:10294000DEB7E3970FB6F894DEBF0FBECDBFE090C1
:10295000B001F090B101FA82E982870101301105DE
:1029600009F4D9C00230110509F47AC3EF2809F03F
:1029700085C50E94601488E290E0909324048093BF
:10298000230484E190E0909326048093250481E061
:1029900090E090932A0480932904909328048093D4
:1029A000270480932B0480932C0484E691E00E94FA
:1029B000801488E00E94A8058130910541F490932D
:1029C000A9018093A8011092A7011092A6018AE0A4
:1029D0000E94A8058130910541F49093A70180934E
:1029E000A6011092A9011092A80189E00E94A805F1
:1029F0008130910509F07DC09093A5018093A401D9
:102A00008091A8019091A901019779F4EE24E394B3
:102A1000F12C01E110E02CE330E04FE050E060E207
:102A200070E087E194E00E94040D88E290E09093CA
:102A3000240480932304909326048093250481E04A
:102A400090E090932A048093290490932804809323
:102A5000270480932B0480932C048BE691E00E9442
:102A600080148091A6019091A701019779F4EE243A
:102A7000E394F12C01E110E02CE330E043E250E07C
:102A800060E270E087E194E00E94040D8091A4016F
:102A90009091A501019799F48091A8019091A901C5
:102AA0008130910559F59093B1018093B001109256
:102AB000A9011092A8011092A5011092A401E39619
:102AC0000FB6F894DEBF0FBECDBFDF91CF911F913F
:102AD0000F91FF90EF90DF90CF90BF90AF909F90BD
:102AE0008F907F906F905F904F903F902F900C94BD
:102AF000D6121092A5011092A40182CF8091A60156
:102B00009091A7010197D9F682E090E09093B101EE
:102B10008093B001D4CF0E946014809108019091FD
:102B200009018330910509F080C161E084E00E94D1
:102B3000D10561E082E00E94D10561E083E00E945E
:102B4000D10529E632E03A83298349E952E05E87DC
:102B50004D8769EF72E0788B6F875B014A013C8398
:102B60002B83D12CC12CEB81FC81EC0DFD1D8081D0
:102B70008823E1F0C601880F991FF401E80FF91FBF
:102B8000408151814F5F5F4F8A0D9B1DDC016D912C
:102B90007C91665F7F4FEE24E394F12C04E010E01B
:102BA00028E030E087E194E00E94F80DBFEFCB1AF7
:102BB000DB0AECE0CE16D104B1F60B811C81045F78
:102BC0001F4F1C830B8318E1810E911C28E1A20E7C
:102BD000B11C4B815C814959524019F683E48093C2
:102BE0007C0080917A00806480937A0080917A00E2
:102BF00086FDFCCF6091780070917900072E000C63
:102C0000880B990B0E94672220E030EC4FE754E4D8
:102C10000E94BD2120E030E048EC52E40E941C23D9
:102C20006B017C0120E030E0A9010E94172320E025
:102C300030E040E05FE387FD58C1C701B6010E9464
:102C40004C210E942F227093AF016093AE01EE24BD
:102C5000E394F12C02E010E02CE130E04EE350E090
:102C600087E194E00E94F80D40900704509008041A
:102C70006090090470900A04609106017091070148
:102C8000072E000C880B990B0E946722A30192016A
:102C90000E944C210E942F226B01709307016093C8
:102CA00006018090030490900404A0900504B09065
:102CB00006046091040170910501072E000C880B39
:102CC000990B0E946722A50194010E944C210E9449
:102CD0002F2270930501609304019601235031095E
:102CE0002B373105F0F077FA709477F870944092B2
:102CF0000704509208046092090470920A04AFE736
:102D0000CA16D1041CF02EE7C22ED12CB2E0CB168D
:102D1000D1041CF492E0C92ED12CD0920701C092AC
:102D200006019B01235031092B333105D8F0B7FA46
:102D3000B094B7F8B0948092030490920404A092E7
:102D40000504B0920604AB016F33710514F04EE335
:102D500050E04230510514F442E050E05093050138
:102D6000409304012090060130900701B1016E5F8D
:102D70007F4FC1010297E0900401F0900501F886B1
:102D8000EF82A7014E5F5F4F970122503109E0901B
:102D90000304F09004040091050410910604EB82F2
:102DA000FC820D831E83E0900704F09008040091DC
:102DB000090410910A04E986FA860B871C877B01B7
:102DC000770F000B110BEB8EFC8E0D8F1E8F7A018F
:102DD000550F000B110BEF8EF8A209A31AA379016E
:102DE000330F000B110BEBA2FCA20DA31EA371016C
:102DF000032C000C000B110BEFA2F8A609A71AA7D1
:102E0000EF80F8840F2C000C000B110BEBA6FCA636
:102E10000DA71EA77C01990F000B110BEFA6F8AAB6
:102E200009AB1AAB10E000E068C08230910551F4A4
:102E300061E084E00E94D10561E082E00E94D1055A
:102E400060E07CCE61E08130910519F0009731F4AB
:102E500060E084E00E94D10560E0EFCF019609F0C8
:102E600070CE0E946014E980FA80F0922A04E09209
:102E70002904F0922804E092270481E080932B0437
:102E800080932C040AE010E01093240400932304A0
:102E900084E190E0909326048093250482E791E0FA
:102EA0000E94801410932404009323048EE190E088
:102EB000909326048093250481E891E00E94801479
:102EC0000E94D61268E873E180E090E00E94550607
:102ED0001092B1011092B00183E090E0909309014B
:102EE000809308010E948D142CCEC701B6010E9468
:102EF0004B21A7CEFBA8F1107BC129813A81200F7D
:102F0000311F3A8F298FD901BC91BBABBB2309F488
:102F10004EC17801EE0CFF1CEF85F889EE0DFF1D08
:102F2000C080D180B60162507109072E000C880B59
:102F3000990B0E9467224B015C01B601665F7F4FCF
:102F4000072E000C880B990B0E9467222B013C0175
:102F5000ED85FE85EE0DFF1DE080F180B70162502A
:102F60007109072E000C880B990B0E946722698B50
:102F70007A8B8B8B9C8B6B8D7C8D8D8D9E8D0E9427
:102F800067229B01AC01C501B4010E94B82118164B
:102F90007CF06FA578A989A99AA90E9467229B0154
:102FA000AC01E1E0EBABC301B2010E94172387FD46
:102FB0001BAA6F8D78A189A19AA10E9467229B010B
:102FC000AC0169897A898B899C890E94B82118167D
:102FD000ECF0B7016A5F7F4F072E000C880B990B4E
:102FE0000E9467226D8B7E8B8F8B988F6BA17CA14B
:102FF0008DA19EA10E9467229B01AC016D897E89F3
:103000008F89988D0E94172387FF49C01BAACFC0C4
:103010004B815C816D817E8170584B835C836D83B5
:103020007E83C2C080E090E0A0E0B0E4809307041B
:1030300090930804A0930904B0930A042BC1109242
:103040000704109208041092090410920A041092C6
:103050000304109204041092050410920604AEC1F9
:103060000E94601484E190E09093240480932304F0
:10307000909326048093250481E090E090932A04A5
:1030800080932904909328048093270480932B0431
:1030900080932C0482E991E00E94801410CDEBA86B
:1030A000EE2009F484C06FA178A589A59AA50E9495
:1030B00067226B017C01A50194010E944B214B0109
:1030C0005C0120E030E0A9010E941723181624F0CB
:1030D000B7FAB094B7F8B094A3019201C701B60152
:1030E0000E944B216B017C0120E030E0A9010E948D
:1030F0001723181624F0F7FAF094F7F8F094A701C4
:103100009601C501B4010E94B82187FF02C0750174
:1031100064016BA57CA58DA59EA50E9467222B014D
:103120003C0129893A894B895C890E944B214B01DA
:103130005C0120E030E0A9010E941723181624F05A
:10314000B7FAB094B7F8B0942D893E894F89588D5D
:10315000C301B2010E944B212B013C0120E030E071
:10316000A9010E941723181624F077FA709477F8B3
:103170007094A3019201C501B4010E94B82187FF98
:1031800002C024013501A3019201C701B6010E94CA
:10319000B82187FF3DCF29853A854B855C855058FE
:1031A00029873A874B875C87A98DBA8D1C920F5F60
:1031B0001F4F0C30110509F09DCEE981FA81ED58C1
:1031C000F240B1F009811A81045F1F4F1A8309830D
:1031D0002F853889285E3F4F388B2F874D855E8538
:1031E000485E5F4F5E874D87EBA8EE2009F41ACE4C
:1031F000EB80FC800D811E81E0920304F0920404B8
:103200000093050410930604E984FA840B851C8559
:10321000E0920704F09208040093090410930A0452
:103220008091AE019091AF0191012E5F3F4F281721
:1032300039070CF45CC002E0201A31084C96821564
:1032400093050CF454C08F819885CC97079708F0AC
:103250004EC00E94902026E030E040E050E00E9406
:10326000E82063507109810991090E9467226B016E
:103270007C0120E030E040E85FE30E94B821882331
:1032800009F4D0CEC0920704D0920804E092090459
:10329000F0920A0420E030E040E85FEB6091070420
:1032A000709108048091090490910A040E94B82149
:1032B00081110CC080E090E0A0E0B0EC80930704A6
:1032C00090930804A0930904B0930A048091030426
:1032D00090910404A0910504B0910604B058809325
:1032E000030490930404A0930504B0930604809112
:1032F000040190910501CE970CF477C02FB7F89494
:1033000080915A0390915B03A0915C03B0915D039F
:103310002FBF4091AA015091AB016091AC01709117
:10332000AD01841B950BA60BB70B4091000150918A
:103330000101609102017091030184179507A607AE
:10334000B70708F47CCE2FB7F89480915A03909178
:103350005B03A0915C03B0915D032FBF8093AA0132
:103360009093AB01A093AC01B093AD0180E490E0E9
:10337000909307018093060180E290E0909305010D
:103380008093040110920001109201011092020139
:103390001092030180E090E0A0E0B0E48093070485
:1033A00090930804A0930904B0930A048093030443
:1033B00090930404A0930504B0930604809108013F
:1033C000909109010197909309018093080101965A
:1033D00031F487E791E00E9480140E94601468EE47
:1033E00073E080E090E00E945506E0900401F090C8
:1033F000050120910601309107013A832983670175
:1034000032E0C31AD10801E010E025E030E0A60167
:1034100069817A8187E194E00E94CB0E69817A818B
:103420006F5F7F4F25E030E0A60187E194E00E94C6
:10343000CB0E69817A816150710925E030E0A601E7
:1034400087E194E00E94CB0E41E0E41AF108698123
:103450007A816E5F7F4F23E030E0A70187E194E03F
:103460000E94CB0E69817A816250710923E030E0BD
:10347000A70187E194E00E94CB0E21CBE3960FB623
:10348000F894DEBF0FBECDBFDF91CF911F910F919A
:10349000FF90EF90DF90CF90BF90AF909F908F9074
:1034A0007F906F905F904F903F902F9008950E9473
:1034B000B42485ED8093BC008091F3019091F401D8
:1034C000A091F501B091F6010796A11DB11D23E071
:1034D000B695A795979587952A95D1F72091BC0029
:1034E00024FD03C010923C0208954091F3015091D5
:1034F000F4016091F5017091F601452B462B472BA5
:1035000069F30097A105B10541F02AE22A95F1F788
:1035100000C00197A109B109E1CF8091F2010C949B
:1035200032101F920F920FB60F9211242F933F93D8
:103530008F939F93AF93BF9380915A0390915B03B6
:10354000A0915C03B0915D033091590323E0230FF8
:103550002D3758F50196A11DB11D20935903809375
:103560005A0390935B03A0935C03B0935D03809137
:103570005E0390915F03A0916003B0916103019697
:10358000A11DB11D80935E0390935F03A093600320
:10359000B0936103BF91AF919F918F913F912F9114
:1035A0000F900FBE0F901F90189526E8230F0296DC
:1035B000A11DB11DD2CF1F920F920FB60F921124F1
:1035C0002F933F934F935F936F937F938F939F932B
:1035D000AF93BF93EF93FF9386E693E00E940707B4
:1035E000FF91EF91BF91AF919F918F917F916F91DB
:1035F0005F914F913F912F910F900FBE0F901F90B1
:1036000018951F920F920FB60F9211242F938F933C
:103610009F93EF93FF93E0917603F091770380817E
:10362000E0917C03F0917D0382FD1BC0908180912D
:103630007F038F5F8F7320918003821741F0E091A9
:103640007F03F0E0EA59FC4F958F80937F03FF9151
:10365000EF919F918F912F910F900FBE0F901F9020
:1036600018958081F4CF1F920F920FB60F921124FC
:103670002F933F934F935F936F937F938F939F937A
:10368000AF93BF93EF93FF938091B900887F80360B
:1036900009F44AC0F0F5883209F4A7C018F5803162
:1036A00009F49BC0B8F4882309F4F9C0883009F400
:1036B00094C0FF91EF91BF91AF919F918F917F91B6
:1036C0006F915F914F913F912F910F900FBE0F908F
:1036D0001F901895883109F488C0803251F7809383
:1036E0003B0214C0803409F49DC040F48033B9F328
:1036F0008833F9F680933B0285ECB0C0803509F43D
:1037000085C0883509F496C0883499F60E94591A04
:10371000D0CF883909F48CC038F5883729F050F4B7
:10372000883611F0803729F683E080933C021092AE
:103730003A0257C0883809F47BC0803919F08038C4
:1037400009F0B7CF80913A02803208F071C0E09161
:103750003A0281E08E0F80933A028091BB00F0E044
:10376000E65EFD4F80833DC0803B39F0E0F4803A57
:1037700009F479C0883A09F09CCF84E080933C0238
:103780001092190210921802E0916502F0916602FF
:1037900009958091180281110FC081E08093180271
:1037A0001092F80109C0803C09F4A6CF883C09F4C6
:1037B000A3CF883B09F07DCFE091190281E08E0F05
:1037C00080931902F0E0E850FE4F80818093BB00A7
:1037D000909119028091180229C080916102809312
:1037E000BB0085EC8093BC0064CF90916002809117
:1037F0005F02981758F5E091600281E08E0F809388
:103800006002F0E0E15CFD4F8081E9CFE091600271
:1038100081E08E0F809360028091BB00F0E0E15C5C
:10382000FD4F80839091600280915F029817C8F2EB
:1038300085E8D8CFE091600281E08E0F809360022E
:103840008091BB00F0E0E15CFD4F808380913E02FF
:1038500081115CCF81E080933D0284EA8093BC00BB
:1038600010923C0226CF85EC8093BC0010923C0263
:1038700080913A02803230F4E0913A02F0E0E65E64
:10388000FD4F108260913A0270E0E0916302F09186
:1038900064028AE192E0099510923A020ACF1092EE
:1038A0003B0234CFCF92DF92EF92FF92E6E6F3E055
:1038B0001382128248EE53E060E070E04483558347
:1038C0006683778388E191E09183808385EC90E043
:1038D0009587848784EC90E09787868780EC90E0DA
:1038E000918B808B81EC90E0938B828B82EC90E0CB
:1038F000958B848B86EC90E0978B868B118E128E45
:10390000138E148EABE0B4E013961C921E921297A5
:1039100014964D935D936D937C9317978AE291E093
:1039200011969C938E93E7E1F4E01382128220E8D3
:1039300030E03583248380E490E097838683318769
:10394000208793878287168A15861486178616869F
:1039500081E0858B848B2FEF3FEF338B228B318B74
:10396000208B878B108E128E118E8CE391E09183C9
:103970008083148E138EB68FA58F10A2178E8FEFB3
:1039800084A385A386A387A38CE380A780E89AE11C
:10399000A6E0B0E085AB96ABA7ABB0AF80EA96E807
:1039A000A1E0B0E081AF92AFA3AFB4AF80E586AF46
:1039B00017AE0E94902026E0C22ED12CE12CF12CD3
:1039C000A70196010E94E8206350710981099109BD
:1039D0000E9467226093070470930804809309048F
:1039E00090930A040E949020A70196010E94E8206B
:1039F00063507109810991090E9467226093030451
:103A0000709304048093050490930604FF90EF9054
:103A1000DF90CF900895789484B5826084BD84B59A
:103A2000816084BD85B5826085BD85B5816085BDB9
:103A300080916E00816080936E0010928100809171
:103A400081008260809381008091810081608093F9
:103A50008100809180008160809380008091B1001E
:103A600084608093B1008091B00081608093B00049
:103A700080917A00846080937A0080917A008260DD
:103A800080937A0080917A00816080937A0080919F
:103A90007A00806880937A001092C10060E081E132
:103AA0000E94FF0560E088E00E94FF0560E08AE078
:103AB0000E94FF0560E089E00E94FF0561E084E06C
:103AC0000E94FF0561E082E00E94FF0561E083E063
:103AD0000E94FF05E0917603F091770382E08083F6
:103AE000E0917203F09173031082E0917403F091FE
:103AF00075038FEC808310927E03E0917A03F0913E
:103B00007B0386E08083E0917803F09179038081E4
:103B100080618083E0917803F091790380818860EF
:103B20008083E0917803F0917903808180688083BD
:103B3000E0917803F091790380818F7D808380917B
:103B4000360490913704892B11F10E946014209162
:103B50001D0430911E0480911B0490911C0421329D
:103B600031050CF04CC0B9016052710977FF02C0F9
:103B70006F5F7F4F759567958357910997FD019604
:103B800000E210E023E730E04AE855E04BC0209126
:103B90001D0430911E04C901079697FD0796B3E0F6
:103BA00095958795BA95E1F720911B0430911C04F7
:103BB000AC01429FC001439F900D529F900D112474
:103BC0000E948F239093370480933604892B09F049
:103BD000BCCFCAE2DAE0FE016491662339F086E6E2
:103BE00093E00E9429072196892BA9F742E050E033
:103BF00060EA71E086E693E00E948906FFCFB90192
:103C00006054710977FF02C06F5F7F4F75956795AC
:103C10008255910997FD019600E410E022E530E01D
:103C20004AE657E0959587950E94DE0E82E08093E4
:103C300039048091340490913504892B09F41FC113
:103C40008CE38093380410926802109267021092FD
:103C50006303109262030E94141087E896E0909329
:103C600066028093650288E896E0909364028093F0
:103C7000630280913F0487FD1EC061E00E94FF0542
:103C800061E080913F040E94D10561E070E080E036
:103C900090E00E94550660E080913F040E94D105AB
:103CA0006AE070E080E090E00E94550661E080915B
:103CB0003F040E94D1058091340490913504892BF2
:103CC00009F49CC120914C0430914D0440914E0464
:103CD00050914F0460E074E284EF90E00E941A215A
:103CE0002051310941095109569547953795279536
:103CF0002093B80064E086E895E00E94BF116091CF
:103D00001D04615087E194E00E94741264E082E82F
:103D100095E00E94BF118091390464E1813009F47B
:103D200060E187E194E00E94741264E08EE795E020
:103D30000E94BF118FE88093540480911B049091DE
:103D40001C048038910509F072C180911D04909186
:103D50001E048034910509F07AC1809139048130C4
:103D600009F463C18FEC80935404C2E16AED87E1EA
:103D700094E00E9474126C2F87E194E00E94741208
:103D800061E887E194E00E9474126091540487E135
:103D900094E00E94741269ED87E194E00E9474122D
:103DA0008091390461EF813009F462E287E194E0A7
:103DB0000E94741266E088E795E00E94BF1180912E
:103DC000340490913504892B09F445C120915004A5
:103DD00030915104409152045091530460E074E2D8
:103DE00084EF90E00E941A212051310941095109C4
:103DF00056954795379527952093B800A9EFB2E0DF
:103E000089E9C82E82E0D82E69E672E090E080E071
:103E100011E050E040E0D0E0C0E030E020E07D0183
:103E2000E40EF51EF701D183C0837601E40EF51E82
:103E3000F701918380837B01E20EF31EF70110836B
:103E40002F5F3F4F29964E5F5F4F2C30310539F77A
:103E50005896F8E1CF0ED11C0596645F7F4F8431F0
:103E60009105B9F6C0E0D0E00E948D142097E1F3EF
:103E70000E94F3068823C1F30E940000F5CF61E0A1
:103E800080913D040E94FF0561E080913E040E9404
:103E9000FF0580913D04082E000C990BFC01ED59A3
:103EA000F54FE491F0E0EE0FFF1FE15BF54F259138
:103EB00034913093450420934404FC01E958F54FB4
:103EC000E491E0934A0480913E04082E000C990B83
:103ED000FC01ED59F54FE491F0E0EE0FFF1FE15BBF
:103EE000F54FA591B491B0934704A0934604FC010B
:103EF000E958F54FE491E0934B048C91E82BEC9357
:103F00008091320490913304892B09F434C0CFB7E7
:103F1000F89480916202811127C0EDE6FAE0849165
:103F2000E1E8FAE09491E82FF0E0EE0FFF1FEB5B81
:103F3000F54FA591B491EC91E92321F461E08AE079
:103F40000E94D10561E08AE00E94FF058CB5806186
:103F50008CBD8CB580648CBD61E08DE00E94FF0556
:103F600061E08BE00E94FF05809162028F5F809389
:103F70006202CFBF7ECE61E080913B040E94FF05CC
:103F800061E080913C040E94FF0580913B04082E73
:103F9000000C990BFC01ED59F54FE491F0E0EE0FA8
:103FA000FF1FE15BF54F259134913093410420933D
:103FB0004004FC01E958F54FE491E09348048091F6
:103FC0003C04082E000C990BFC01ED59F54FE491CF
:103FD000F0E0EE0FFF1FE15BF54FA591B491B093B8
:103FE0004304A0934204FC01E958F54FE491E093A7
:103FF00049048C91E095E823EC933BCE8091320408
:1040000090913304892B31F080915504909156049E
:104010000E94F409E0914604F09147049081809158
:104020004B0480958923808365CE8FE99CCE8036B2
:10403000910569F480911D0490911E04409739F414
:1040400080913904813029F08FEA80935404C2E0D2
:104050008DCE80E1FACFE0914604F0914704808153
:1040600090914B04892B8083C9CE8CE391E090938F
:1040700018048093170480913604909137040097B8
:1040800011F00C942B2408958F929F92AF92BF92BF
:10409000CF92DF92EF92FF92CF93DF93EC01688192
:1040A00079818A819B81611571058105910521F4D2
:1040B00064E279ED8BE597E02DE133EF41E050E0EC
:1040C0000E94E82049015A019B01AC01A7EAB1E432
:1040D0000E9407216B017C01ACEEB4EFA5019401B5
:1040E0000E941521C60ED71EE81EF91EF7FE06C057
:1040F00081E0C81AD108E10880E8F80AC882D982AC
:10410000EA82FB82C701B6019F77DF91CF91FF90D2
:10411000EF90DF90CF90BF90AF909F908F900895D9
:104120008F929F92AF92BF92CF92DF92EF92FF92C7
:1041300060910A0170910B0180910C0190910D0129
:10414000611571058105910521F464E279ED8BE536
:1041500097E02DE133EF41E050E00E94E820490173
:104160005A019B01AC01A7EAB1E40E9407216B014F
:104170007C01ACEEB4EFA50194010E941521C60E9E
:10418000D71EE81EF91EF7FE06C081E0C81AD10846
:10419000E10880E8F80AC0920A01D0920B01E0928F
:1041A0000C01F0920D01C701B6019F77FF90EF90CF
:1041B000DF90CF90BF90AF909F908F9008956093C5
:1041C0000A0170930B0180930C0190930D010895E7
:1041D000052E97FB1EF400940E94FF2057FD07D088
:1041E0000E941A2107FC03D04EF40C94FF20509536
:1041F0004095309521953F4F4F4F5F4F08959095D3
:104200008095709561957F4F8F4F9F4F08950E94C5
:104210003C21A59F900DB49F900DA49F800D911DF2
:1042200011240895B7FF0C9407210E940721821BD7
:10423000930B0895A1E21A2EAA1BBB1BFD010DC012
:10424000AA1FBB1FEE1FFF1FA217B307E407F50746
:1042500020F0A21BB30BE40BF50B661F771F881F22
:10426000991F1A9469F760957095809590959B01B8
:10427000AC01BD01CF010895A29FB001B39FC00161
:10428000A39F700D811D1124911DB29F700D811D82
:104290001124911D08955058BB27AA270E9463211D
:1042A0000C94DD220E94CF2238F00E94D62220F00A
:1042B00039F49F3F19F426F40C94CC220EF4E095C7
:1042C000E7FB0C94C622E92F0E94EE2258F3BA179E
:1042D000620773078407950720F079F4A6F50C941C
:1042E00010230EF4E0950B2EBA2FA02D0B01B9016F
:1042F00090010C01CA01A0011124FF27591B99F05C
:10430000593F50F4503E68F11A16F040A22F232F67
:10431000342F4427585FF3CF469537952795A795B7
:10432000F0405395C9F77EF41F16BA0B620B730B5E
:10433000840BBAF09150A1F0FF0FBB1F661F771FCF
:10434000881FC2F70EC0BA0F621F731F841F48F484
:10435000879577956795B795F7959E3F08F0B0CF0D
:104360009395880F08F09927EE0F979587950895F4
:104370000E94A22208F481E008950E94D1210C94A9
:10438000DD220E94D62258F00E94CF2240F029F46C
:104390005F3F29F00C94C62251110C9411230C9408
:1043A000CC220E94EE2268F39923B1F3552391F3B6
:1043B000951B550BBB27AA2762177307840738F094
:1043C0009F5F5F4F220F331F441FAA1FA9F335D0F1
:1043D0000E2E3AF0E0E832D091505040E695001CA5
:1043E000CAF72BD0FE2F29D0660F771F881FBB1F5F
:1043F000261737074807AB07B0E809F0BB0B802D3D
:10440000BF01FF2793585F4F3AF09E3F510578F068
:104410000C94C6220C9411235F3FE4F3983ED4F32E
:10442000869577956795B795F7959F5FC9F7880F3C
:10443000911D9695879597F90895E1E0660F771F8E
:10444000881FBB1F621773078407BA0720F0621B1F
:10445000730B840BBA0BEE1F88F7E09508950E944A
:1044600036226894B1110C94112308950E94F6220B
:1044700088F09F5798F0B92F9927B751B0F0E1F025
:10448000660F771F881F991F1AF0BA95C9F714C0D5
:10449000B13091F00E941023B1E008950C941023E4
:1044A000672F782F8827B85F39F0B93FCCF386950E
:1044B00077956795B395D9F73EF49095809570956B
:1044C00061957F4F8F4F9F4F0895E89409C097FBE8
:1044D0003EF490958095709561957F4F8F4F9F4FDB
:1044E0009923A9F0F92F96E9BB279395F69587951F
:1044F00077956795B795F111F8CFFAF4BB0F11F4E2
:1045000060FF1BC06F5F7F4F8F4F9F4F16C0882388
:1045100011F096E911C0772321F09EE8872F762FBE
:1045200005C0662371F096E8862F70E060E02AF0FF
:104530009A95660F771F881FDAF7880F96958795EB
:1045400097F90895990F0008550FAA0BE0E8FEEFC0
:1045500016161706E807F907C0F012161306E40747
:10456000F50798F0621B730B840B950B39F40A2640
:1045700061F0232B242B252B21F408950A2609F41E
:10458000A140A6958FEF811D811D089597F99F6722
:1045900080E870E060E008959FEF80EC08950024CB
:1045A0000A941616170618060906089500240A9498
:1045B00012161306140605060895092E0394000C1E
:1045C00011F4882352F0BB0F40F4BF2B11F460FFAD
:1045D00004C06F5F7F4F8F4F9F4F089557FD9058D6
:1045E000440F551F59F05F3F71F04795880F97FBB7
:1045F000991F61F09F3F79F0879508951216130671
:104600001406551FF2CF4695F1DF08C0161617069F
:104610001806991FF1CF86957105610508940895D4
:10462000E894BB2766277727CB0197F908950E9466
:10463000A22208F48FEF08950E942F230C94DD220C
:104640000E94CF2238F00E94D62220F0952311F04C
:104650000C94C6220C94CC2211240C9411230E9499
:10466000EE2270F3959FC1F3950F50E0551F629FA6
:10467000F001729FBB27F00DB11D639FAA27F00DBB
:10468000B11DAA1F649F6627B00DA11D661F829FE2
:104690002227B00DA11D621F739FB00DA11D621FC7
:1046A000839FA00D611D221F749F3327A00D611DE4
:1046B000231F849F600D211D822F762F6A2F1124C6
:1046C0009F5750409AF0F1F088234AF0EE0FFF1FF9
:1046D000BB1F661F771F881F91505040A9F79E3F50
:1046E000510580F00C94C6220C9411235F3FE4F333
:1046F000983ED4F3869577956795B795F795E795A6
:104700009F5FC1F7FE2B880F911D9695879597F9AE
:104710000895EE0FFF1F0590F491E02D09940F937B
:104720001F93CF93DF938230910510F482E090E0E5
:10473000E0915904F0915A0430E020E0B0E0A0E0AC
:10474000309799F42115310509F44AC0281B390B1B
:1047500024303105D8F58A819B816115710589F175
:10476000FB0193838283FE0111C04081518102814C
:10477000138148175907E0F04817590799F4109723
:1047800061F012960C93129713961C933296CF01F8
:10479000DF91CF911F910F910895009359041093C9
:1047A0005A04F4CF2115310551F04217530738F060
:1047B000A901DB019A01BD01DF01F801C1CFEF01C1
:1047C000F9CF90935A0480935904CDCFFE01E20FA4
:1047D000F31F819391932250310939832883D7CFD6
:1047E0002091570430915804232B41F4209110015B
:1047F00030911101309358042093570420910E01F9
:1048000030910F012115310541F42DB73EB740918C
:10481000120150911301241B350BE0915704F091C4
:104820005804E217F307A0F42E1B3F0B2817390793
:1048300078F0AC014E5F5F4F2417350748F04E0FFC
:104840005F1F5093580440935704819391939FCFD7
:10485000F0E0E0E09CCFCF93DF930097E9F0FC011C
:10486000329713821282A0915904B0915A04ED013B
:1048700030E020E01097A1F420813181820F931F56
:1048800020915704309158042817390709F061C066
:10489000F0935804E0935704DF91CF910895EA0113
:1048A000CE17DF07E8F54A815B819E01411551056E
:1048B000B1F7E901FB83EA8349915991C40FD51FF0
:1048C000EC17FD0761F4808191810296840F951F9A
:1048D000E90199838883828193819B838A83F0E0B5
:1048E000E0E012968D919C9113970097B9F52D9168
:1048F0003C911197CD010296820F931F209157048E
:10490000309158042817390739F6309751F510922D
:104910005A0410925904B0935804A0935704BCCF82
:10492000D383C28340815181840F951FC817D90753
:1049300061F44E5F5F4F88819981480F591F518301
:1049400040838A819B81938382832115310509F0FD
:10495000B0CFF0935A04E09359049ECFFD01DC01DF
:10496000C0CF13821282D7CF81E090E0F8940C94EC
:10497000C024DC0101C06D9341505040E0F7089520
:1049800015E0C3E5D5E004C0FE010E94892321960D
:10499000C435D107C9F7F894FFCFE8030000200021
:1049A000400003000100000000005B0480000000E4
:1049B000000029078906B6067607E706C506D90668
:1049C00000000000A9107C105D147E0575106210B7
:1049D000531000000000320C89065D14EC0F3D09F5
:1049E0007E05D70EAF0ECB0EBF0E3F0F7E05F8092A
:1049F0000714AD08F608F80DDB0D630D040D205308
:104A00007461727400202045786974002020202091
:104A10002047616D65204F76657200202020596F18
:104A200075722053636F72653A2030002020546500
:0E4A300073656B6B75726C6572000D0A000089
:107E0000112484B714BE81FFF0D085E080938100F7
:107E100082E08093C00088E18093C10086E0809377
:107E2000C20080E18093C4008EE0C9D0259A86E02C
:107E300020E33CEF91E0309385002093840096BBD3
:107E4000B09BFECF1D9AA8958150A9F7CC24DD24C4
:107E500088248394B5E0AB2EA1E19A2EF3E0BF2EE7
:107E6000A2D0813461F49FD0082FAFD0023811F036
:107E7000013811F484E001C083E08DD089C08234E0
:107E800011F484E103C0853419F485E0A6D080C0E4
:107E9000853579F488D0E82EFF2485D0082F10E0AE
:107EA000102F00270E291F29000F111F8ED06801E7
:107EB0006FC0863521F484E090D080E0DECF843638
:107EC00009F040C070D06FD0082F6DD080E0C81688
:107ED00080E7D80618F4F601B7BEE895C0E0D1E017
:107EE00062D089930C17E1F7F0E0CF16F0E7DF06D8
:107EF00018F0F601B7BEE89568D007B600FCFDCFD4
:107F0000A601A0E0B1E02C9130E011968C91119780
:107F100090E0982F8827822B932B1296FA010C0160
:107F200087BEE89511244E5F5F4FF1E0A038BF0790
:107F300051F7F601A7BEE89507B600FCFDCF97BE46
:107F4000E89526C08437B1F42ED02DD0F82E2BD052
:107F50003CD0F601EF2C8F010F5F1F4F84911BD097
:107F6000EA94F801C1F70894C11CD11CFA94CF0C13
:107F7000D11C0EC0853739F428D08EE10CD085E9AC
:107F80000AD08FE07ACF813511F488E018D01DD067
:107F900080E101D065CF982F8091C00085FFFCCF94
:107FA0009093C60008958091C00087FFFCCF809118
:107FB000C00084FD01C0A8958091C6000895E0E648
:107FC000F0E098E1908380830895EDDF803219F02E
:107FD00088E0F5DFFFCF84E1DECF1F93182FE3DFCA
:107FE0001150E9F7F2DF1F91089580E0E8DFEE27F6
:047FF000FF270994CA
:027FFE00040479
:00000001FF
