:020000040000FA
:100000000C9454050C947C050C947C050C947C0594
:100010000C947C050C947C050C947C050C947C055C
:100020000C947C050C947C050C947C050C947C054C
:100030000C947C050C947C050C947C050C947C053C
:100040000C94C7140C947C050C9437150C94111562
:100050000C947C050C947C050C947C050C947C051C
:100060000C9469150C947C0500000000003E5B4F69
:100070005B3E3E6B4F6B3E1C3E7C3E1C183C7E3C08
:10008000181C577D571C1C5E7F5E1C00183C180016
:10009000FFE7C3E7FF0018241800FFE7DBE7FF30A6
:1000A000483A060E2629792926407F050507407F14
:1000B00005253F5A3CE73C5A7F3E1C1C08081C1C87
:1000C0003E7F14227F22145F5F005F5F06097F017D
:1000D0007F006689956A606060606094A2FFA29468
:1000E00008047E040810207E201008082A1C080836
:1000F0001C2A08081E101010100C1E0C1E0C303884
:100100003E3830060E3E0E06000000000000005F84
:1001100000000007000700147F147F14242A7F2AA0
:100120001223130864623649562050000807030062
:10013000001C2241000041221C002A1C7F1C2A08AE
:10014000083E080800807030000808080808000011
:1001500060600020100804023E5149453E00427F85
:10016000400072494949462141494D331814127FD4
:100170001027454545393C4A494931412111090774
:100180003649494936464949291E000014000000F5
:1001900040340000000814224114141414140041C7
:1001A00022140802015909063E415D594E7C121184
:1001B000127C7F494949363E414141227F414141BC
:1001C0003E7F494949417F090909013E4141517337
:1001D0007F0808087F00417F41002040413F017FA8
:1001E000081422417F404040407F021C027F7F0470
:1001F00008107F3E4141413E7F090909063E4151B9
:10020000215E7F09192946264949493203017F01A8
:10021000033F4040403F1F2040201F3F4038403FA9
:10022000631408146303047804036159494D4300BF
:100230007F4141410204081020004141417F0402F6
:10024000010204404040404000030708002054548D
:1002500078407F284444383844444428384444286B
:100260007F385454541800087E090218A4A49C78BE
:100270007F0804047800447D40002040403D007F1A
:100280001028440000417F40007C047804787C08FA
:100290000404783844444438FC18242418182424CE
:1002A00018FC7C08040408485454542404043F44B3
:1002B000243C4040207C1C2040201C3C4030403CE2
:1002C00044281028444C9090907C4464544C440042
:1002D00008364100000077000000413608000201A6
:1002E0000204023C2623263C1EA1A161123A404092
:1002F000207A38545455592155557941225454780F
:1003000042215554784020545579400C1E527212A7
:100310003955555559395454545939555454580030
:1003200000457C410002457D420001457C407D1234
:1003300011127DF0282528F07C5455450020545496
:100340007C547C0A097F4932494949323A44444441
:100350003A324A4848303A4141217A3A424020787C
:10036000009DA0A07D3D4242423D3D4040403D3C7D
:1003700024FF2424487E4943662B2FFC2F2BFF09A2
:1003800029F620C0887E0903205454794100004496
:100390007D413048484A32384040227A007A0A0A81
:1003A000727D0D19317D2629292F282629292926F4
:1003B00030484D4020380808080808080808382F39
:1003C00010C8ACBA2F102834FA00007B00000814C3
:1003D0002A142222142A14085500550055AA55AA99
:1003E00055AAFF55FF55FF000000FF00101010FF39
:1003F00000141414FF001010FF00FF1010F010F094
:10040000141414FC001414F700FF0000FF00FF1484
:1004100014F404FC141417101F10101F101F1414D0
:10042000141F00101010F0000000001F101010101A
:100430001F10101010F010000000FF10101010100E
:1004400010101010FF10000000FF140000FF00FF4C
:1004500000001F10170000FC04F4141417101714E8
:1004600014F404F40000FF00F7141414141414140A
:10047000F700F7141414171410101F101F1414147D
:10048000F4141010F010F000001F101F0000001FE7
:1004900014000000FC140000F010F01010FF10FF1A
:1004A000141414FF141010101F00000000F010FFAF
:1004B000FFFFFFFFF0F0F0F0F0FFFFFF0000000093
:1004C00000FFFF0F0F0F0F0F3844443844FC4A4A17
:1004D0004A347E02020606027E027E0263554941CC
:1004E000633844443C04407E201E2006027E020203
:1004F00099A5E7A5991C2A492A1C4C7201724C3017
:100500004A4D4D303048784830BC625A463D3E49ED
:100510004949007E0101017E2A2A2A2A2A44445F91
:10052000444440514A444040444A51400000FF0185
:1005300003E080FF000008086B6B08361236243693
:10054000060F090F060000181800000010100030F8
:1005500040FF0101001F01011E00191D1712003C80
:100560003C3C3C0000000000000103070F1F3F7FE0
:100570000080C0E0F0F8FCFEDB40A4A62EAF200017
:10058000A1C8D300408DAED580A800006000000057
:100590000000000000000000000000E0000000007B
:1005A00000000000000000000001E000000000006A
:1005B000000000000000000001F00000000000004A
:1005C0000000000000000003F00000000000000038
:1005D00000000000000007F0000000000000000024
:1005E000000000000007F80000000000000000000C
:1005F000000000000FF800000003C0007E000001B2
:10060000E0007F0FF800000003C000FE000001E0E2
:1006100000FFEFF800000003C000FE000001E00052
:10062000FFFFF800000003C000F00000000F007F93
:10063000FE7FC0000003C000F00000000F003FFE7E
:100640007FF83FF1FBCFFCFEF3BC3DEFE01FFE7FE8
:10065000FF7FFBFFDFFEFEFFBC3DEFE01FC6FFFF9D
:100660007FFBFFDFFEFEFFBC3DEFE00FE3C7FE7840
:100670007BC3DE1EF0FFBC3DEF0007FF87FC787BED
:10068000C3DE1EF0F83C3DEF0001FFFFF0007BC32E
:10069000C01EF0F03C3DEF0001F37FE03FFBC3CF15
:1006A000FEF0F03C3DEF0003E33F807FFBC3DFFE45
:1006B000F0F03C3DEF0007E73C00787BC3DE1EF026
:1006C000F03C3DEF0007FFBE00787BC3DE1EF0F07C
:1006D0003C3DEF0007FFFE00787BC3DE1EF0F03CE0
:1006E0003DEF000FFFFE007FFBFFDFFEF0F03FFD60
:1006F000EFE00FFFFF007FFBFFDFFEF0F03FFDEFBD
:10070000E00FF9FF003E79F9CF9EF0F01F3DE7E0E2
:100710001FF1FF0000000000000000000000001FAB
:1007200080FF007FFFFFFFFFFFFFFFFFFFE01C00D8
:100730007F007FFFFFFFFEB46D888D18E000001F73
:10074000007FFFFFFFFE95AD7DB577E000000F0055
:100750007FFFFFFFFEA5AD9D8D19E0000006007F25
:10076000FFFFFFFEB5ADEDB57EE00000000000012B
:100770008000000000000000000003800000000076
:10078000000000000007C0000000000000000000A2
:1007900007C00000000000000000000FC0000000C3
:1007A0000000000000001FE000000000000000004A
:1007B000001FE00000000000000000003FE000001B
:1007C000000000000000003FF000000000000000FA
:1007D00000007FF0000000000000001FF87FF00024
:1007E0000000000000003FFE7FF00000000000005D
:1007F000003FFF7FF0000000000000001FFFFBE053
:10080000000000000000000FFFF9FFC00000000022
:1008100000000FFFF9FFF800000000000007FFF1E3
:10082000FFFF00000000000003FC73FFFF800000DA
:1008300000000001FE3FFFFF80000000000000FFFD
:100840001E0FFF000000000000007FFE1FFC0000E4
:1008500000000000003FFFFFF80000000000000063
:100860000FDFFFE0000000000000001F19FFC000C4
:100870000000000000003F3CFF00000000000000FE
:10088000007E7CF800000000000000007FFE7C007D
:1008900000000000000000FFFFFC0000000000005E
:1008A0000000FFFFFE0000000000000000FFFFFE50
:1008B0000000000000000001FFEFFE00000000004B
:1008C000000001FFCFFE0000000000000003FF0752
:1008D000FE0000000000000003FC07FE0000000016
:1008E00000000003F003FE00000000000000018093
:1008F00000FE000000000000000000007E0000007C
:10090000000000000000003E0000000000000000A9
:1009100000000C000000000000078000FC00000345
:10092000C0000000078001FC000003C000000007B9
:100930008001FC000003C0000000078001E000000F
:10094000001E000000078001E00000001E007FE3A1
:10095000F79FF9FDE7787BDFC0FFF7FFBFFDFDFFE5
:10096000787BDFC0FFF7FFBFFDFDFF787BDFC0F0C6
:10097000F787BC3DE1FF787BDE00F0F787BC3DE107
:10098000F0787BDE0000F787803DE1E0787BDE00D9
:100990007FF7879FFDE1E0787BDE00FFF787BFFDF3
:1009A000E1E0787BDE00F0F787BC3DE1E0787BDEBC
:1009B00000F0F787BC3DE1E0787BDE00F0F787BC14
:1009C0003DE1E0787BDE00FFF7FFBFFDE1E07FFB6C
:1009D000DFC0FFF7FFBFFDE1E07FFBDFC07CF3F38B
:1009E0009F3DE1E03E7BCFC0000000000000000022
:1009F000000000FFFFFFFFFFFFFFFFFFFFC0FFFF43
:100A0000FFFFFD68DB111A31C0FFFFFFFFFD2B5A0E
:100A1000FB6AEFC0FFFFFFFFFD4B5B3B1A33C0FFDC
:100A2000FFFFFFFD6B5BDB6AFDC053534431333086
:100A300036206261C59F6C61746D6120686174616C
:100A400073C4B1210000000000240027002A000028
:100A5000000000250028002B0000000000230026D5
:100A60000029000404040404040404020202020233
:100A70000203030303030301020408102040800162
:100A800002040810200102040810200000000800E1
:100A90000201000003040700000000000000002223
:100AA00000FF21008816691F11241FBECFEFD8E078
:100AB000DEBFCDBF11E0A0E0B1E0E2E0F8E402C0AB
:100AC00005900D92AC37B107D9F724E0ACE7B1E05F
:100AD00001C01D92A333B207E1F715E0C3E5D5E0ED
:100AE00004C02197FE010E94BD22C235D107C9F77B
:100AF0000E9441170C94F4230C9400000895833055
:100B000081F028F4813099F08230A9F0089587307F
:100B1000A9F08830C9F08430B1F4809180008F7DD5
:100B200003C0809180008F7780938000089584B502
:100B30008F7784BD089584B58F7DFBCF8091B00001
:100B40008F778093B00008958091B0008F7DF9CFAA
:100B5000CF93DF93282F30E0F901E557F54F8491CB
:100B6000F901E958F54FD491F901ED59F54FC491C8
:100B7000CC23A1F081110E947F05EC2FF0E0EE0F55
:100B8000FF1FE75AF54FA591B491EC91ED2381E059
:100B900090E009F480E0DF91CF91089580E090E04B
:100BA000FACF1F93CF93DF93282F30E0F901E55759
:100BB000F54F8491F901E958F54FD491F901ED59B8
:100BC000F54FC491CC23A9F0162F81110E947F0507
:100BD000EC2FF0E0EE0FFF1FE15BF54FA591B49114
:100BE0008FB7F894EC91111108C0D095DE23DC93F7
:100BF0008FBFDF91CF911F910895DE2BF8CFCF9358
:100C0000DF9390E0FC01E958F54F24918D59954F01
:100C1000FC0184918823D1F090E0880F991FFC019A
:100C2000EB5BF54FA591B491FC01E15BF54FC591EC
:100C3000D49161110EC09FB7F8948C91E22FE0958A
:100C40008E238C932881E223E8839FBFDF91CF918D
:100C500008958FB7F894EC91E22BEC938FBFF6CF09
:100C60003FB7F8948091360390913703A0913803F1
:100C7000B091390326B5A89B05C02F3F19F0019606
:100C8000A11DB11D3FBFBA2FA92F982F8827BC01E6
:100C9000CD01620F711D811D911D42E0660F771F0E
:100CA000881F991F4A95D1F708958F929F92AF920E
:100CB000BF92CF92DF92EF92FF924B015C010E94B4
:100CC00030066B017C010E9430066C197D098E098B
:100CD0009F09683E734081059105A8F321E0821ABF
:100CE0009108A108B10888EEC80E83E0D81EE11C67
:100CF000F11C81149104A104B10429F7FF90EF9035
:100D0000DF90CF90BF90AF909F908F9008950895FF
:100D10000895AF92BF92CF92DF92EF92FF920F931E
:100D20001F93CF93DF936C017B018B01040F151F81
:100D3000EB015E01AE18BF08C017D10759F06991E9
:100D4000D601ED91FC910190F081E02DC60109954D
:100D5000892B79F7C501DF91CF911F910F91FF90FA
:100D6000EF90DF90CF90BF90AF900895FC01538D2E
:100D7000448D252F30E0842F90E0821B930B541775
:100D800010F0CF96089501970895FC01918D828D02
:100D9000981761F0A28DAE0FBF2FB11D5D968C919B
:100DA000928D9F5F9F73928F90E008958FEF9FEFDA
:100DB0000895FC01918D828D981731F0828DE80F96
:100DC000F11D858D90E008958FEF9FEF0895FC0150
:100DD000918D228D892F90E0805C9F4F821B91091D
:100DE0008F73992708958EE393E00E94E70621E030
:100DF000892B09F420E0822F089580E090E0892B70
:100E000029F00E94F30681110C9400000895FC0162
:100E1000A48DA80FB92FB11DA35ABF4F2C91848D5B
:100E200090E001968F739927848FA689B7892C93B8
:100E3000A089B1898C91837080648C93938D848D0B
:100E4000981306C00288F389E02D80818F7D80830E
:100E50000895EF92FF920F931F93CF93DF93EC01CE
:100E600081E0888F9B8D8C8D98131AC0E889F98951
:100E7000808185FF15C09FB7F894EE89FF89608354
:100E8000E889F98980818370806480839FBF81E0D5
:100E900090E0DF91CF911F910F91FF90EF90089517
:100EA000F62E0B8D10E00F5F1F4F0F731127E02EF2
:100EB0008C8D8E110CC00FB607FCFACFE889F9892A
:100EC000808185FFF5CFCE010E940707F1CFEB8D22
:100ED000EC0FFD2FF11DE35AFF4FF0829FB7F894FE
:100EE0000B8FEA89FB8980818062CFCFCF93DF931C
:100EF000EC01888D8823B9F0AA89BB89E889F98932
:100F00008C9185FD03C0808186FD0DC00FB607FC66
:100F1000F7CF8C9185FFF2CF808185FFEDCFCE0199
:100F20000E940707E9CFDF91CF910895EF92FF92DA
:100F30000F931F93CF93DF93EC01EC80FD806E1530
:100F40007F050CF070C057FF04C0240F351F50E020
:100F500040E08E819F81FA01E20FF31F8E179F07F9
:100F60001CF49C01241B350B121613060CF05BC0FD
:100F7000922F842F8695869586958E9DD0018F9D84
:100F8000B00D11246A0F7B1FAF8DB8A1A60FB71F3C
:100F9000477049F188E0841B482F682F70E0FB01FF
:100FA000E059FA4FE491281708F063C0621B7109F9
:100FB0002FEF30E002C0359527956A95E2F7E223DE
:100FC0000130110539F0B0F10230110561F58C9155
:100FD000E82702C08C91E82BEC93941720F12C8128
:100FE0003D81A20FB31FE92FE41BE83078F00230F7
:100FF000110521F58E2F9C9190959C932C813D811C
:10100000A20FB31F88508830B0F7E770EE2359F075
:10101000F0E0E859FA4FE49101301105F9F010F1D0
:101020000230110519F1DF91CF911F910F91FF90BF
:10103000EF900895E0958C91E823CECF81E00115E3
:10104000110509F480E081959E2F8C932C813D81C0
:10105000A20FB31F98509830C0F7D7CF8C91E82BD0
:10106000EC93E1CFE0958C91E823FACF8C91E827BF
:10107000F7CF0130110509F4ADCFE0F202301105D0
:1010800009F4A5CFAE0DBF1DAECF0F931F93CF9325
:10109000DF9377FF04C0260F371F70E060E0DC01AC
:1010A0001496CD91DC91FB01E20FF31FCE17DF0701
:1010B0001CF49E01261B370B121613064CF5FA0181
:1010C00057FD3796A3E0F595E795AA95E1F7EC9FD4
:1010D000D001ED9FB00DFC9FB00D11246A0F7B1F56
:1010E000DC015F96ED91FC91E60FF71F47705527E5
:1010F00081E090E001C0880F4A95EAF7482F01305F
:10110000110559F0A8F02E0F3F1F02301105E1F034
:10111000DF91CF911F910F9108952E0F3F1FE2177E
:10112000F307B1F38191DF011197842B8C93F7CFF3
:1011300080952E0F3F1FE217F30751F39191DF01C6
:10114000119798239C93F7CFE217F30709F3819146
:10115000DF01119784278C93F7CF0F931F93FA0128
:10116000DC0156964C9156974230E9F04330A1F19C
:10117000413061F514964D915C91DA01AE1BBF0BC5
:10118000FD01E21BF30B77FD0BC0DC0116964D91C0
:101190005C916417750724F4AB01BF010E944508F8
:1011A0001F910F91089514964D915C91DA01A61B41
:1011B000B70BBD0161507109DC0116964D915C9130
:1011C000DA01AE1BBF0BFD01E21BF30B77FDE8CF8D
:1011D000AF010E949607E4CF16964D915C91DA011B
:1011E000A61BB70BBD0161507109CDCF0F931F93A3
:1011F000FA01DC0156964C9156974230A9F04330E3
:1012000091F1413019F514964D915C91DA01AE1BC4
:10121000BF0BFD013197F7FD04C0AB01BF010E9478
:1012200096071F910F91089514964D915C91DA01E4
:10123000A61BB70BBD01DC0116964D915C91DA013E
:10124000AE1BBF0BFD013197621B730BF7FDE9CF9E
:10125000DC0116964D915C91E417F50714F7AF0188
:101260000E944508DECF16964D915C91DA01A61BCF
:10127000B70BBD01621B730BCECFFC0177FD64C0C1
:1012800080859185681779070CF05EC057FD5CC0BA
:1012900082859385481759070CF056C0868982309D
:1012A000B1F0833029F1813041F484819581841B30
:1012B000950BAB01BC01615071092130310509F179
:1012C00008F443C02230310509F463C008958481D5
:1012D0009581DC01A61BB70BBD01615071098681A8
:1012E0009781DC01A41BB50BAD0141505109E5CF3D
:1012F00086819781861B970BBA01AC014150510939
:10130000DCCFCA0157FD0796A3E095958795AA956E
:10131000E1F7A481B5818A9F90018B9F300D9A9F40
:10132000300D1124620F731F078CF0A1E02DE60F22
:10133000F71F4770552721E030E001C0220F4A9582
:10134000EAF78081822B80830895CA0157FD0796B2
:1013500033E0959587953A95E1F7A481B5818A9F09
:1013600090018B9F300D9A9F300D1124620F731FD7
:10137000078CF0A1E02DE60FF71F4770552781E09D
:1013800090E001C0880F4A95EAF780959081892303
:10139000DACFCA0157FD079623E0959587952A95E0
:1013A000E1F7A481B5818A9F90018B9F300D9A9FB0
:1013B000300D1124620F731F078CF0A1E02DE60F92
:1013C000F71F4770552721E030E001C0220F4A95F2
:1013D000EAF780818227B7CF08958EBD00000DB453
:1013E00007FEFDCF8EB508958CBD9DBD089508956F
:1013F000FC016370668B8481958126813781613021
:1014000039F0633029F091878087338722870895E8
:10141000318720879387828708952F923F924F923A
:101420005F926F927F928F929F92AF92BF92CF9274
:10143000DF92EF92FF920F931F93CF93DF93CDB77D
:10144000DEB76A970FB6F894DEBF0FBECDBF9A8F96
:10145000898F7A8369834A01D22E18870F833701D7
:10146000BC2CDC0159962D913C915A9721153105E0
:1014700009F015C118968D919C91199768177907F5
:101480000CF0D7C11A968D919C91481759070CF012
:10149000D0C14C2C512CB6E0CB9E600D711D112497
:1014A0007C876B87161617060CF0C3C1EA2DF0E097
:1014B000FA87E98793E0EE0FFF1F9A95E1F7F88B23
:1014C000EF87CF01840F951F181619060CF0B1C1D4
:1014D000A98DBA8D58968C91811104C0BFEABD15B3
:1014E00008F4D394A98DBA8DED91FC9111970284E3
:1014F000F385E02DCD010995B5E0DB9EC0011124F7
:10150000E981FA81FC83EB83312C212C9C01285941
:101510003F4F388F2F8B4A2D50E05E8B4D8BEF89DC
:10152000F88DE20DF31D44919E828D82D12CC12C49
:1015300069817A81620D731D7A8B698B842F90E0AB
:101540009C8B8B8BE98DFA8DA081B18140FF82C08D
:10155000F1E0BF126FC0AF126DC01C96ED91FC910F
:101560002F813885A4014C0D5D1D69897A89898D8B
:101570009A8D0995EB89FC89F595E7954E2F5FEFDC
:10158000C51AD50A6D817E818D899E89680F791F64
:101590007E836D8398E0C916D10481F6AFEF2A1AD5
:1015A0003A0AEB81FC81E40DF51DFC83EB83F5E049
:1015B0002F16310409F0B3CF2F8138852615370552
:1015C000B9F0A98DBA8DED91FC91B1E0BB1257C075
:1015D000AB1255C069817A816B5F7F4F0088F189BA
:1015E000E02D830128E030E0A401898D9A8D0995D2
:1015F000A98DBA8DED91FC9111970688F789E02DA0
:10160000CD016A960FB6F894DEBF0FBECDBFDF9155
:10161000CF911F910F91FF90EF90DF90CF90BF90EF
:10162000AF909F908F907F906F905F904F903F9082
:101630002F9009941E96ED91FC91EF80F884098516
:101640001A8592014D815E816B817C81898D9A8D95
:10165000099590CF2F8138852615370509F48ACF53
:1016600031E0B31207C0A31205C01C96ED91FC91A6
:10167000930178CF1E96ED91FC917301E0CF6B85BD
:101680007C85641975090684F785E02D73010F8543
:1016900018899201A401898D9A8D0995A9CFF90124
:1016A00034969491329745915491D91AB7E0DB9EC4
:1016B000400D511D1124F901259134913C8B2B8B48
:1016C000FA0125903490FA01329674903196349153
:1016D000398B329664903196449041E04C1518F065
:1016E0004A1508F07FC0662D062C000C770B7C8312
:1016F0006B83842D042C000C990B9E838D83A98D04
:10170000BA8DED91FC9111970284F385E02DCD0106
:101710000995512CD12CC12CEA2DF0E0FA87E987EC
:101720002B2D30E03C872B87A401440D511D47FC35
:101730005A95588F4F8B69817A81660D711D67FCB0
:101740007A957E876D877989C71608F051CF2C2D41
:1017500030E04D815E81420F531FA985BA854A9FB3
:10176000C0014B9F900D5A9F900D1124FC01E80D74
:10177000F91DF88BEF87852D612C4F89588D420F0D
:10178000531F5E8B4D8B671408F050C04424439464
:10179000480E877041F4C1010196EB89FC89E20D86
:1017A000F31DD4901C01D7FE19C0A98DBA8DED91FF
:1017B000FC91662D70E0B1E0BB1219C0AB1217C0EE
:1017C0002D853E85620F731F0484F585E02D2F81E2
:1017D00038854D895E89898D9A8D0995DD0C6394D4
:1017E000842DD1CF1E821D821C821B8288CF4B810B
:1017F0005C81640F751FAB85BC856A9FC0016B9FC0
:10180000900D7A9F900D112469817A81680F791F5C
:101810000684F785E02DEF80F88409851A859D01FF
:101820004F855889898D9A8D0995D8CF570CC394C7
:101830008ACF6A960FB6F894DEBF0FBECDBFDF9198
:10184000CF911F910F91FF90EF90DF90CF90BF90BD
:10185000AF909F908F907F906F905F904F903F9050
:101860002F9008958F929F92AF92CF92EF92FF9216
:101870000F931F93CF93DF93EC01262F898D9A8DC1
:10188000009709F051C06A30D1F41D861C868D89FD
:1018900048E0849F900111248E859F85820F931FBD
:1018A0009F878E8781E090E0DF91CF911F910F910C
:1018B000FF90EF90CF90AF909F908F9008956D30F4
:1018C00089F3CC88AD888F898823C1F08C859D856C
:1018D00036E0C39E800D911D112448855985481717
:1018E000590764F44E855F851D861C8638E0A39EEB
:1018F000C0011124840F951F9F878E87EA88FB887B
:10190000088919894E855F856C857D85CE010E9489
:101910000D0A2C898C859D8546E0249F800D911DA4
:1019200011249D878C87BECF6A3069F41D861C8682
:10193000FC013896E4912D898E859F85E29F800D6C
:10194000911D1124ADCF6D3009F4ACCFFC0134965C
:101950003491631708F4A6CF3296E491E61708F4A1
:10196000A1CFFC01329685909490462F431B342FD3
:1019700047E0349F800C911C1124F401329634917D
:101980003196E4913323A9F1EE2399F1CC88F40147
:101990003596E491AD884F89442301F10E2E000C59
:1019A000FF0BE30FF11DCE9EA001CF9E500D112421
:1019B0006C857D85460F571F688579856417750787
:1019C0006CF44E855F851D861C86FC013896E4917B
:1019D000AE9E400D511D11245F874E87EA88FB881B
:1019E000088919894E855F856C857D85CE010E94A9
:1019F0000D0AF4013496E4912C898C859D85E29F33
:101A0000800D911D11248DCF6F927F928F929F92A6
:101A1000AF92BF92CF92DF92EF92FF920F931F93FC
:101A2000CF93DF93EC016B015A0139014801E88142
:101A3000F9810284F385E02D0995E881F981028816
:101A4000F389E02D87019301A501B601CE01099527
:101A5000A501480D591D41505109E881F9810288BD
:101A6000F389E02D9301B601CE010995E881F98152
:101A70000088F189E02D9401A501B601CE010995F8
:101A8000C60CD71CB60161507109E881F981008844
:101A9000F189E02D9401A501CE010995E881F98134
:101AA0000688F789E02DCE01DF91CF911F910F912C
:101AB000FF90EF90DF90CF90BF90AF909F908F906E
:101AC0007F906F9009946F927F928F929F92AF92C6
:101AD000BF92CF92DF92EF92FF920F931F93CF931B
:101AE000DF935C01EB016A01490138018701DC01E8
:101AF000ED91FC916217730719F5641675062CF0C9
:101B0000962D872D3A01C92ED82E96012619370910
:101B10002F5F3F4F048CF58DE02DA301BE01C50161
:101B20000995DF91CF911F910F91FF90EF90DF907A
:101B3000CF90BF90AF909F908F907F906F900895BF
:101B40004615570591F42617370724F0892D4B01C8
:101B5000C22FD82F9E01281939092F5F3F4F068CBD
:101B6000F78DE02DA601B401DACF0284F385E02DD4
:101B70000995D501ED91FC910488F589E02D83014B
:101B80009401A601BE01C5010995D501ED91FC9115
:101B90000688F789E02DC501DF91CF911F910F9144
:101BA000FF90EF90DF90CF90BF90AF909F908F907D
:101BB0007F906F900994EF92FF920F931F93DC0137
:101BC0001A960D911C911B9718962D913C9119977F
:101BD000ED91FC9100A0F1A1E02D7B0150E040E0EF
:101BE00070E060E009951F910F91FF90EF900895CC
:101BF0004F925F926F927F928F929F92AF92BF921D
:101C0000CF92DF92EF92FF920F931F93CF93DF93C8
:101C10006C012B015A0139014801DC01ED91FC9165
:101C20000284F385E02D0995E201640C751CD60150
:101C3000ED91FC91C615D7055CF40088F189E02D83
:101C400087019401A501BE01C60109952196EFCF38
:101C50000688F789E02DC601DF91CF911F910F9182
:101C6000FF90EF90DF90CF90BF90AF909F908F90BC
:101C70007F906F905F904F9009948F929F92AF9258
:101C8000BF92CF92DF92EF92FF920F931F93CF9369
:101C9000DF93EC015B014A016901E881F98102846B
:101CA000F385E02D099595012C0D3D1D215031093D
:101CB000E881F9810488F589E02D78018401A40187
:101CC000B501CE010995E881F9810688F789E02DF3
:101CD000CE01DF91CF911F910F91FF90EF90DF9098
:101CE000CF90BF90AF909F908F9009948F929F92CA
:101CF000AF92BF92CF92DF92EF92FF920F931F931A
:101D0000CF93DF93EC015B014A0169017801E8811F
:101D1000F9810284F385E02D0995C80CD91C860150
:101D200001501109E881F9810488F589E02D9501B8
:101D3000A401B501CE010995E881F9810688F789EA
:101D4000E02DCE01DF91CF911F910F91FF90EF9089
:101D5000DF90CF90BF90AF909F908F900994EF92BB
:101D6000FF920F931F93DC01ED91FC9100A0F1A174
:101D7000E02D09951F910F91FF90EF9008950F931B
:101D80001F93DC01ED91FC91068CF78DE02D0995F8
:101D90001F910F9108950F931F93DC01ED91FC911A
:101DA000048CF58DE02D09951F910F910895DC01AC
:101DB000ED91FC910084F185E02D09943F924F92C2
:101DC0005F926F927F928F929F92AF92BF92CF92CB
:101DD000DF92EF92FF920F931F93CF93DF935C01FB
:101DE0007B014A016901390187E0680E711C93E0AB
:101DF000759467949A95E1F72B01400E511E10E0FF
:101E000000E0312CD0E0C0E0CE0187709927330C80
:101E1000892B59F4FE0183E0F595E7958A95E1F762
:101E2000E00FF11FE80DF91D349037FE0AC021E0E4
:101E300030E0A701B5016C0F7D1F8FEE93E00E948B
:101E4000D70E2196CC16DD06F9F68FEFE81AF80AC0
:101E5000060D171DE414F504A9F6DF91CF911F912B
:101E60000F91FF90EF90DF90CF90BF90AF909F9039
:101E70008F907F906F905F904F903F9008952F923A
:101E80003F924F925F926F927F928F929F92AF920A
:101E9000BF92CF92DF92EF92FF920F931F93CF9357
:101EA000DF9300D000D000D0CDB7DEB73C016A018F
:101EB0003E832D83FC82EB825801A41AB50AB7FE3B
:101EC00003C0B194A194B1088D809E80861A970AB0
:101ED00097FE03C09194819491088A149B045CF04E
:101EE000902F812F0D811E819D838E839C2D8D2DA2
:101EF0006B01692F782F0C151D055CF09D818E817B
:101F00007E836D83692F782F902F812F8601C92EB4
:101F1000D82E1601201A310A2B012D813E81421A3A
:101F2000530A57FE03C0519441945108710137FE82
:101F300003C03FEFE31AF30AF594E7948D819E8185
:101F4000861797075CF5A1E0B0E0BA83A983C016B5
:101F5000D1064CF1D301ED91FC910484F585E02D7F
:101F60002B813C81A8016D817E818A149B041CF029
:101F70004D815E81B801C3010995E418F508F7FEAB
:101F80000AC02D813E8189819A81280F391F3E83A5
:101F90002D83E20CF31C0F5F1F4FD9CF2FEF3FEFC4
:101FA0003A832983D4CF26960FB6F894DEBF0FBEAE
:101FB000CDBFDF91CF911F910F91FF90EF90DF90F8
:101FC000CF90BF90AF909F908F907F906F905F90D9
:101FD0004F903F902F90089508952091E201260F91
:101FE0003327331F21323105ECF420910602FC0126
:101FF00090E080E0243069F082E00895A091E20151
:102000002191AC014E535E4FA40FB52FB11D2C93FF
:102010000196861798F38091E201680F6093E201C0
:1020200080E0089581E008951092060281E0809397
:1020300008021092070261E082E10E94D10561E08E
:1020400083E10E94D105E9EBF0E080818E7F8083FF
:1020500080818D7F808388E48093B80085E48093BD
:10206000BC000895CF93DF9391E09093C101882342
:10207000B9F0C091B800D091BA008091BC008A7BC1
:102080008093BC0060E082E10E94D10560E083E1C2
:102090000E94D1050E941410D093BA00C093B800DA
:1020A000DF91CF910895E091320280913102E817DB
:1020B00030F4F0E0E456FE4F808190E008958FEF19
:1020C0009FEF089590913202809131022FEF3FEF00
:1020D000981748F4E92FF0E0E456FE4F208130E0F5
:1020E0009F5F90933202C9010895809131029091CF
:1020F0003202891B990B0895CF92DF92EF92FF92E3
:102100000F931F93CF93DF937C01CB018A01209122
:102110003D03222389F0EB016B01C40ED51ECC15C3
:10212000DD0569F06991D701ED91FC910190F08195
:10213000E02DC7010995F3CF642F0E94ED0FC80170
:10214000DF91CF911F910F91FF90EF90DF90CF9093
:102150000895CF93DF931F92CDB7DEB769832091A7
:102160003D032223F9F020913A03203258F021E078
:1021700030E0FC013383228390E080E00F90DF9118
:10218000CF91089580913B03E82FF0E0E458FE4F93
:10219000998190838F5F80933B0380933A0381E022
:1021A00090E0ECCF61E0CE0101960E94ED0FF7CFF9
:1021B000CF92DF92EF92FF920F931F93CF93DF9313
:1021C000D0913A0381E0D13208F09CC0C0913C0329
:1021D0000E9430066B017C018091060281116CC067
:1021E00082E08093060281E0809308028FEF809363
:1021F000050210922A02D0932902ACE7B1E0E9E08F
:10220000F2E080E0D8138DC010922B0280912B0257
:10221000CC0FC82BC0932B0280910702813009F0AC
:1022200084C0109207020E9430066B017C018091ED
:102230002B028093BB008091BD019091BE01A091C3
:10224000BF01B091C001892B8A2B8B2BA1F00E947A
:1022500030060091BD011091BE012091BF01309167
:10226000C0016C197D098E099F09061717072807F9
:10227000390708F442C08091BC0083FDD8CF85ECBB
:102280008093BC000E9430066B017C0180910602A5
:10229000823009F44CC0809105028F3F09F469C077
:1022A00080910502803209F466C080910502803376
:1022B00009F463C084E026C08091BD019091BE0105
:1022C000A091BF01B091C001892B8A2B8B2B09F4FF
:1022D00083CF0E9430060091BD011091BE01209174
:1022E000BF013091C0016C197D098E099F09061745
:1022F00017072807390708F06FCF8091BC010E94AB
:10230000321085E010923B0310923A0310923D0385
:10231000DF91CF911F910F91FF90EF90DF90CF90C1
:1023200008959D9191938F5F6DCF85EEA9CF809198
:10233000BD019091BE01A091BF01B091C001892B58
:102340008A2B8B2B09F4A2CF0E9430060091BD018D
:102350001091BE012091BF013091C0016C197D091F
:102360008E099F09061717072807390708F08ECF2F
:10237000C4CF80E0C7CF82E0C5CF83E0C3CFEF9268
:10238000FF920F931F93CF93DF937C01C62F809111
:102390000C0490910D04009709F459C02091100489
:1023A00031E030933D0320933C0310923B031092A5
:1023B0003A03DC01ED91FC910190F081E02D60E0A9
:1023C00009958701EE24E394F12CD1E0C15080916E
:1023D0000C0490910D04CF3F91F1B0E2EB16F104A3
:1023E000D8F00E94D81080910C0490910D04209197
:1023F0001004D0933D0320933C0310923B031092B2
:102400003A03DC01ED91FC910190F081E02D60E058
:102410000995EE24E394F12C80910C0490910D0425
:10242000F8016491DC01ED91FC910190F081E02DC7
:102430000995BFEFEB1AFB0A0F5F1F4FC7CFDF9164
:10244000CF911F910F91FF90EF900C94D810E091D5
:102450001C04F0911D0490818091220480958923B1
:1024600080838701C15008F438C0F801849120911D
:102470000A0430910B04232B29F00E94ED090F5F11
:102480001F4FF0CF28E030E040E8E0911804F091D1
:10249000190490912004582F5423D9F05081952B82
:1024A0009083E0911A04F0911B04908150912104D3
:1024B000952B9083E0911A04F0911B045081909128
:1024C0002104909595239083469521503109E9F692
:1024D000D6CF508190959523E3CFDF91CF911F9177
:1024E0000F91FF90EF9008951F93CF93DF93EC012E
:1024F0008D8D9E8D009721F1162F29A131E030930B
:102500003D0320933C0310923B0310923A03DC01FD
:10251000ED91FC910190F081E02D60E009958D8DA9
:102520009E8DDC01ED91FC910190F081E02D612FF9
:1025300009958D8D9E8DDF91CF911F910C94D810B0
:10254000ADA5BEA59C918BA9809589238C938B8D7D
:102550009C8D892B31F0862FDF91CF911F910C94A8
:10256000ED0928E030E080E8A9A5BAA599A9462F91
:102570004823C1F04C91942B9C93ABA5BCA59C9196
:102580004AA9942B9C93ABA5BCA54C919AA9909574
:1025900094239C9386952150310931F7DF91CF9197
:1025A0001F9108954C9190959423E6CFDF92EF927E
:1025B000FF920F931F93CF93DF9380910C04909120
:1025C0000D04892B09F498C020912404309125042E
:1025D000409126045091270460E074E284EF90E07B
:1025E0000E944E20205131094109510956954795C5
:1025F000379527952093B80065E08FE99AE00E940F
:10260000BF116091F30361508FEE93E00E9474124A
:102610002091F5033091F603C901079697FD0796BF
:1026200033E0959587953A95E1F72091F303309142
:10263000F403829F8001839F100D929F100D11243F
:10264000C0910E04D0910F0480910C0490910D0460
:102650000C0F1D1F009709F48FC02091100431E06A
:1026600030933D0320933C0310923B0310923A03B6
:10267000DC01ED91FC910190F081E02D60E4099581
:10268000EE24E394F12CDD24D39480910C049091FA
:102690000D040C171D0709F446C0B0E2EB16F10457
:1026A000D8F00E94D81080910C0490910D042091D4
:1026B0001004D0923D0320933C0310923B031092F0
:1026C0003A03DC01ED91FC910190F081E02D60E492
:1026D0000995EE24E394F12C80910C0490910D0463
:1026E0006991DC01ED91FC910190F081E02D09955B
:1026F000BFEFEB1AFB0AC9CF80910A0490910B043B
:10270000892B31F080912D0490912E040E94F409C0
:10271000E0911E04F0911F04908180912304809524
:102720008923808369CF0E94D81080910C049091F6
:102730000D04892B09F461C02091280430912904EB
:1027400040912A0450912B0460E074E284EF90E001
:102750000E944E2020513109410951095695479553
:10276000379527952093B800DF91CF911F910F9156
:10277000FF90EF90DF900895E0911C04F0911D040C
:10278000808190912204892B80830C171D0769F2A8
:10279000899120910A0430910B04232B19F00E9497
:1027A000ED09F3CF28E030E040E8E0911804F09123
:1027B000190490912004582F5423D9F05081952B5F
:1027C0009083E0911A04F0911B04908150912104B0
:1027D000952B9083E0911A04F0911B045081909105
:1027E0002104909595239083469521503109E9F66F
:1027F000CCCF508190959523E3CFE0911E04F091CA
:102800001F04808190912304892B8083ADCF1F9377
:10281000CF93DF93EC01162F8D8D9E8D892BB1F117
:102820002DA93EA94FA958AD60E074E284EF90E075
:102830000E944E2020513109410951095695479572
:10284000379527952093B80066EA111167EACE0103
:102850000E9474128D8D9E8D892B41F129AD3AAD68
:102860004BAD5CAD60E074E284EF90E00E944E20DE
:1028700020513109410951095695479537952795BA
:102880002093B800DF91CF911F9108958B8D9C8D7F
:10289000892B21F08EAD9FAD0E94F409EFA5F8A918
:1028A00090818CA9809589238083CECFEFA5F8A94C
:1028B00080819CA9892B8083E5CF90E080E00895FA
:1028C0002091F5033091F603C901079697FD07960D
:1028D00023E0959587952A95E1F72091F3033091B0
:1028E000F403829FA001839F500D929F500D1124ED
:1028F00070E060E080910E0490910F040C94ED2341
:10290000FC0101900020E9F73197AF01481B590BFA
:10291000BC018FEE93E00C9489060E94E82385EDBC
:102920008093BC008091BD019091BE01A091BF0138
:10293000B091C0010796A11DB11D23E0B695A795E2
:10294000979587952A95D1F72091BC0024FD03C067
:102950001092060208954091BD015091BE01609110
:10296000BF017091C001452B462B472B69F300979F
:10297000A105B10541F02AE22A95F1F700C00197BF
:10298000A109B109E1CF8091BC010C9432101F92D2
:102990000F920FB60F9211242F933F938F939F9313
:1029A000AF93BF938091320390913303A09134038E
:1029B000B09135033091310323E0230F2D3758F5C3
:1029C0000196A11DB11D2093310380933203909392
:1029D0003303A0933403B093350380913603909171
:1029E0003703A0913803B09139030196A11DB11DA1
:1029F0008093360390933703A0933803B093390341
:102A0000BF91AF919F918F913F912F910F900FBEEA
:102A10000F901F90189526E8230F0296A11DB11D57
:102A2000D2CF1F920F920FB60F9211242F933F9384
:102A30004F935F936F937F938F939F93AF93BF93C6
:102A4000EF93FF938EE393E00E940707FF91EF91CE
:102A5000BF91AF919F918F917F916F915F914F91B6
:102A60003F912F910F900FBE0F901F9018951F92BE
:102A70000F920FB60F9211242F938F939F93EF9382
:102A8000FF93E0914E03F0914F038081E091540356
:102A9000F091550382FD1BC09081809157038F5F99
:102AA0008F7320915803821741F0E0915703F0E0B3
:102AB000E25CFC4F958F80935703FF91EF919F91BC
:102AC0008F912F910F900FBE0F901F9018958081BE
:102AD000F4CF1F920F920FB60F9211242F933F93B2
:102AE0004F935F936F937F938F939F93AF93BF9316
:102AF000EF93FF938091B900887F803609F44AC034
:102B0000F0F5883209F4A7C018F5803109F49BC0AC
:102B1000B8F4882309F4F9C0883009F494C0FF910F
:102B2000EF91BF91AF919F918F917F916F915F9145
:102B30004F913F912F910F900FBE0F901F901895BE
:102B4000883109F488C0803251F78093050214C09F
:102B5000803409F49DC040F48033B9F38833F9F62A
:102B60008093050285ECB0C0803509F485C08835B6
:102B700009F496C0883499F60E948F14D0CF883912
:102B800009F48CC038F5883729F050F4883611F0F4
:102B9000803729F683E0809306021092040257C022
:102BA000883809F47BC0803919F0803809F0B7CF34
:102BB00080910402803208F071C0E091040281E04B
:102BC0008E0F809304028091BB00F0E0EC51FE4F29
:102BD00080833DC0803B39F0E0F4803A09F479C04D
:102BE000883A09F09CCF84E0809306021092E301BA
:102BF0001092E201E0912F02F0913002099580914C
:102C0000E20181110FC081E08093E2011092C201C4
:102C100009C0803C09F4A6CF883C09F4A3CF883BC7
:102C200009F07DCFE091E30181E08E0F8093E30115
:102C3000F0E0EE53FE4F80818093BB009091E30162
:102C40008091E20129C080912B028093BB0085EC2A
:102C50008093BC0064CF90912A028091290298173A
:102C600058F5E0912A0281E08E0F80932A02F0E06D
:102C7000E75FFD4F8081E9CFE0912A0281E08E0F6E
:102C800080932A028091BB00F0E0E75FFD4F8083D4
:102C900090912A02809129029817C8F285E8D8CF2E
:102CA000E0912A0281E08E0F80932A028091BB007E
:102CB000F0E0E75FFD4F80838091080281115CCFD7
:102CC00081E08093070284EA8093BC0010920602A0
:102CD00026CF85EC8093BC001092060280910402FE
:102CE000803230F4E0910402F0E0EC51FE4F1082AB
:102CF0006091040270E0E0912D02F0912E0284EECA
:102D000091E00995109204020ACF1092050234CF87
:102D1000CF92DF92EF92FF92EEE3F3E01382128202
:102D200048EE53E060E070E0448355836683778328
:102D300088E191E09183808385EC90E0958784879A
:102D400084EC90E09787868780EC90E0918B808B75
:102D500081EC90E0938B828B82EC90E0958B848B5E
:102D600086EC90E0978B868B118E128E138E148ECC
:102D7000A3EEB3E013961C921E92129714964D93F5
:102D80005D936D937C9317978AE291E011969C93E3
:102D90008E93EFEEF3E01382128220E830E0358369
:102DA000248380E490E0978386833187208793870C
:102DB0008287168A158614861786168681E0858B8B
:102DC000848B2FEF3FEF338B228B318B208B878BC4
:102DD000108E128E118E8CE391E091838083148E7D
:102DE000138EB68FA58F10A2178E8FEF84A385A3A5
:102DF00086A387A38CE380A780E89AE1A6E0B0E0F1
:102E000085AB96ABA7ABB0AF80EA96E8A1E0B0E0A7
:102E100081AF92AFA3AFB4AF80E586AF17AE0E948B
:102E2000C41F26E0C22ED12CE12CF12CA701960163
:102E30000E941C2063507109810991090E949B2105
:102E40006093DF037093E0038093E1039093E203C8
:102E50000E94C41FA70196010E941C2063507109A3
:102E6000810991090E949B216093DB037093DC032D
:102E70008093DD039093DE03FF90EF90DF90CF907F
:102E80000895CF93DF93CDB7DEB7E3970FB6F894ED
:102E9000DEBF0FBECDBF789484B5826084BD84B59B
:102EA000816084BD85B5826085BD85B5816085BD45
:102EB00080916E00816080936E00109281008091FD
:102EC0008100826080938100809181008160809385
:102ED0008100809180008160809380008091B100AA
:102EE00084608093B1008091B00081608093B000D5
:102EF00080917A00846080937A0080917A00826069
:102F000080937A0080917A00816080937A0080912A
:102F10007A00806880937A001092C10060E081E1BD
:102F20000E94FF0560E088E00E94FF0560E08AE003
:102F30000E94FF0560E089E00E94FF05E0914E03DA
:102F4000F0914F0382E08083E0914A03F0914B03BC
:102F50001082E0914C03F0914D038FEC808310922E
:102F60005603E0915203F091530386E08083E09191
:102F70005003F0915103808180618083E091500380
:102F8000F0915103808188608083E0915003F0913B
:102F90005103808180688083E0915003F091510358
:102FA00080818F7D808380910E0490910F04892B06
:102FB00011F10E9460142091F5033091F603809185
:102FC000F3039091F403213231050CF054C0B901A0
:102FD0006052710977FF02C06F5F7F4F75956795EB
:102FE0008357910997FD019600E210E023E730E056
:102FF0004AE855E053C02091F5033091F603C9012A
:10300000079697FD0796B3E095958795BA95E1F7F2
:103010002091F3033091F4036C01C29EC001C39E62
:10302000900DD29E900D11240E94C32290930F0404
:1030300080930E04892B09F0BCCF0AE21AE01B83AF
:103040000A83EA81FB816491662361F08EE393E059
:103050000E9429070A811B810F5F1F4F1B830A8370
:10306000892B79F742E050E064E671E08EE393E06B
:103070000E948906FFCFB9016054710977FF02C031
:103080006F5F7F4F759567958255910997FD019602
:1030900000E410E022E530E04AE657E09595879598
:1030A0000E94DE0E82E08093110480910C049091C6
:1030B0000D04892B09F498C08CE3809310041092BE
:1030C00032021092310210923B0310923A030E9496
:1030D000141087E896E09093300280932F0288E8DE
:1030E00096E090932E0280932D028091170487FD25
:1030F0001EC061E00E94FF0561E0809117040E94FC
:10310000D10561E070E080E090E00E94550660E04B
:10311000809117040E94D1056AE070E080E090E0A1
:103120000E94550661E0809117040E94D1058091AC
:103130000C0490910D04892B09F417C120912404EB
:1031400030912504409126045091270460E074E2F8
:1031500084EF90E00E944E2020513109410951092D
:1031600056954795379527952093B80064E086E8F3
:1031700095E00E94BF116091F50361508FEE93E0DE
:103180000E94741264E082E895E00E94BF11809171
:10319000110460E1813009F064E18FEE93E00E9458
:1031A000741264E08EE795E00E94BF118FE880936F
:1031B0002C048091F3039091F4038038910509F079
:1031C000EDC08091F5039091F6038034910509F0EC
:1031D0008DC180911104813009F0DEC08FE98093A8
:1031E0002C0402E10983EEC061E0809115040E9485
:1031F000FF0561E0809116040E94FF05809115048F
:10320000082E000C990BFC01ED59F54FE491F0E00C
:10321000EE0FFF1FE15BF54F2591349130931D04B4
:1032200020931C04FC01E958F54FE491E09322043B
:1032300080911604082E000C990BFC01ED59F54FF6
:10324000E491F0E0EE0FFF1FE15BF54FA591B49123
:10325000B0931F04A0931E04FC01E958F54FE491BC
:10326000E09323048C91E82BEC9380910A049091D5
:103270000B04892B09F436C0DFB6D982F89480910B
:103280002C02811127C0EDE6FAE08491E1E8FAE032
:103290009491E82FF0E0EE0FFF1FEB5BF54FA59147
:1032A000B491EC91E92321F461E08AE00E94D10518
:1032B00061E08AE00E94FF058CB580618CBD8CB511
:1032C00080648CBD61E08DE00E94FF0561E08BE0D1
:1032D0000E94FF0580912C028F5F80932C02E98071
:1032E000EFBE03CF61E0809113040E94FF0561E00F
:1032F000809114040E94FF0580911304082E000C95
:10330000990BFC01ED59F54FE491F0E0EE0FFF1F32
:10331000E15BF54F25913491309319042093180403
:10332000FC01E958F54FE491E093200480911404E6
:10333000082E000C990BFC01ED59F54FE491F0E0DB
:10334000EE0FFF1FE15BF54FA591B491B0931B0405
:10335000A0931A04FC01E958F54FE491E09321048D
:103360008C91E095E823EC93C0CE80910A04909173
:103370000B04892B31F080912D0490912E040E9432
:10338000F409E0911E04F0911F04908180912304C0
:10339000809589238083EACE8FEC21CF80369105FA
:1033A00079F48091F5039091F603409709F09EC05F
:1033B00080911104813009F097C080E180932C0442
:1033C00012E019836AED8FEE93E00E947412698116
:1033D0008FEE93E00E94741261E88FEE93E00E94FA
:1033E000741260912C048FEE93E00E94741269EDC8
:1033F0008FEE93E00E9474128091110462E281309A
:1034000009F061EF8FEE93E00E94741266E088E7A6
:1034100095E00E94BF1180910C0490910D04892BBE
:1034200009F466C0209128043091290440912A04AF
:1034300050912B0460E074E284EF90E00E944E20F3
:1034400020513109410951095695479537952795DE
:103450002093B8006FEF72E04FE9A42E42E0B42E43
:10346000AFE3B2E090E080E011E050E040E0912C6A
:10347000812C30E020E07D01E40EF51EF701918201
:1034800080827501E40EF51EF701918380837B0134
:10349000E20EF31EF70110832F5F3F4FF9E08F0E0E
:1034A000911C4E5F5F4F2C30310529F7589608E18B
:1034B000A00EB11C0596645F7F4F84319105A9F67B
:1034C00080912F03909130030097E1F0019709F468
:1034D000D6C080E090E0892B99F30E94F306882300
:1034E00079F30E940000ECCF8FEA68CF02E07ACE39
:1034F000E0911E04F0911F04808190912304892B98
:103500008083A8CF0E94601428E230E03093FC034F
:103510002093FB0344E150E05093FE034093FD03EE
:1035200061E070E070930204609301047093000402
:103530006093FF0381E0809303048093040487E693
:1035400091E00E94801488E00E94A80581309105D6
:1035500041F4909338028093370210923602109211
:1035600035028AE00E94A8058130910541F49093CC
:10357000360280933502109238021092370289E0A9
:103580000E94A8058130910509F067C0909334022C
:10359000809333028091370290913802019779F439
:1035A000EE24E394F12C01E110E02CE330E04FE055
:1035B00050E060E270E08FEE93E00E94040D88E23C
:1035C00090E09093FC038093FB039093FE03809321
:1035D000FD03A1E0B0E0B0930204A0930104B09316
:1035E0000004A093FF0381E080930304809304040C
:1035F0008DE691E00E948014809135029091360210
:10360000019779F4EE24E394F12C01E110E02CE32E
:1036100030E043E250E060E270E08FEE93E00E9421
:10362000040D8091330290913402019799F48091B6
:1036300037029091380281309105A1F490933003C4
:1036400080932F03109238021092370210923402A6
:10365000109233020E94D6123CCF10923402109284
:10366000330298CF8091350290913602019791F7FD
:10367000E2E0F0E0F0933003E0932F03EBCF0E9401
:1036800060148FE3A82E82E0B82E9FE9892E92E085
:10369000992E0FEF12E01B830A83D12CC12CEA81F3
:1036A000FB81EC0DFD1D80818823E1F0C601880FB0
:1036B000991FF401E80FF91F408151814F5F5F4F5F
:1036C0008A0D9B1DDC016D917C91665F7F4FEE241E
:1036D000E394F12C04E010E028E030E08FEE93E07A
:1036E0000E94F80DBFEFCB1ADB0AECE0CE16D10436
:1036F000B1F60A811B81045F1F4F1B830A8318E107
:10370000810E911C28E1A20EB11C4A815B814F52AF
:10371000534019F683E480937C0080917A008064A2
:1037200080937A0080917A0086FDFCCF60917800CA
:1037300070917900072E000C880B990B0E949B2139
:1037400020E030EC4FE754E40E94F12020E030E02C
:1037500048EC52E40E9450226B017C0120E030E0F2
:10376000A9010E944B2220E030E040E05FE387FDAA
:1037700006C1C701B6010E9480200E946321709398
:103780003E0260933D02EE24E394F12C02E010E04F
:103790002CE130E04EE350E08FEE93E00E94F80D14
:1037A0004090DF035090E0036090E1037090E203EB
:1037B0006091080170910901072E000C880B990B8C
:1037C0000E949B21A30192010E9480200E946321FC
:1037D0006B0170930901609308018090DB03909066
:1037E000DC03A090DD03B090DE03609106017091D0
:1037F0000701072E000C880B990B0E949B21A50145
:1038000094010E9480200E946321709307016093BD
:1038100006019601235031092B373105F0F077FA74
:10382000709477F870944092DF035092E0036092B6
:10383000E1037092E203AFE7CA16D1041CF0AEE7D1
:10384000CA2ED12CB2E0CB16D1041CF4F2E0CF2E5C
:10385000D12CD0920901C09208019B01235031095B
:103860002B333105D0F0B7FAB094B7F8B09480920A
:10387000DB039092DC03A092DD03B092DE036F3392
:10388000710514F06EE370E06230710514F462E0CB
:1038900070E07093070160930601C0900801D0901A
:1038A0000901DBAACAAAB6016E5F7F4FC601029763
:1038B000E0900601F0900701FB82EA82A7014E5FCB
:1038C0005F4F970122503109C090DB03D090DC0399
:1038D000E090DD03F090DE03CC82DD82EE82FF8299
:1038E000E090DF03F090E0030091E1031091E20328
:1038F000E886F9860A871B870FE912E01D870C8787
:103900000FE312E01F870E87EFEF2E2EE2E03E2E30
:103910006B01770FEE08FF08CA8EDB8EEC8EFD8EF2
:103920007A01550F000B110BEE8EFF8E08A319A321
:103930006901330FEE08FF08CAA2DBA2ECA2FDA2C8
:10394000EAA8FBA80F2C000C000B110BEEA2FFA2A3
:1039500008A719A7CA80DB800D2C000CEE08FF0811
:10396000CAA6DBA6ECA6FDA67C01990F000B110BE5
:10397000EEA6FFA608AB19AB10E000E008C0C70137
:10398000B6010E947F20F9CEF980F11058C1610183
:10399000C00ED11ED98EC88ED601BC91B983BB236F
:1039A00009F42FC17801EE0CFF1CEE85FF85EE0DAA
:1039B000FF1DC080D180B60162507109072E000C36
:1039C000880B990B0E949B214B015C01B601665F3D
:1039D0007F4F072E000C880B990B0E949B212B0117
:1039E0003C01EC85FD85EE0DFF1DE080F180B70107
:1039F00062507109072E000C880B990B0E949B21C5
:103A0000688B798B8A8B9B8B6A8D7B8D8C8D9D8D42
:103A10000E949B219B01AC01C501B4010E94EC20D6
:103A200018167CF06EA57FA588A999A90E949B21F4
:103A30009B01AC01E1E0E983C301B2010E944B228A
:103A400087FD19826E8D7F8D88A199A10E949B218F
:103A50009B01AC01688979898A899B890E94EC2045
:103A60001816ECF0B7016A5F7F4F072E000C880B29
:103A7000990B0E949B216C8B7D8B8E8B9F8B6AA1F7
:103A80007BA18CA19DA10E949B219B01AC016C8913
:103A90007D898E899F890E944B2287FF2AC01982C7
:103AA000B0C04C815D816E817F8170584C835D8395
:103AB0006E837F83A3C020E030E040E050E4209399
:103AC000DF033093E0034093E1035093E2030BC123
:103AD0001092DF031092E0031092E1031092E203D0
:103AE0001092DB031092DC031092DD031092DE03D0
:103AF0008EC1C980CC2009F484C06EA17FA188A5A5
:103B000099A50E949B216B017C01A50194010E9453
:103B10007F204B015C0120E030E0A9010E944B2294
:103B2000181624F0B7FAB094B7F8B094A301920134
:103B3000C701B6010E947F206B017C0120E030E0CC
:103B4000A9010E944B22181624F0F7FAF094F7F816
:103B5000F094A7019601C501B4010E94EC2087FFF3
:103B600002C0750164016AA57BA58CA59DA50E9474
:103B70009B212B013C01288939894A895B890E9454
:103B80007F204B015C0120E030E0A9010E944B2224
:103B9000181624F0B7FAB094B7F8B0942C893D8980
:103BA0004E895F89C301B2010E947F202B013C0135
:103BB00020E030E0A9010E944B22181624F077FA89
:103BC000709477F87094A3019201C501B4010E942A
:103BD000EC2087FF02C024013501A3019201C70137
:103BE000B6010E94EC2087FF5CCF288539854A8585
:103BF0005B855058288739874A875B87A88DB98DA0
:103C00001C920F5F1F4F0C30110509F0BDCEE3E28F
:103C1000F3E0E215F30599F00CE0200E311C0E855F
:103C20001F85085E1F4F1F870E870C851D85085E48
:103C30001F4F1D870C871981112309F49DCECC805D
:103C4000DD80EE80FF80C092DB03D092DC03E09247
:103C5000DD03F092DE03E884F9840A851B85E09297
:103C6000DF03F092E0030093E1031093E2038091FD
:103C70003D0290913E022AA93BA92E5F3F4F281793
:103C800039070CF45DC00AA91BA9025011094C9612
:103C9000801791070CF454C08A819B81CC970797B9
:103CA00008F04EC00E94C41F26E030E040E050E023
:103CB0000E941C2063507109810991090E949B2177
:103CC0006B017C0120E030E040E85FE30E94EC20E3
:103CD000882309F4F0CEC092DF03D092E003E09293
:103CE000E103F092E20320E030E040E85FEB609116
:103CF000DF037091E0038091E1039091E2030E9461
:103D0000EC2081110CC040E050E060E070EC40938A
:103D1000DF035093E0036093E1037093E20380912B
:103D2000DB039091DC03A091DD03B091DE03B0587A
:103D30008093DB039093DC03A093DD03B093DE0359
:103D40008091060190910701CE970CF477C02FB7B0
:103D5000F8948091320390913303A0913403B09191
:103D600035032FBF4091390250913A0260913B02D6
:103D700070913C02841B950BA60BB70B409102017E
:103D8000509103016091040170910501841795071A
:103D9000A607B70708F49CCE2FB7F894809132039A
:103DA00090913303A0913403B09135032FBF8093DA
:103DB000390290933A02A0933B02B0933C0260E434
:103DC00070E0709309016093080180E290E09093A5
:103DD00007018093060110920201109203011092D4
:103DE00004011092050180E090E0A0E0B0E480932F
:103DF000DF039093E003A093E103B093E203809389
:103E0000DB039093DC03A093DD03B093DE0380918A
:103E100000019091010101979093010180930001AD
:103E2000019631F482E791E00E9480140E946014B0
:103E300068EE73E080E090E00E945506C0900601B5
:103E4000D0900701E0900801F0900901FB82EA821E
:103E5000760102E0E01AF10801E010E025E030E030
:103E6000A7016A817B818FEE93E00E94CB0E6A816D
:103E70007B816F5F7F4F25E030E0A7018FEE93E0FD
:103E80000E94CB0E6A817B816150710925E030E090
:103E9000A7018FEE93E00E94CB0E11E0C11AD1086A
:103EA0006A817B816E5F7F4F01E010E023E030E0AC
:103EB000A6018FEE93E00E94CB0E6A817B81625057
:103EC000710923E030E0A6018FEE93E00E94CB0E53
:103ED000C1CB8CE391E09093F0038093EF0380914A
:103EE0000E0490910F04009711F00C945F23089535
:103EF0008F929F92AF92BF92CF92DF92EF92FF92FA
:103F0000CF93DF93EC01688179818A819B81611570
:103F100071058105910521F464E279ED8BE597E067
:103F20002DE133EF41E050E00E941C2049015A018D
:103F30009B01AC01A7EAB1E40E943B206B017C012C
:103F4000ACEEB4EFA50194010E944920C60ED71E25
:103F5000E81EF91EF7FE06C081E0C81AD108E10884
:103F600080E8F80AC882D982EA82FB82C701B601DA
:103F70009F77DF91CF91FF90EF90DF90CF90BF9030
:103F8000AF909F908F9008958F929F92AF92BF9223
:103F9000CF92DF92EF92FF9260910A0170910B0134
:103FA00080910C0190910D016115710581059105BC
:103FB00021F464E279ED8BE597E02DE133EF41E008
:103FC00050E00E941C2049015A019B01AC01A7EA64
:103FD000B1E40E943B206B017C01ACEEB4EFA50183
:103FE00094010E944920C60ED71EE81EF91EF7FE56
:103FF00006C081E0C81AD108E10880E8F80AC0923A
:104000000A01D0920B01E0920C01F0920D01C70160
:10401000B6019F77FF90EF90DF90CF90BF90AF9069
:104020009F908F90089560930A0170930B01809385
:104030000C0190930D010895052E97FB1EF400943A
:104040000E94332057FD07D00E944E2007FC03D06A
:104050004EF40C94332050954095309521953F4F68
:104060004F4F5F4F089590958095709561957F4F64
:104070008F4F9F4F08950E947020A59F900DB49F71
:10408000900DA49F800D911D11240895B7FF0C94ED
:104090003B200E943B20821B930B0895A1E21A2E25
:1040A000AA1BBB1BFD010DC0AA1FBB1FEE1FFF1FDC
:1040B000A217B307E407F50720F0A21BB30BE40B2C
:1040C000F50B661F771F881F991F1A9469F7609573
:1040D0007095809590959B01AC01BD01CF0108952D
:1040E000A29FB001B39FC001A39F700D811D112439
:1040F000911DB29F700D811D1124911D089550587E
:10410000BB27AA270E9497200C9411220E94032209
:1041100038F00E940A2220F039F49F3F19F426F467
:104120000C9400220EF4E095E7FB0C94FA21E92FA1
:104130000E94222258F3BA17620773078407950773
:1041400020F079F4A6F50C9444220EF4E0950B2EA1
:10415000BA2FA02D0B01B90190010C01CA01A001D9
:104160001124FF27591B99F0593F50F4503E68F134
:104170001A16F040A22F232F342F4427585FF3CF75
:10418000469537952795A795F0405395C9F77EF446
:104190001F16BA0B620B730B840BBAF09150A1F08F
:1041A000FF0FBB1F661F771F881FC2F70EC0BA0F15
:1041B000621F731F841F48F4879577956795B7959D
:1041C000F7959E3F08F0B0CF9395880F08F0992798
:1041D000EE0F9795879508950E94D62108F481E007
:1041E00008950E9405210C9411220E940A2258F081
:1041F0000E94032240F029F45F3F29F00C94FA2139
:1042000051110C9445220C9400220E94222268F342
:104210009923B1F3552391F3951B550BBB27AA277F
:1042200062177307840738F09F5F5F4F220F331FB9
:10423000441FAA1FA9F335D00E2E3AF0E0E832D081
:1042400091505040E695001CCAF72BD0FE2F29D084
:10425000660F771F881FBB1F261737074807AB0756
:10426000B0E809F0BB0B802DBF01FF2793585F4FCB
:104270003AF09E3F510578F00C94FA210C944522B7
:104280005F3FE4F3983ED4F3869577956795B795AD
:10429000F7959F5FC9F7880F911D9695879597F9B8
:1042A0000895E1E0660F771F881FBB1F6217730731
:1042B0008407BA0720F0621B730B840BBA0BEE1F46
:1042C00088F7E09508950E946A216894B1110C94D2
:1042D000452208950E942A2288F09F5798F0B92F0E
:1042E0009927B751B0F0E1F0660F771F881F991F2B
:1042F0001AF0BA95C9F714C0B13091F00E94442267
:10430000B1E008950C944422672F782F8827B85F76
:1043100039F0B93FCCF3869577956795B395D9F782
:104320003EF490958095709561957F4F8F4F9F4F8C
:104330000895E89409C097FB3EF490958095709598
:1043400061957F4F8F4F9F4F9923A9F0F92F96E9E1
:10435000BB279395F695879577956795B795F11156
:10436000F8CFFAF4BB0F11F460FF1BC06F5F7F4FF3
:104370008F4F9F4F16C0882311F096E911C0772305
:1043800021F09EE8872F762F05C0662371F096E80E
:10439000862F70E060E02AF09A95660F771F881FDD
:1043A000DAF7880F9695879597F90895990F000881
:1043B000550FAA0BE0E8FEEF16161706E807F907F7
:1043C000C0F012161306E407F50798F0621B730B92
:1043D000840B950B39F40A2661F0232B242B252B13
:1043E00021F408950A2609F4A140A6958FEF811DB6
:1043F000811D089597F99F6780E870E060E0089557
:104400009FEF80EC089500240A94161617061806EC
:104410000906089500240A941216130614060506C8
:104420000895092E0394000C11F4882352F0BB0F59
:1044300040F4BF2B11F460FF04C06F5F7F4F8F4FBC
:104440009F4F089557FD9058440F551F59F05F3FF7
:1044500071F04795880F97FB991F61F09F3F79F0A6
:1044600087950895121613061406551FF2CF469528
:10447000F1DF08C0161617061806991FF1CF8695AA
:104480007105610508940895E894BB27662777278E
:10449000CB0197F908950E94D62108F48FEF089573
:1044A0000E9463220C9411220E94032238F00E9481
:1044B0000A2220F0952311F00C94FA210C9400228A
:1044C00011240C9445220E94222270F3959FC1F37F
:1044D000950F50E0551F629FF001729FBB27F00DB2
:1044E000B11D639FAA27F00DB11DAA1F649F662707
:1044F000B00DA11D661F829F2227B00DA11D621F56
:10450000739FB00DA11D621F839FA00D611D221F0F
:10451000749F3327A00D611D231F849F600D211DF3
:10452000822F762F6A2F11249F5750409AF0F1F076
:1045300088234AF0EE0FFF1FBB1F661F771F881FDF
:1045400091505040A9F79E3F510580F00C94FA21FC
:104550000C9445225F3FE4F3983ED4F3869577951B
:104560006795B795F795E7959F5FC1F7FE2B880F85
:10457000911D9695879597F90895EE0FFF1F059069
:10458000F491E02D09940F931F93CF93DF93823022
:10459000910510F482E090E0E0913104F091320452
:1045A00030E020E0B0E0A0E0309799F4211531052B
:1045B00009F44AC0281B390B24303105D8F58A810B
:1045C0009B816115710589F1FB0193838283FE0153
:1045D00011C0408151810281138148175907E0F0D1
:1045E0004817590799F4109761F012960C93129797
:1045F00013961C933296CF01DF91CF911F910F91AB
:1046000008950093310410933204F4CF211531053D
:1046100051F04217530738F0A901DB019A01BD019F
:10462000DF01F801C1CFEF01F9CF909332048093FD
:104630003104CDCFFE01E20FF31F819391932250FD
:10464000310939832883D7CF20912F04309130044A
:10465000232B41F42091100130911101309330044B
:1046600020932F0420910E0130910F012115310567
:1046700041F42DB73EB74091120150911301241B14
:10468000350BE0912F04F0913004E217F307A0F40A
:104690002E1B3F0B2817390778F0AC014E5F5F4F98
:1046A0002417350748F04E0F5F1F50933004409396
:1046B0002F04819391939FCFF0E0E0E09CCFCF93C4
:1046C000DF930097E9F0FC01329713821282A091E8
:1046D0003104B0913204ED0130E020E01097A1F4F4
:1046E00020813181820F931F20912F04309130045B
:1046F0002817390709F061C0F0933004E0932F04C4
:10470000DF91CF910895EA01CE17DF07E8F54A81DE
:104710005B819E0141155105B1F7E901FB83EA83F5
:1047200049915991C40FD51FEC17FD0761F48081A1
:1047300091810296840F951FE90199838883828174
:1047400093819B838A83F0E0E0E012968D919C91A7
:1047500013970097B9F52D913C911197CD010296D1
:10476000820F931F20912F043091300428173907AE
:1047700039F6309751F51092320410923104B0930B
:104780003004A0932F04BCCFD383C28340815181D6
:10479000840F951FC817D90761F44E5F5F4F88815A
:1047A0009981480F591F518340838A819B8193834C
:1047B00082832115310509F0B0CFF0933204E093E4
:1047C00031049ECFFD01DC01C0CF13821282D7CF0E
:1047D00081E090E0F8940C94F423DC0101C06D9327
:1047E00041505040E0F7089515E0C3E5D5E004C01E
:1047F000FE010E94BD222196C435D107C9F7F89465
:10480000FFCF0300E803000020004000010000008B
:104810000000330480000000000029078906B60666
:104820007607E706C506D90600000000A9107C102F
:104830005D147E0575106210531000000000320CEC
:1048400089065D14EC0F3D097E05D70EAF0ECB0E29
:10485000BF0E3F0F7E05F8090714AD08F608F80DE6
:10486000DB0D630D040D0D0A005374617274004575
:0E4870007869740047616D65204F76657200AF
:107E0000112484B714BE81FFF0D085E080938100F7
:107E100082E08093C00088E18093C10086E0809377
:107E2000C20080E18093C4008EE0C9D0259A86E02C
:107E300020E33CEF91E0309385002093840096BBD3
:107E4000B09BFECF1D9AA8958150A9F7CC24DD24C4
:107E500088248394B5E0AB2EA1E19A2EF3E0BF2EE7
:107E6000A2D0813461F49FD0082FAFD0023811F036
:107E7000013811F484E001C083E08DD089C08234E0
:107E800011F484E103C0853419F485E0A6D080C0E4
:107E9000853579F488D0E82EFF2485D0082F10E0AE
:107EA000102F00270E291F29000F111F8ED06801E7
:107EB0006FC0863521F484E090D080E0DECF843638
:107EC00009F040C070D06FD0082F6DD080E0C81688
:107ED00080E7D80618F4F601B7BEE895C0E0D1E017
:107EE00062D089930C17E1F7F0E0CF16F0E7DF06D8
:107EF00018F0F601B7BEE89568D007B600FCFDCFD4
:107F0000A601A0E0B1E02C9130E011968C91119780
:107F100090E0982F8827822B932B1296FA010C0160
:107F200087BEE89511244E5F5F4FF1E0A038BF0790
:107F300051F7F601A7BEE89507B600FCFDCF97BE46
:107F4000E89526C08437B1F42ED02DD0F82E2BD052
:107F50003CD0F601EF2C8F010F5F1F4F84911BD097
:107F6000EA94F801C1F70894C11CD11CFA94CF0C13
:107F7000D11C0EC0853739F428D08EE10CD085E9AC
:107F80000AD08FE07ACF813511F488E018D01DD067
:107F900080E101D065CF982F8091C00085FFFCCF94
:107FA0009093C60008958091C00087FFFCCF809118
:107FB000C00084FD01C0A8958091C6000895E0E648
:107FC000F0E098E1908380830895EDDF803219F02E
:107FD00088E0F5DFFFCF84E1DECF1F93182FE3DFCA
:107FE0001150E9F7F2DF1F91089580E0E8DFEE27F6
:047FF000FF270994CA
:027FFE00040479
:00000001FF
