:020000040000FA
:100000000C945B060C948C060C948C060C948C0659
:100010000C948C060C948C060C948C060C948C0618
:100020000C948C060C948C060C948C060C948C0608
:100030000C948C060C948C060C948C060C948C06F8
:100040000C948C060C948C060C948C060C948C06E8
:100050000C948C060C948C060C948C060C940A1C44
:100060000C948C060C947E1C0C94541C0C948C06E2
:100070000C948C060C948C060C948C060C948C06B8
:100080000C948C060C948C060C948C060C948C06A8
:100090000C948C060C948C060C948C060C94B41C5A
:1000A0000C948C060C948C060C948C060C948C0688
:1000B0000C948C060C948C060C948C060C948C0678
:1000C0000C948C060C948C060C948C060C948C0668
:1000D0000C948C060C948C060C948C060C948C0658
:1000E0000C948C060C9435080C94E0210C944C1064
:1000F0000C94F0110C948E060C94B7060C946D0BB6
:100100000C94D1150C94B4100C94D81D0C94BF060B
:100110000C94ED060C94BA080C94D6110C946D0F47
:100120000C9413080C94E9110C94D80E0C94E80666
:100130000C94220A0C94500F0C9427080C94C806B7
:100140000C94D7070C94E0060C94AD060C94D206E0
:100150000C94EE060C946D080C94F2060C9434107A
:100160000C9404080C9424100C94B3060C94CC0644
:100170000C94BB060C94E4060C946B0A0C94D50703
:100180000C94D6070C9440100C94A70D0C94D60632
:100190000C941D120C947B150C94C2060C94DA0678
:1001A0000C94C7110C94790E0C9460110C94B20A43
:1001B00000000000003E5B4F5B3E3E6B4F6B3E1C01
:1001C0003E7C3E1C183C7E3C181C577D571C1C5E18
:1001D0007F5E1C00183C1800FFE7C3E7FF001824EF
:1001E0001800FFE7DBE7FF30483A060E2629792999
:1001F00026407F050507407F05253F5A3CE73C5ACE
:100200007F3E1C1C08081C1C3E7F14227F22145FAA
:100210005F005F5F06097F017F006689956A606005
:1002200060606094A2FFA29408047E040810207EFF
:10023000201008082A1C08081C2A08081E10101084
:10024000100C1E0C1E0C30383E3830060E3E0E06CA
:10025000000000000000005F00000007000700141D
:100260007F147F14242A7F2A1223130864623649DC
:100270005620500008070300001C224100004122C4
:100280001C002A1C7F1C2A08083E080800807030C9
:100290000008080808080000606000201008040238
:1002A0003E5149453E00427F40007249494946213E
:1002B00041494D331814127F1027454545393C4AB2
:1002C00049493141211109073649494936464949C9
:1002D000291E000014000000403400000008142211
:1002E000411414141414004122140802015909067F
:1002F0003E415D594E7C1211127C7F494949363E80
:10030000414141227F4141413E7F494949417F0965
:100310000909013E414151737F0808087F00417F70
:1003200041002040413F017F081422417F4040406E
:10033000407F021C027F7F0408107F3E4141413E06
:100340007F090909063E4151215E7F091929462688
:100350004949493203017F01033F4040403F1F208C
:1003600040201F3F4038403F631408146303047863
:1003700004036159494D43007F4141410204081083
:1003800020004141417F04020102044040404040BE
:10039000000307080020545478407F28444438382C
:1003A00044444428384444287F385454541800089E
:1003B0007E090218A4A49C787F0804047800447D78
:1003C00040002040403D007F1028440000417F4015
:1003D000007C047804787C08040478384444443869
:1003E000FC1824241818242418FC7C080404084849
:1003F0005454542404043F44243C4040207C1C209A
:1004000040201C3C4030403C44281028444C9090F4
:10041000907C4464544C440008364100000077004E
:1004200000004136080002010204023C2623263C5B
:100430001EA1A161123A4040207A385454555921E6
:1004400055557941225454784221555478402054CE
:100450005579400C1E52721239555555593954541C
:10046000545939555454580000457C410002457D8B
:10047000420001457C407D1211127DF0282528F0B4
:100480007C545545002054547C547C0A097F4932E1
:10049000494949323A4444443A324A4848303A4158
:1004A00041217A3A42402078009DA0A07D3D424201
:1004B000423D3D4040403D3C24FF2424487E49438A
:1004C000662B2FFC2F2BFF0929F620C0887E0903FD
:1004D00020545479410000447D413048484A323824
:1004E0004040227A007A0A0A727D0D19317D262950
:1004F000292F28262929292630484D402038080848
:10050000080808080808382F10C8ACBA2F1028347B
:10051000FA00007B000008142A142222142A14086E
:100520005500550055AA55AA55AAFF55FF55FF007D
:100530000000FF00101010FF00141414FF00101032
:10054000FF00FF1010F010F0141414FC001414F746
:1005500000FF0000FF00FF1414F404FC1414171033
:100560001F10101F101F1414141F00101010F00083
:100570000000001F101010101F10101010F01000BD
:100580000000FF101010101010101010FF100000CD
:1005900000FF140000FF00FF00001F10170000FC08
:1005A00004F414141710171414F404F40000FF00DA
:1005B000F714141414141414F700F7141414171463
:1005C00010101F101F141414F4141010F010F00069
:1005D000001F101F0000001F14000000FC1400008A
:1005E000F010F01010FF10FF141414FF141010106E
:1005F0001F00000000F010FFFFFFFFFFF0F0F0F021
:10060000F0FFFFFF0000000000FFFF0F0F0F0F0FB4
:100610003844443844FC4A4A4A347E020206060200
:100620007E027E0263554941633844443C04407E67
:10063000201E2006027E020299A5E7A5991C2A49E0
:100640002A1C4C7201724C304A4D4D30304878486B
:1006500030BC625A463D3E494949007E0101017E57
:100660002A2A2A2A2A44445F444440514A444040AA
:10067000444A51400000FF0103E080FF00000808E9
:100680006B6B083612362436060F090F0600001869
:10069000180000001010003040FF0101001F010190
:1006A0001E00191D1712003C3C3C3C0000000000DD
:1006B000000103070F1F3F7F0080C0E0F0F8FCFE41
:1006C000DB40A4A62EAF2000A1C8D300408DAED53C
:1006D00080A8000060000000000000000000000092
:1006E000000000E00000000000000000000000002A
:1006F0000001E00000000000000000000000000019
:1007000001F00000000000000000000000000003F5
:10071000F00000000000000000000000000007F0F2
:100720000000000000000000000000000007F800CA
:100730000000000000000000000000000FF80000B2
:100740000003C0007E000001E0007F0FF800000001
:1007500003C000FE000001E000FFEFF8000000030E
:10076000C000FE000001E000FFFFF800000003C031
:1007700000F00000000F007FFE7FC0000003C000FB
:10078000F00000000F003FFE7FF83FF1FBCFFCFEC2
:10079000F3BC3DEFE01FFE7FFF7FFBFFDFFEFEFFB0
:1007A000BC3DEFE01FC6FFFF7FFBFFDFFEFEFFBC8F
:1007B0003DEFE00FE3C7FE787BC3DE1EF0FFBC3DDC
:1007C000EF0007FF87FC787BC3DE1EF0F83C3DEFAF
:1007D0000001FFFFF0007BC3C01EF0F03C3DEF00C6
:1007E00001F37FE03FFBC3CFFEF0F03C3DEF0003A1
:1007F000E33F807FFBC3DFFEF0F03C3DEF0007E707
:100800003C00787BC3DE1EF0F03C3DEF0007FFBEEE
:1008100000787BC3DE1EF0F03C3DEF0007FFFE00DA
:10082000787BC3DE1EF0F03C3DEF000FFFFE007F43
:10083000FBFFDFFEF0F03FFDEFE00FFFFF007FFB6F
:10084000FFDFFEF0F03FFDEFE00FF9FF003E79F92A
:10085000CF9EF0F01F3DE7E01FF1FF000000000019
:10086000000000000000001F80FF007FFFFFFFFF6F
:10087000FFFFFFFFFFE01C007F007FFFFFFFFEB4D4
:100880006D888D18E000001F007FFFFFFFFE95AD13
:100890007DB577E000000F007FFFFFFFFEA5AD9D57
:1008A0008D19E0000006007FFFFFFFFEB5ADEDB53E
:1008B0007EE0000000000001800000000000000059
:1008C0000000038000000000000000000007C000DE
:1008D000000000000000000007C000000000000051
:1008E0000000000FC00000000000000000001FE03A
:1008F0000000000000000000001FE00000000000F9
:10090000000000003FE00000000000000000003F89
:10091000F00000000000000000007FF00000000078
:100920000000001FF87FF0000000000000003FFE04
:100930007FF0000000000000003FFF7FF00000009B
:10094000000000001FFFFBE0000000000000000F9F
:10095000FFF9FFC00000000000000FFFF9FFF800E2
:10096000000000000007FFF1FFFF00000000000092
:1009700003FC73FFFF80000000000001FE3FFFFF4B
:1009800080000000000000FF1E0FFF0000000000BC
:1009900000007FFE1FFC000000000000003FFFFF82
:1009A000F8000000000000000FDFFFE00000000082
:1009B0000000001F19FFC0000000000000003F3CC5
:1009C000FF00000000000000007E7CF80000000036
:1009D000000000007FFE7C0000000000000000FF1F
:1009E000FFFC0000000000000000FFFFFE00000010
:1009F0000000000000FFFFFE0000000000000001FA
:100A0000FFEFFE0000000000000001FFCFFE00002D
:100A1000000000000003FF07FE00000000000000CF
:100A200003FC07FE0000000000000003F003FE00CE
:100A3000000000000000018000FE00000000000037
:100A4000000000007E000000000000000000003EEA
:100A5000000000000000000000000C00000000008A
:100A600000078000FC000003C0000000078001FCBC
:100A7000000003C0000000078001FC000003C0006C
:100A80000000078001E00000001E00000007800158
:100A9000E00000001E007FE3F79FF9FDE7787BDFB1
:100AA000C0FFF7FFBFFDFDFF787BDFC0FFF7FFBF93
:100AB000FDFDFF787BDFC0F0F787BC3DE1FF787B71
:100AC000DE00F0F787BC3DE1F0787BDE0000F787C1
:100AD000803DE1E0787BDE007FF7879FFDE1E078F5
:100AE0007BDE00FFF787BFFDE1E0787BDE00F0F7FB
:100AF00087BC3DE1E0787BDE00F0F787BC3DE1E0BC
:100B0000787BDE00F0F787BC3DE1E0787BDE00FF1C
:100B1000F7FFBFFDE1E07FFBDFC0FFF7FFBFFDE1B7
:100B2000E07FFBDFC07CF3F39F3DE1E03E7BCFC085
:100B30000000000000000000000000FFFFFFFFFFBA
:100B4000FFFFFFFFFFC0FFFFFFFFFD68DB111A3152
:100B5000C0FFFFFFFFFD2B5AFB6AEFC0FFFFFFFF47
:100B6000FD4B5B3B1A33C0FFFFFFFFFD6B5BDB6A96
:100B7000FDC053534431333036206261C59F6C61F0
:100B8000746D61206861746173C4B121000000213B
:100B900000240027002A002D00300033000101004E
:100BA00000040107010A0100002200250028002B93
:100BB000002E003100340002010000050108010B85
:100BC00001000020002300260029002C002F003205
:100BD00000000100000301060109010505050507E4
:100BE0000508080808020202020A0A0808040404A8
:100BF00004010101010101010103030303030303D4
:100C000003040707070C0C0C0C0C0C0C0C02020262
:100C10000206060606060606060B0B0B0B0B0B0B55
:100C20000B010210202008081020401020408002F4
:100C30000102010804020101020408102040808022
:100C400040201008040201800402018040201008A6
:100C5000040201080402010102040810204080017E
:100C60000204081020408000000A0B02090C0D0E3F
:100C7000080703040100000000000000000000005D
:100C80000000000000000000000000000000000064
:100C90000000001211100000000000000000000021
:100CA000000000000000000000000000002200FF23
:100CB0002100D81DE02111241FBECFEFD1E2DEBFFD
:100CC000CDBF00E00CBF12E0A0E0B2E0EEEFFCE42C
:100CD00000E00BBF02C007900D92A43AB107D9F70C
:100CE00025E0A4EAB2E001C01D92AB35B207E1F7FE
:100CF00016E0CAE5D6E000E006C021970109802F82
:100D0000FE010E943425C935D10780E00807A9F704
:100D10000E94911E0C946D260C9400000895815041
:100D2000823108F05AC0E82FF0E08827E556F94FE5
:100D30008F4F0C943425BB06BF06AD06B306B7062D
:100D4000ED06C206C806CC06D206D606DA06E006CE
:100D5000E406ED06E806EE06F206809180008F7745
:100D6000809380000895809180008F7DF9CF8091DD
:100D70008000877FF5CF84B58F7784BD089584B5D3
:100D80008F7DFBCF8091B0008F778093B000089566
:100D90008091B0008F7DF9CF809190008F77809304
:100DA00090000895809190008F7DF9CF8091900000
:100DB000877FF5CF8091A0008F778093A000089562
:100DC0008091A0008F7DF9CF8091A000877FF5CF23
:100DD000809120018F7780932001089580912001D8
:100DE0008F7DF9CF80912001877FF5CFCF93DF935F
:100DF000282F30E0F901E959F34F8491F901EF5DB3
:100E0000F34FD491F901E552F44FC491CC23A1F0F2
:100E100081110E948F06EC2FF0E0EE0FFF1FEF53C1
:100E2000F44FA591B491EC91ED2381E090E009F4A9
:100E300080E0DF91CF91089580E090E0FACF1F939A
:100E4000CF93DF93282F30E0F901E959F34F8491D4
:100E5000F901EF5DF34FD491F901E552F44FC491DC
:100E6000CC23A9F0162F81110E948F06EC2FF0E001
:100E7000EE0FFF1FE955F44FA591B4918FB7F89489
:100E8000EC91111108C0D095DE23DC938FBFDF9168
:100E9000CF911F910895DE2BF8CFCF93DF9390E091
:100EA000FC01EF5DF34F24918552944FFC01849136
:100EB0008823D1F090E0880F991FFC01E357F44F8D
:100EC000A591B491FC01E955F44FC591D4916111FC
:100ED0000EC09FB7F8948C91E22FE0958E238C93EF
:100EE0002881E223E8839FBFDF91CF9108958FB7D8
:100EF000F894EC91E22BEC938FBFF6CF3FB7F894C8
:100F000080915E0490915F04A0916004B0916104AF
:100F100026B5A89B05C02F3F19F00196A11DB11D54
:100F20003FBFBA2FA92F982F8827BC01CD01620F90
:100F3000711D811D911D42E0660F771F881F991F4B
:100F40004A95D1F708958F929F92AF92BF92CF9218
:100F5000DF92EF92FF924B015C010E947E076B01D2
:100F60007C010E947E076C197D098E099F09683EED
:100F7000734081059105A8F321E0821A9108A10828
:100F8000B10888EEC80E83E0D81EE11CF11C811464
:100F90009104A104B10429F7FF90EF90DF90CF9066
:100FA000BF90AF909F908F90089508950895AF924D
:100FB000BF92CF92DF92EF92FF920F931F93CF9346
:100FC000DF936C017B018B01040F151FEB015E01A8
:100FD000AE18BF08C017D10759F06991D601ED913D
:100FE000FC910190F081E02DC6011995892B79F7CC
:100FF000C501DF91CF911F910F91FF90EF90DF908E
:10100000CF90BF90AF900895FC01538D448D252F54
:1010100030E0842F90E0821B930B541710F0CF9692
:10102000089501970895FC01918D828D981761F0C4
:10103000A28DAE0FBF2FB11D5D968C91928D9F5FDB
:101040009F73928F90E008958FEF9FEF0895FC01BA
:10105000918D828D981731F0828DE80FF11D858D6D
:1010600090E008958FEF9FEF0895FC01918D228D00
:10107000892F90E0805C9F4F821B91098F73992785
:10108000089586E694E00E94350821E0892B09F452
:1010900020E0822F0895FC01A48DA80FB92FB11D67
:1010A000A35ABF4F2C91848D90E001968F7399279E
:1010B000848FA689B7892C93A089B1898C9183707C
:1010C00080648C93938D848D981306C00288F38975
:1010D000E02D80818F7D80830895EF92FF920F93A2
:1010E0001F93CF93DF93EC0181E0888F9B8D8C8DD4
:1010F00098131AC0E889F989808185FF15C09FB7C8
:10110000F894EE89FF896083E889F989808183708A
:10111000806480839FBF81E090E0DF91CF911F9139
:101120000F91FF90EF900895F62E0B8D10E00F5F5A
:101130001F4F0F731127E02E8C8D8E110CC00FB630
:1011400007FCFACFE889F989808185FFF5CFCE01C8
:101150000E944B08F1CFEB8DEC0FFD2FF11DE35AF0
:10116000FF4FF0829FB7F8940B8FEA89FB8980814B
:101170008062CFCFCF93DF93EC01888D8823B9F0C5
:10118000AA89BB89E889F9898C9185FD03C0808192
:1011900086FD0DC00FB607FCF7CF8C9185FFF2CF0F
:1011A000808185FFEDCFCE010E944B08E9CFDF9112
:1011B000CF91089580E090E0892B29F00E944108AA
:1011C00081110E94000080E090E0892B49F080E0CE
:1011D00090E0892B29F00E94000081110E940000FC
:1011E00080E090E0892B49F080E090E0892B29F0A5
:1011F0000E94000081110E94000080E090E0892B95
:1012000049F080E090E0892B29F00E9400008111D4
:101210000C9400000895EF92FF920F931F93CF93C9
:10122000DF93EC01EC80FD806E157F050CF070C043
:1012300057FF04C0240F351F50E040E08E819F818E
:10124000FA01E20FF31F8E179F071CF49C01241B69
:10125000350B121613060CF05BC0922F842F869567
:10126000869586958E9DD0018F9DB00D11246A0FB5
:101270007B1FAF8DB8A1A60FB71F477049F188E05B
:10128000841B482F682F70E0FB01E854F94FE4916C
:10129000281708F063C0621B71092FEF30E002C00D
:1012A000359527956A95E2F7E2230130110539F06B
:1012B000B0F10230110561F58C91E82702C08C91E4
:1012C000E82BEC93941720F12C813D81A20FB31FE2
:1012D000E92FE41BE83078F00230110521F58E2F5C
:1012E0009C9190959C932C813D81A20FB31F8850B7
:1012F0008830B0F7E770EE2359F0F0E0E055F94F91
:10130000E49101301105F9F010F10230110519F1E5
:10131000DF91CF911F910F91FF90EF900895E0958D
:101320008C91E823CECF81E00115110509F480E00E
:1013300081959E2F8C932C813D81A20FB31F9850D5
:101340009830C0F7D7CF8C91E82BEC93E1CFE095A4
:101350008C91E823FACF8C91E827F7CF0130110563
:1013600009F4ADCFE0F20230110509F4A5CFAE0DBE
:10137000BF1DAECF0F931F93CF93DF9377FF04C0B2
:10138000260F371F70E060E0DC011496CD91DC91F0
:10139000FB01E20FF31FCE17DF071CF49E01261B93
:1013A000370B121613064CF5FA0157FD3796A3E0DA
:1013B000F595E795AA95E1F7EC9FD001ED9FB00D6B
:1013C000FC9FB00D11246A0F7B1FDC015F96ED912D
:1013D000FC91E60FF71F4770552781E090E001C0B0
:1013E000880F4A95EAF7482F0130110559F0A8F007
:1013F0002E0F3F1F02301105E1F0DF91CF911F91B9
:101400000F9108952E0F3F1FE217F307B1F381915B
:10141000DF011197842B8C93F7CF80952E0F3F1F00
:10142000E217F30751F39191DF01119798239C93F1
:10143000F7CFE217F30709F38191DF0111978427B2
:101440008C93F7CF0F931F93FA01DC0156964C91C2
:1014500056974230E9F04330A1F1413061F51496DE
:101460004D915C91DA01AE1BBF0BFD01E21BF30B4A
:1014700077FD0BC0DC0116964D915C9164177507E2
:1014800024F4AB01BF010E94BA091F910F91089586
:1014900014964D915C91DA01A61BB70BBD0161500A
:1014A0007109DC0116964D915C91DA01AE1BBF0B00
:1014B000FD01E21BF30B77FDE8CFAF010E940B09A2
:1014C000E4CF16964D915C91DA01A61BB70BBD01D6
:1014D00061507109CDCF0F931F93FA01DC0156962D
:1014E0004C9156974230A9F0433091F1413019F5B3
:1014F00014964D915C91DA01AE1BBF0BFD01319743
:10150000F7FD04C0AB01BF010E940B091F910F91B1
:10151000089514964D915C91DA01A61BB70BBD019D
:10152000DC0116964D915C91DA01AE1BBF0BFD01FB
:101530003197621B730BF7FDE9CFDC0116964D91D5
:101540005C91E417F50714F7AF010E94BA09DECFEA
:1015500016964D915C91DA01A61BB70BBD01621B7B
:10156000730BCECFFC0177FD64C080859185681731
:1015700079070CF05EC057FD5CC0828593854817E3
:1015800059070CF056C086898230B1F0833029F1BA
:10159000813041F484819581841B950BAB01BC01A2
:1015A000615071092130310509F108F443C022303E
:1015B000310509F463C0089584819581DC01A61B7F
:1015C000B70BBD016150710986819781DC01A41BB5
:1015D000B50BAD0141505109E5CF86819781861B3E
:1015E000970BBA01AC0141505109DCCFCA0157FD3C
:1015F0000796A3E095958795AA95E1F7A481B58113
:101600008A9F90018B9F300D9A9F300D1124620F9D
:10161000731F078CF0A1E02DE60FF71F47705527C9
:1016200021E030E001C0220F4A95EAF78081822B49
:1016300080830895CA0157FD079633E095958795F5
:101640003A95E1F7A481B5818A9F90018B9F300D77
:101650009A9F300D1124620F731F078CF0A1E02DAB
:10166000E60FF71F4770552781E090E001C0880F13
:101670004A95EAF7809590818923DACFCA0157FD10
:10168000079623E0959587952A95E1F7A481B58182
:101690008A9F90018B9F300D9A9F300D1124620F0D
:1016A000731F078CF0A1E02DE60FF71F4770552739
:1016B00021E030E001C0220F4A95EAF780818227BD
:1016C000B7CF08958EBD00000DB407FEFDCF8EB5D7
:1016D00008958CBD9DBD08950895FC016370668BCF
:1016E0008481958126813781613039F0633029F01A
:1016F0009187808733872287089531872087938752
:10170000828708952F923F924F925F926F927F92BD
:101710008F929F92AF92BF92CF92DF92EF92FF9201
:101720000F931F93CF93DF93CDB7DEB76A970FB6B2
:10173000F894DEBF0FBECDBF9A8F898F7A836983FD
:101740004A01D22E18870F833701BC2CDC01599631
:101750002D913C915A972115310509F015C1189624
:101760008D919C911997681779070CF0D7C11A963B
:101770008D919C91481759070CF0D0C14C2C512CDD
:10178000B6E0CB9E600D711D11247C876B87161609
:1017900017060CF0C3C1EA2DF0E0FA87E98793E061
:1017A000EE0FFF1F9A95E1F7F88BEF87CF01840FBB
:1017B000951F181619060CF0B1C1A98DBA8D58964F
:1017C0008C91811104C0BFEABD1508F4D394A98D92
:1017D000BA8DED91FC9111970284F385E02DCD0136
:1017E0001995B5E0DB9EC0011124E981FA81FC83E3
:1017F000EB83312C212C9C0120553E4F388F2F8BB1
:101800004A2D50E05E8B4D8BEF89F88DE20DF31D74
:1018100044919E828D82D12CC12C69817A81620D86
:10182000731D7A8B698B842F90E09C8B8B8BE98D59
:10183000FA8DA081B18140FF82C0F1E0BF126FC07C
:10184000AF126DC01C96ED91FC912F813885A401DB
:101850004C0D5D1D69897A89898D9A8D1995EB8961
:10186000FC89F595E7954E2F5FEFC51AD50A6D8176
:101870007E818D899E89680F791F7E836D8398E0B4
:10188000C916D10481F6AFEF2A1A3A0AEB81FC811E
:10189000E40DF51DFC83EB83F5E02F16310409F010
:1018A000B3CF2F81388526153705B9F0A98DBA8DAC
:1018B000ED91FC91B1E0BB1257C0AB1255C06981EC
:1018C0007A816B5F7F4F0088F189E02D830128E0EA
:1018D00030E0A401898D9A8D1995A98DBA8DED916D
:1018E000FC9111970688F789E02DCD016A960FB615
:1018F000F894DEBF0FBECDBFDF91CF911F910F9146
:10190000FF90EF90DF90CF90BF90AF909F908F901F
:101910007F906F905F904F903F902F9019941E96FC
:10192000ED91FC91EF80F88409851A8592014D8133
:101930005E816B817C81898D9A8D199590CF2F81E5
:1019400038852615370509F48ACF31E0B31207C070
:10195000A31205C01C96ED91FC91930178CF1E96C1
:10196000ED91FC917301E0CF6B857C85641975095D
:101970000684F785E02D73010F8518899201A40173
:10198000898D9A8D1995A9CFF90134969491329742
:1019900045915491D91AB7E0DB9E400D511D112499
:1019A000F901259134913C8B2B8BFA0125903490D1
:1019B000FA013296749031963491398B3296649054
:1019C0003196449041E04C1518F04A1508F07FC05C
:1019D000662D062C000C770B7C836B83842D042CE6
:1019E000000C990B9E838D83A98DBA8DED91FC918E
:1019F00011970284F385E02DCD011995512CD12C3E
:101A0000C12CEA2DF0E0FA87E9872B2D30E03C87E6
:101A10002B87A401440D511D47FC5A95588F4F8BBD
:101A200069817A81660D711D67FC7A957E876D8765
:101A30007989C71608F051CF2C2D30E04D815E8199
:101A4000420F531FA985BA854A9FC0014B9F900D35
:101A50005A9F900D1124FC01E80DF91DF88BEF87BA
:101A6000852D612C4F89588D420F531F5E8B4D8BF6
:101A7000671408F050C044244394480E877041F422
:101A8000C1010196EB89FC89E20DF31DD4901C0184
:101A9000D7FE19C0A98DBA8DED91FC91662D70E02D
:101AA000B1E0BB1219C0AB1217C02D853E85620F85
:101AB000731F0484F585E02D2F8138854D895E895B
:101AC000898D9A8D1995DD0C6394842DD1CF1E825A
:101AD0001D821C821B8288CF4B815C81640F751F25
:101AE000AB85BC856A9FC0016B9F900D7A9F900D5E
:101AF000112469817A81680F791F0684F785E02DAA
:101B0000EF80F88409851A859D014F855889898D54
:101B10009A8D1995D8CF570CC3948ACF6A960FB671
:101B2000F894DEBF0FBECDBFDF91CF911F910F9113
:101B3000FF90EF90DF90CF90BF90AF909F908F90ED
:101B40007F906F905F904F903F902F9008958F926D
:101B50009F92AF92CF92EF92FF920F931F93CF93EA
:101B6000DF93EC01262F898D9A8D009709F051C0E3
:101B70006A30D1F41D861C868D8948E0849F9001CF
:101B800011248E859F85820F931F9F878E8781E00A
:101B900090E0DF91CF911F910F91FF90EF90CF9048
:101BA000AF909F908F9008956D3089F3CC88AD8869
:101BB0008F898823C1F08C859D8536E0C39E800D7A
:101BC000911D1124488559854817590764F44E859D
:101BD0005F851D861C8638E0A39EC0011124840FFA
:101BE000951F9F878E87EA88FB88088919894E850B
:101BF0005F856C857D85CE010E94820B2C898C854A
:101C00009D8546E0249F800D911D11249D878C8722
:101C1000BECF6A3069F41D861C86FC013896E491BB
:101C20002D898E859F85E29F800D911D1124ADCF5A
:101C30006D3009F4ACCFFC0134963491631708F48D
:101C4000A6CF3296E491E61708F4A1CFFC013296B4
:101C500085909490462F431B342F47E0349F800C8F
:101C6000911C1124F401329634913196E49133237E
:101C7000A9F1EE2399F1CC88F4013596E491AD8871
:101C80004F89442301F10E2E000CFF0BE30FF11DD1
:101C9000CE9EA001CF9E500D11246C857D85460FF0
:101CA000571F68857985641775076CF44E855F85C5
:101CB0001D861C86FC013896E491AE9E400D511D98
:101CC00011245F874E87EA88FB88088919894E8529
:101CD0005F856C857D85CE010E94820BF401349670
:101CE000E4912C898C859D85E29F800D911D1124A6
:101CF0008DCF6F927F928F929F92AF92BF92CF9231
:101D0000DF92EF92FF920F931F93CF93DF93EC013B
:101D10006B015A0139014801E881F9810284F38598
:101D2000E02D1995E881F9810288F389E02D87017A
:101D30009301A501B601CE011995A501480D591DC4
:101D400041505109E881F9810288F389E02D93011E
:101D5000B601CE011995E881F9810088F189E02D5D
:101D60009401A501B601CE011995C60CD71CB60188
:101D700061507109E881F9810088F189E02D9401B1
:101D8000A501CE011995E881F9810688F789E02D32
:101D9000CE01DF91CF911F910F91FF90EF90DF90D7
:101DA000CF90BF90AF909F908F907F906F9019943D
:101DB0006F927F928F929F92AF92BF92CF92DF925B
:101DC000EF92FF920F931F93CF93DF935C01EB0190
:101DD0006A01490138018701DC01ED91FC9162172C
:101DE000730719F5641675062CF0962D872D3A01A8
:101DF000C92ED82E9601261937092F5F3F4F048C24
:101E0000F58DE02DA301BE01C5011995DF91CF919C
:101E10001F910F91FF90EF90DF90CF90BF90AF9008
:101E20009F908F907F906F9008954615570591F47D
:101E30002617370724F0892D4B01C22FD82F9E017A
:101E4000281939092F5F3F4F068CF78DE02DA60129
:101E5000B401DACF0284F385E02D1995D501ED9117
:101E6000FC910488F589E02D83019401A601BE014F
:101E7000C5011995D501ED91FC910688F789E02DF2
:101E8000C501DF91CF911F910F91FF90EF90DF90EF
:101E9000CF90BF90AF909F908F907F906F9019944C
:101EA000EF92FF920F931F93DC011A960D911C91F4
:101EB0001B9718962D913C911997ED91FC9100A0DC
:101EC000F1A1E02D7B0150E040E070E060E0199569
:101ED0001F910F91FF90EF9008954F925F926F9234
:101EE0007F928F929F92AF92BF92CF92DF92EF92AA
:101EF000FF920F931F93CF93DF936C012B015A0135
:101F000039014801DC01ED91FC910284F385E02D5B
:101F10001995E201640C751CD601ED91FC91C61572
:101F2000D7055CF40088F189E02D87019401A501B3
:101F3000BE01C60119952196EFCF0688F789E02DDD
:101F4000C601DF91CF911F910F91FF90EF90DF902D
:101F5000CF90BF90AF909F908F907F906F905F9049
:101F60004F9019948F929F92AF92BF92CF92DF922F
:101F7000EF92FF920F931F93CF93DF93EC015B01DE
:101F80004A016901E881F9810284F385E02D199500
:101F900095012C0D3D1D21503109E881F9810488FE
:101FA000F589E02D78018401A401B501CE011995D0
:101FB000E881F9810688F789E02DCE01DF91CF9184
:101FC0001F910F91FF90EF90DF90CF90BF90AF9057
:101FD0009F908F9019948F929F92AF92BF92CF92C1
:101FE000DF92EF92FF920F931F93CF93DF93EC0159
:101FF0005B014A0169017801E881F9810284F38576
:10200000E02D1995C80CD91C860101501109E881F1
:10201000F9810488F589E02D9501A401B501CE016F
:102020001995E881F9810688F789E02DCE01DF91C5
:10203000CF911F910F91FF90EF90DF90CF90BF90C5
:10204000AF909F908F901994EF92FF920F931F93F0
:10205000DC01ED91FC9100A0F1A1E02D19951F91FB
:102060000F91FF90EF9008950F931F93DC01ED9176
:10207000FC91068CF78DE02D19951F910F91089515
:102080000F931F93DC01ED91FC91048CF58DE02DF5
:1020900019951F910F910895DC01ED91FC91008439
:1020A000F185E02D19943F924F925F926F927F924B
:1020B0008F929F92AF92BF92CF92DF92EF92FF9258
:1020C0000F931F93CF93DF935C017B014A0169015A
:1020D000390187E0680E711C93E0759467949A95B6
:1020E000E1F72B01400E511E10E000E0312CD0E052
:1020F000C0E0CE0187709927330C892B59F4FE017B
:1021000083E0F595E7958A95E1F7E00FF11FE80D7B
:10211000F91D349037FE0AC021E030E0A701B50177
:102120006C0F7D1F87E195E00E944C102196CC1624
:10213000DD06F9F68FEFE81AF80A060D171DE4140C
:10214000F504A9F6DF91CF911F910F91FF90EF90C9
:10215000DF90CF90BF90AF909F908F907F906F90C7
:102160005F904F903F9008952F923F924F925F92D1
:102170006F927F928F929F92AF92BF92CF92DF9297
:10218000EF92FF920F931F93CF93DF9300D000D075
:10219000CDB7DEB73C016A013E832D83FC82EB8222
:1021A0005801A41AB50AB7FE03C0B194A194B108AE
:1021B0008D809E80861A970A97FE03C09194819421
:1021C00091088A149B045CF0902F812F0D811E8151
:1021D0009D838E839C2D8D2D6B01692F782F0C157F
:1021E0001D055CF09D818E817E836D83692F782F24
:1021F000902F812F8601C92ED82E1601201A310A60
:102200002B012D813E81421A530A57FE03C051947F
:1022100041945108710137FE03C03FEFE31AF30AFE
:10222000F594E7948D819E81861797075CF5A1E070
:10223000B0E0BA83A983C016D1064CF1D301ED9169
:10224000FC910484F585E02D2B813C81A8016D81F2
:102250007E818A149B041CF04D815E81B801C3010C
:102260001995E418F508F7FE0AC02D813E81898191
:102270009A81280F391F3E832D83E20CF31C0F5FD8
:102280001F4FD9CF2FEF3FEF3A832983D4CF269624
:102290000FB6F894DEBF0FBECDBFDF91CF911F9177
:1022A0000F91FF90EF90DF90CF90BF90AF909F90F5
:1022B0008F907F906F905F904F903F902F900895F8
:1022C000089520911803260F3327331F213231053B
:1022D000ECF420913C03FC0190E080E0243069F0B4
:1022E00082E00895A09118032191AC0148505D4F00
:1022F000A40FB52FB11D2C930196861798F38091EA
:102300001803680F6093180380E0089581E0089532
:1023100010923C0381E080933E0310923D0361E004
:1023200084E10E941F0761E085E10E941F07E9EB3D
:10233000F0E080818E7F808380818D7F808388E440
:102340008093B80085E48093BC000895CF93DF9319
:1023500091E09093F7028823B9F0C091B800D09132
:10236000BA008091BC008A7B8093BC0060E084E16D
:102370000E941F0760E085E10E941F070E948811EC
:10238000D093BA00C093B800DF91CF910895E09147
:10239000680380916703E81730F4F0E0EE52FD4FD8
:1023A000808190E008958FEF9FEF089590916803EA
:1023B000809167032FEF3FEF981748F4E92FF0E083
:1023C000EE52FD4F208130E09F5F90936803C9017A
:1023D00008958091670390916803891B990B089574
:1023E000CF92DF92EF92FF920F931F93CF93DF93E1
:1023F0007C01CB018A0120916504222389F0EB0145
:102400006B01C40ED51ECC15DD0569F06991D701AD
:10241000ED91FC910190F081E02DC7011995F3CF6A
:10242000642F0E946111C801DF91CF911F910F911C
:10243000FF90EF90DF90CF900895CF93DF931F929E
:10244000CDB7DEB76983209165042223F9F020918E
:102450006204203258F021E030E0FC013383228313
:1024600090E080E00F90DF91CF9108958091630418
:10247000E82FF0E0EE54FD4F998190838F5F8093B9
:1024800063048093620481E090E0ECCF61E0CE01D0
:1024900001960E946111F7CFCF92DF92EF92FF92E7
:1024A0000F931F93CF93DF93D091620481E0D132D9
:1024B00008F09CC0C09164040E947E076B017C01FF
:1024C00080913C0381116CC082E080933C0381E0E9
:1024D00080933E038FEF80933B0310926003D09371
:1024E0005F03A2EBB2E0EFE3F3E080E0D8138DC02E
:1024F0001092610380916103CC0FC82BC0936103DC
:1025000080913D03813009F084C010923D030E9408
:102510007E076B017C01809161038093BB008091F9
:10252000F3029091F402A091F502B091F602892B8A
:102530008A2B8B2BA1F00E947E070091F302109151
:10254000F4022091F5023091F6026C197D098E0992
:102550009F09061717072807390708F442C080911A
:10256000BC0083FDD8CF85EC8093BC000E947E0721
:102570006B017C0180913C03823009F44CC0809156
:102580003B038F3F09F469C080913B03803209F41B
:1025900066C080913B03803309F463C084E026C0A9
:1025A0008091F3029091F402A091F502B091F602AD
:1025B000892B8A2B8B2B09F483CF0E947E070091F5
:1025C000F3021091F4022091F5023091F6026C1999
:1025D0007D098E099F09061717072807390708F094
:1025E0006FCF8091F2020E94A61185E010926304E1
:1025F0001092620410926504DF91CF911F910F91A8
:10260000FF90EF90DF90CF9008959D9191938F5F11
:102610006DCF85EEA9CF8091F3029091F402A09145
:10262000F502B091F602892B8A2B8B2B09F4A2CFED
:102630000E947E070091F3021091F4022091F502AE
:102640003091F6026C197D098E099F09061717074C
:102650002807390708F08ECFC4CF80E0C7CF82E0CB
:10266000C5CF83E0C3CFEF92FF920F931F93CF9319
:10267000DF937C01C62F809134059091350500973A
:1026800009F459C02091380531E030936504209356
:1026900064041092630410926204DC01ED91FC91D9
:1026A0000190F081E02D60E019958701EE24E3941C
:1026B000F12CD1E0C1508091340590913505CF3F88
:1026C00091F1B0E2EB16F104D8F00E944C12809127
:1026D00034059091350520913805D09365042093F9
:1026E00064041092630410926204DC01ED91FC9189
:1026F0000190F081E02D60E01995EE24E394F12C37
:102700008091340590913505F8016491DC01ED91DB
:10271000FC910190F081E02D1995BFEFEB1AFB0AB7
:102720000F5F1F4FC7CFDF91CF911F910F91FF9088
:10273000EF900C944C12E0914405F0914505908186
:1027400080914A058095892380838701C15008F4D0
:1027500038C0F80184912091320530913305232B44
:1027600029F00E94620B0F5F1F4FF0CF28E030E08E
:1027700040E8E0914005F091410590914805582FBF
:102780005423D9F05081952B9083E0914205F0912C
:102790004305908150914905952B9083E091420526
:1027A000F091430550819091490590959523908330
:1027B000469521503109E9F6D6CF50819095952361
:1027C000E3CFDF91CF911F910F91FF90EF9008958C
:1027D0001F93CF93DF93EC018D8D9E8D009721F198
:1027E000162F29A131E030936504209364041092E0
:1027F000630410926204DC01ED91FC910190F08180
:10280000E02D60E019958D8D9E8DDC01ED91FC91A0
:102810000190F081E02D612F19958D8D9E8DDF91B6
:10282000CF911F910C944C12ADA5BEA59C918BA984
:10283000809589238C938B8D9C8D892B31F0862FED
:10284000DF91CF911F910C94620B28E030E080E87B
:10285000A9A5BAA599A9462F4823C1F04C91942B5C
:102860009C93ABA5BCA59C914AA9942B9C93ABA52A
:10287000BCA54C919AA9909594239C938695215040
:10288000310931F7DF91CF911F9108954C919095C7
:102890009423E6CFDF92EF92FF920F931F93CF9393
:1028A000DF938091340590913505892B09F498C008
:1028B00020914C0530914D0540914E0550914F05AA
:1028C00060E074E284EF90E00E94C522205131095B
:1028D0004109510956954795379527952093B8009A
:1028E00065E08DEA9CE00E94331360911B05615006
:1028F00087E195E00E94E81320911D0530911E05A7
:10290000C901079697FD079633E0959587953A9507
:10291000E1F720911B0530911C05829F8001839F68
:10292000100D929F100D1124C0913605D0913705DE
:1029300080913405909135050C0F1D1F009709F407
:102940008FC02091380531E03093650420936404F2
:102950001092630410926204DC01ED91FC910190ED
:10296000F081E02D60E41995EE24E394F12CDD2450
:10297000D39480913405909135050C171D0709F407
:1029800046C0B0E2EB16F104D8F00E944C128091E0
:1029900034059091350520913805D0926504209337
:1029A00064041092630410926204DC01ED91FC91C6
:1029B0000190F081E02D60E41995EE24E394F12C70
:1029C00080913405909135056991DC01ED91FC9180
:1029D0000190F081E02D1995BFEFEB1AFB0AC9CFEA
:1029E0008091320590913305892B31F08091550506
:1029F000909156050E94690BE0914605F0914705BC
:102A0000908180914B0580958923808369CF0E94B6
:102A10004C128091340590913505892B09F461C0E1
:102A20002091500530915105409152055091530528
:102A300060E074E284EF90E00E94C52220513109E9
:102A40004109510956954795379527952093B80028
:102A5000DF91CF911F910F91FF90EF90DF9008953C
:102A6000E0914405F0914505808190914A05892BBC
:102A700080830C171D0769F28991209132053091EE
:102A80003305232B19F00E94620BF3CF28E030E0CE
:102A900040E8E0914005F091410590914805582F9C
:102AA0005423D9F05081952B9083E0914205F09109
:102AB0004305908150914905952B9083E091420503
:102AC000F09143055081909149059095952390830D
:102AD000469521503109E9F6CCCF50819095952348
:102AE000E3CFE0914605F0914705808190914B0539
:102AF000892B8083ADCF1F93CF93DF93EC01162FEB
:102B00008D8D9E8D892BB1F12DA93EA94FA958AD70
:102B100060E074E284EF90E00E94C5222051310908
:102B20004109510956954795379527952093B80047
:102B300066EA111167EACE010E94E8138D8D9E8D21
:102B4000892B41F129AD3AAD4BAD5CAD60E074E24B
:102B500084EF90E00E94C5222051310941095109BA
:102B600056954795379527952093B800DF91CF91DB
:102B70001F9108958B8D9C8D892B21F08EAD9FAD7B
:102B80000E94690BEFA5F8A990818CA980958923F3
:102B90008083CECFEFA5F8A980819CA9892B808363
:102BA000E5CF90E080E0089520911D0530911E054D
:102BB000C901079697FD079623E0959587952A9575
:102BC000E1F720911B0530911C05829FA001839F96
:102BD000500D929F500D112470E060E080913605F9
:102BE000909137050C946626FC0101900020E9F7CE
:102BF0003197AF01481B590BBC0187E195E00C945C
:102C0000D7072F923F924F925F926F927F928F924F
:102C10009F92AF92BF92CF92DF92EF92FF920F936B
:102C20001F93CF93DF93CDB7DEB7E3970FB6F8943A
:102C3000DEBF0FBECDBFE090B002F090B102FA82CD
:102C4000E98287010130110509F4D9C0023011056C
:102C500009F47FC3EF2809F08AC50E94D41588E2E1
:102C600090E0909324058093230584E190E0909375
:102C700026058093250581E090E090932A058093B6
:102C80002905909328058093270580932B05809331
:102C90002C0584E692E00E94F41588E00E94F60676
:102CA0008130910541F49093A9028093A80210927B
:102CB000A7021092A6028AE00E94F60681309105D2
:102CC00041F49093A7028093A6021092A902109259
:102CD000A80289E00E94F6068130910509F07DC0C6
:102CE0009093A5028093A4028091A8029091A902DA
:102CF000019779F4EE24E394F12C01E110E02CE348
:102D000030E04FE050E060E270E087E195E00E9443
:102D1000790E88E290E090932405809323059093A8
:102D200026058093250581E090E090932A05809305
:102D30002905909328058093270580932B05809380
:102D40002C058BE692E00E94F4158091A6029091EA
:102D5000A702019779F4EE24E394F12C01E110E04D
:102D60002CE330E043E250E060E270E087E195E080
:102D70000E94790E8091A4029091A502019799F486
:102D80008091A8029091A9028130910559F5909304
:102D9000B1028093B0021092A9021092A802109280
:102DA000A5021092A402E3960FB6F894DEBF0FBE00
:102DB000CDBFDF91CF911F910F91FF90EF90DF90EA
:102DC000CF90BF90AF909F908F907F906F905F90CB
:102DD0004F903F902F900C944A141092A50210929D
:102DE000A40282CF8091A6029091A7020197D9F602
:102DF00082E090E09093B1028093B002D4CF0E9421
:102E0000D41580910802909109028330910509F050
:102E100085C161E08BE10E941F0761E08CE10E94A7
:102E20001F0761E08DE10E941F0729E633E03A8326
:102E3000298349E953E05E874D8769EF73E0788B1A
:102E40006F875B014A013C832B83D12CC12CEB8122
:102E5000FC81EC0DFD1D80818823E1F0C601880F07
:102E6000991FF401E80FF91F408151814F5F5F4FB7
:102E70008A0D9B1DDC016D917C91665F7F4FEE2476
:102E8000E394F12C04E010E028E030E087E195E0E5
:102E90000E946D0FBFEFCB1ADB0AECE0CE16D10417
:102EA000B1F60B811C81045F1F4F1C830B8318E15B
:102EB000810E911C28E1A20EB11C4B815C81495905
:102EC000534019F680917B00877F80937B0081E4DB
:102ED00080937C0080917A00806480937A00809156
:102EE0007A0086FDFCCF6091780070917900072E02
:102EF000000C880B990B0E94122420E030EC4FE765
:102F000054E40E94682320E030E048EC52E40E9440
:102F1000C7246B017C0120E030E0A9010E94C2249B
:102F200020E030E040E05FE387FD58C1C701B60113
:102F30000E94F7220E94DA237093AF026093AE02E0
:102F4000EE24E394F12C02E010E02CE130E04EE3BB
:102F500050E087E195E00E946D0F4090070550908A
:102F600008056090090570900A056091060270914D
:102F70000702072E000C880B990B0E941224A30154
:102F800092010E94F7220E94DA236B0170930702DC
:102F9000609306028090030590900405A0900505BB
:102FA000B09006056091040270910502072E000C96
:102FB000880B990B0E941224A50194010E94F7220C
:102FC0000E94DA2370930502609304029601235055
:102FD00031092B373105F0F077FA709477F8709457
:102FE00040920705509208056092090570920A0503
:102FF000AFE7CA16D1041CF02EE7C22ED12CB2E0E6
:10300000CB16D1041CF492E0C92ED12CD092070229
:10301000C09206029B01235031092B333105D8F0B1
:10302000B7FAB094B7F8B094809203059092040573
:10303000A0920505B0920605AB016F33710514F03F
:103040004EE350E04230510514F442E050E050931A
:103050000502409304022090060230900702B1015D
:103060006E5F7F4FC1010297E0900402F09005026D
:10307000F886EF82A7014E5F5F4F9701225031091A
:10308000E0900305F09004050091050510910605F8
:10309000EB82FC820D831E83E0900705F09008050B
:1030A0000091090510910A05E986FA860B871C87AD
:1030B0007B01770F000B110BEB8EFC8E0D8F1E8F9B
:1030C0007A01550F000B110BEF8EF8A209A31AA37A
:1030D0007901330F000B110BEBA2FCA20DA31EA371
:1030E0007101032C000C000B110BEFA2F8A609A72D
:1030F0001AA7EF80F8840F2C000C000B110BEBA625
:10310000FCA60DA71EA77C01990F000B110BEFA6C3
:10311000F8AA09AB1AAB10E000E068C08230910554
:1031200051F461E08BE10E941F0761E08CE10E9495
:103130001F0760E077CE61E08130910519F00097BC
:1031400031F460E08BE10E941F0760E0EFCF019651
:1031500009F06BCE0E94D415E980FA80F0922A051E
:10316000E0922905F0922805E092270581E08093FE
:103170002B0580932C050AE010E0109324050093A2
:10318000230584E190E0909326058093250582E74E
:1031900092E00E94F41510932405009323058EE11C
:1031A00090E0909326058093250581E892E00E94A7
:1031B000F4150E944A1468E873E180E090E00E94F0
:1031C000A3071092B1021092B00283E090E09093B6
:1031D0000902809308020E94011627CEC701B6019A
:1031E0000E94F622A7CEFBA8F1107BC129813A816B
:1031F000200F311F3A8F298FD901BC91BBABBB2364
:1032000009F44EC17801EE0CFF1CEF85F889EE0D34
:10321000FF1DC080D180B60162507109072E000CDD
:10322000880B990B0E9412244B015C01B601665F6A
:103230007F4F072E000C880B990B0E9412242B0144
:103240003C01ED85FE85EE0DFF1DE080F180B701AC
:1032500062507109072E000C880B990B0E941224F2
:10326000698B7A8B8B8B9C8B6B8D7C8D8D8D9E8DE2
:103270000E9412249B01AC01C501B4010E9463238A
:1032800018167CF06FA578A989A99AA90E94122422
:103290009B01AC01E1E0EBABC301B2010E94C2248F
:1032A00087FD1BAA6F8D78A189A19AA10E94122483
:1032B0009B01AC0169897A898B899C890E9463236F
:1032C0001816ECF0B7016A5F7F4F072E000C880BD1
:1032D000990B0E9412246D8B7E8B8F8B988F6BA124
:1032E0007CA18DA19EA10E9412249B01AC016D893D
:1032F0007E898F89988D0E94C22487FF49C01BAAAE
:10330000CFC04B815C816D817E8170584B835C8323
:103310006D837E83C2C080E090E0A0E0B0E4809343
:10332000070590930805A0930905B0930A052BC1E2
:1033300010920705109208051092090510920A05CF
:1033400010920305109204051092050510920605CF
:10335000AEC10E94D41584E190E09093240580933F
:103360002305909326058093250581E090E09093B6
:103370002A0580932905909328058093270580933B
:103380002B0580932C0582E992E00E94F4150BCD69
:10339000EBA8EE2009F484C06FA178A589A59AA5B1
:1033A0000E9412246B017C01A50194010E94F62267
:1033B0004B015C0120E030E0A9010E94C2241816F4
:1033C00024F0B7FAB094B7F8B094A3019201C70102
:1033D000B6010E94F6226B017C0120E030E0A901D9
:1033E0000E94C224181624F0F7FAF094F7F8F0942B
:1033F000A7019601C501B4010E94632387FF02C0A3
:10340000750164016BA57CA58DA59EA50E94122463
:103410002B013C0129893A894B895C890E94F6225B
:103420004B015C0120E030E0A9010E94C224181683
:1034300024F0B7FAB094B7F8B0942D893E894F893B
:10344000588DC301B2010E94F6222B013C0120E0FD
:1034500030E0A9010E94C224181624F077FA709473
:1034600077F87094A3019201C501B4010E9463230F
:1034700087FF02C024013501A3019201C701B601F3
:103480000E94632387FF3DCF29853A854B855C8564
:10349000505829873A874B875C87A98DBA8D1C9233
:1034A0000F5F1F4F0C30110509F09DCEE981FA81A5
:1034B000ED58F340B1F009811A81045F1F4F1A8360
:1034C00009832F853889285E3F4F388B2F874D859C
:1034D0005E85485E5F4F5E874D87EBA8EE2009F45E
:1034E0001ACEEB80FC800D811E81E0920305F092E4
:1034F00004050093050510930605E984FA840B85FD
:103500001C85E0920705F0920805009309051093C9
:103510000A058091AE029091AF0291012E5F3F4F5C
:10352000281739070CF45CC002E0201A31084C96C9
:10353000821593050CF454C08F819885CC9707971A
:1035400008F04EC00E943B2226E030E040E050E010
:103550000E94932263507109810991090E941224EB
:103560006B017C0120E030E040E85FE30E946323D0
:10357000882309F4D0CEC0920705D0920805E092C6
:103580000905F0920A0520E030E040E85FEB609129
:103590000705709108058091090590910A050E9420
:1035A000632381110CC080E090E0A0E0B0EC809338
:1035B000070590930805A0930905B0930A0580912B
:1035C000030590910405A0910505B0910605B0583A
:1035D0008093030590930405A0930505B093060519
:1035E0008091040290910502CE970CF477C02FB71A
:1035F000F89480915A0490915B04A0915C04B0917E
:103600005D042FBF4091AA025091AB026091AC02C1
:103610007091AD02841B950BA60BB70B4091000275
:103620005091010260910202709103028417950784
:10363000A607B70708F47CCE2FB7F89480915A04F8
:1036400090915B04A0915C04B0915D042FBF8093C6
:10365000AA029093AB02A093AC02B093AD0280E4B7
:1036600090E0909307028093060280E290E09093AE
:10367000050280930402109200021092010210923F
:1036800002021092030280E090E0A0E0B0E4809398
:10369000070590930805A0930905B0930A05809348
:1036A000030590930405A0930505B093060580914A
:1036B00008029091090201979093090280930802F1
:1036C000019631F487E792E00E94F4150E94D41528
:1036D00068EE73E080E090E00E94A307E0900402AF
:1036E000F090050220910602309107023A83298367
:1036F000670132E0C31AD10801E010E025E030E0B4
:10370000A60169817A8187E195E00E944010698174
:103710007A816F5F7F4F25E030E0A60187E195E079
:103720000E94401069817A816150710925E030E082
:10373000A60187E195E00E94401041E0E41AF108FB
:1037400069817A816E5F7F4F23E030E0A70187E1D6
:1037500095E00E94401069817A816250710923E0EE
:1037600030E0A70187E195E00E9440101CCBE39672
:103770000FB6F894DEBF0FBECDBFDF91CF911F9182
:103780000F91FF90EF90DF90CF90BF90AF909F9000
:103790008F907F906F905F904F903F902F90089503
:1037A0000E94612685ED8093BC008091F302909188
:1037B000F402A091F502B091F6020796A11DB11D89
:1037C00023E0B695A795979587952A95D1F72091EF
:1037D000BC0024FD03C010923C0308954091F30205
:1037E0005091F4026091F5027091F602452B462B40
:1037F000472B69F30097A105B10541F02AE22A950C
:10380000F1F700C00197A109B109E1CF8091F2025F
:103810000C94A6111F920F920FB60F9211242F93A2
:103820003F938F939F93AF93BF9380915A0490914E
:103830005B04A0915C04B0915D043091590423E0D5
:10384000230F2D3758F50196A11DB11D2093590462
:1038500080935A0490935B04A0935C04B0935D043E
:1038600080915E0490915F04A0916004B091610426
:103870000196A11DB11D80935E0490935F04A093F7
:103880006004B0936104BF91AF919F918F913F917C
:103890002F910F900FBE0F901F90189526E8230FC1
:1038A0000296A11DB11DD2CF1F920F920FB60F929B
:1038B00011240BB60F922F933F934F935F936F9307
:1038C0007F938F939F93AF93BF93EF93FF9386E67E
:1038D00094E00E944B08FF91EF91BF91AF919F91AF
:1038E0008F917F916F915F914F913F912F910F90A9
:1038F0000BBE0F900FBE0F901F9018951F920F9246
:103900000FB60F9211240BB60F922F938F939F93A4
:10391000EF93FF93E0917604F09177048081E0913A
:103920007C04F0917D0482FD1DC0908180917F0414
:103930008F5F8F7320918004821741F0E0917F04A4
:10394000F0E0EA59FB4F958F80937F04FF91EF9150
:103950009F918F912F910F900BBE0F900FBE0F90E4
:103960001F9018958081F2CF1F920F920FB60F9281
:1039700011240BB60F922F933F934F935F936F9346
:103980007F938F939F93AF93BF93EF93FF93809118
:10399000B900887F803609F44DC008F040C08832F5
:1039A00009F4A9C028F5803109F49DC0C8F4882322
:1039B00009F4FBC0883009F496C0FF91EF91BF91E4
:1039C000AF919F918F917F916F915F914F913F91B7
:1039D0002F910F900BBE0F900FBE0F901F90189558
:1039E000883109F488C0803241F780933B0314C0CA
:1039F000803409F49DC040F48033B9F38833E9F68C
:103A000080933B0385ECB0C0803509F485C08835D0
:103A100009F496C0883489F60E94D21BCECF88392B
:103A200009F48CC038F5883729F050F4883611F045
:103A3000803719F683E080933C0310923A0357C015
:103A4000883809F47BC0803919F0803809F0B5CF87
:103A500080913A03803208F071C0E0913A0381E02E
:103A60008E0F80933A038091BB00F0E0E65EFC4F3E
:103A700080833DC0803B39F0E0F4803A09F479C09E
:103A8000883A09F09ACF84E080933C03109219039E
:103A900010921803E0916503F091660319958091E7
:103AA000180381110FC081E0809318031092F8026F
:103AB00009C0803C09F4A6CF883C09F4A3CF883B19
:103AC00009F07BCFE091190381E08E0F80931903F9
:103AD000F0E0E850FD4F80818093BB009091190386
:103AE0008091180329C0809161038093BB0085EC0D
:103AF0008093BC0062CF9091600380915F03981720
:103B000058F5E091600381E08E0F80936003F0E050
:103B1000E15CFC4F8081E9CFE091600381E08E0F92
:103B2000809360038091BB00F0E0E15CFC4F8083F8
:103B30009091600380915F039817C8F285E8D8CF11
:103B4000E091600381E08E0F809360038091BB0061
:103B5000F0E0E15CFC4F808380913E0381115CCFFB
:103B600081E080933D0384EA8093BC0010923C0383
:103B700024CF85EC8093BC0010923C0380913A03E3
:103B8000803230F4E0913A03F0E0E65EFC4F1082C0
:103B900060913A0370E0E0916303F09164038AE17D
:103BA00093E0199510923A0308CF10923B0334CF5B
:103BB000CF92DF92EF92FF92E6E6F4E01382128258
:103BC00048EE53E060E070E044835583668377837A
:103BD00088E192E09183808385EC90E095878487EB
:103BE00084EC90E09787868780EC90E0918B808BC7
:103BF00081EC90E0938B828B82EC90E0958B848BB0
:103C000086EC90E0978B868B118E128E138E148E1D
:103C1000ABE0B5E013961C921E92129714964D934A
:103C20005D936D937C9317978AE292E011969C9333
:103C30008E93E7E1F5E01382128220E830E03583CD
:103C4000248380E490E0978386833187208793875D
:103C50008287168A158614861786168681E0858BDC
:103C6000848B2FEF3FEF338B228B318B208B878B15
:103C7000108E128E118E8CE392E091838083148ECD
:103C8000138EB68FA58F10A2178E8FEF84A385A3F6
:103C900086A387A38CE380A780E89AE1A6E0B0E042
:103CA00085AB96ABA7ABB0AF80EA96E8A1E0B0E0F9
:103CB00081AF92AFA3AFB4AF80E586AF17AE0E94DD
:103CC0003B2226E0C22ED12CE12CF12CA70196013B
:103CD0000E94932263507109810991090E94122464
:103CE00060930705709308058093090590930A0572
:103CF0000E943B22A70196010E9493226350710902
:103D0000810991090E9412246093030570930405B0
:103D10008093050590930605FF90EF90DF90CF907C
:103D20000895789484B5826084BD84B5816084BD33
:103D300085B5826085BD85B5816085BD80916E0049
:103D4000816080936E00109281008091810082607A
:103D500080938100809181008160809381008091B7
:103D600080008160809380008091B10084608093A6
:103D7000B1008091B00081608093B000809191008B
:103D80008260809391008091910081608093910086
:103D9000809190008160809390008091A10082606A
:103DA0008093A1008091A10081608093A100809107
:103DB000A00081608093A0008091210182608093A7
:103DC0002101809121018160809321018091200156
:103DD00081608093200180917A00846080937A00D2
:103DE00080917A00826080937A0080917A0081606D
:103DF00080937A0080917A00806880937A00109294
:103E0000C10060E087E30E944D0760E088E00E9407
:103E10004D0760E08AE00E944D0760E089E00E9463
:103E20004D0761E08BE10E944D0761E08CE10E944B
:103E30004D0761E08DE10E944D07E0917604F0911D
:103E4000770482E08083E0917204F0917304108221
:103E5000E0917404F09175048FEC808310927E04DD
:103E6000E0917A04F0917B0486E08083E09178040D
:103E7000F0917904808180618083E0917804F091F1
:103E80007904808188608083E0917804F0917904DE
:103E9000808180688083E0917804F091790480814A
:103EA0008F7D80838091360590913705892B11F1A4
:103EB0000E94D41520911D0530911E0580911B058F
:103EC00090911C05213231050CF04CC0B9016052B3
:103ED000710977FF02C06F5F7F4F759567958357B4
:103EE000910997FD019600E210E023E730E042EDF2
:103EF00056E04BC020911D0530911E05C901079663
:103F000097FD0796B3E095958795BA95E1F72091CF
:103F10001B0530911C05AC01429FC001439F900DD1
:103F2000529F900D11240E943C2590933705809359
:103F30003605892B09F0BCCFC2E7DBE0FE016491B6
:103F4000662339F086E694E00E946D082196892B5D
:103F5000A9F742E050E060EA72E086E694E00E9451
:103F6000D707FFCFB9016054710977FF02C06F5FB7
:103F70007F4F759567958255910997FD019600E4ED
:103F800010E022E530E042EB58E0959587950E94DD
:103F9000531082E080933905809134059091350566
:103FA000892B09F417C18CE38093380510926803BC
:103FB0001092670310926304109262040E948811A9
:103FC00085ED97E0909366038093650386ED97E017
:103FD000909364038093630380913F0587FD1EC027
:103FE00061E00E944D0761E080913F050E941F073C
:103FF00061E070E080E090E00E94A30760E08091C3
:104000003F050E941F076AE070E080E090E00E9498
:10401000A30761E080913F050E941F07809134054E
:1040200090913505892B09F494C120914C0530916C
:104030004D0540914E0550914F0560E074E284EFCC
:1040400090E00E94C522205131094109510956953D
:104050004795379527952093B80064E08EEC96E05D
:104060000E94331360911D05615087E195E00E9425
:10407000E81364E08AEC96E00E94331380913905DE
:1040800064E1813009F460E187E195E00E94E81382
:1040900064E086EC96E00E9433138FE88093540529
:1040A00080911B0590911C058038910509F06AC12B
:1040B00080911D0590911E058034910509F072C113
:1040C00080913905813009F45BC18FEC80935405F0
:1040D000C2E16AED87E195E00E94E8136C2F87E169
:1040E00095E00E94E81361E887E195E00E94E813FB
:1040F0006091540587E195E00E94E81369ED87E13E
:1041000095E00E94E8138091390561EF813009F450
:1041100062E287E195E00E94E81366E080EC96E0B9
:104120000E9433138091340590913505892B09F451
:104130003DC120915005309151054091520550915B
:10414000530560E074E284EF90E00E94C5222051A4
:10415000310941095109569547953795279520937F
:10416000B800A9EFB3E089E9C82E83E0D82E69E64C
:1041700073E090E080E011E050E040E0D0E0C0E08B
:1041800030E020E07D01E40EF51EF701D183C0830D
:104190007601E40EF51EF701918380837B01E20E28
:1041A000F31EF70110832F5F3F4F29964E5F5F4F3D
:1041B0002C30310539F75896F8E1CF0ED11C059611
:1041C000645F7F4F84319105B9F60E9401160E9409
:1041D000DA08FBCF61E080913D050E944D0761E068
:1041E00080913E050E944D0780913D05082E000CF0
:1041F000990BFC01E552F44FE491F0E0EE0FFF1F44
:10420000E955F44F259134913093450520934405A9
:10421000FC01EF5DF34FE491E0934A0580913E0588
:10422000082E000C990BFC01E552F44FE491F0E0EC
:10423000EE0FFF1FE955F44FA591B491B0934705D8
:10424000A0934605FC01EF5DF34FE491E0934B052D
:104250008C91E82BEC938091320590913305892B5A
:1042600009F434C0CFB7F89480916203811127C05C
:10427000E0E1FCE08491E6E5FCE09491E82FF0E0D9
:10428000EE0FFF1FE357F44FA591B491EC91E92392
:1042900021F461E085E30E941F0761E085E30E944D
:1042A0004D078CB580618CBD8CB580648CBD61E0A0
:1042B00084E30E944D0761E083E30E944D078091F3
:1042C00062038F5F80936203CFBF86CE61E08091EF
:1042D0003B050E944D0761E080913C050E944D071F
:1042E00080913B05082E000C990BFC01E552F44F20
:1042F000E491F0E0EE0FFF1FE955F44F2591349162
:104300003093410520934005FC01EF5DF34FE491AC
:10431000E093480580913C05082E000C990BFC01A8
:10432000E552F44FE491F0E0EE0FFF1FE955F44F32
:10433000A591B491B0934305A0934205FC01EF5DB4
:10434000F34FE491E09349058C91E095E823EC93D9
:1043500043CE8091320590913305892B31F08091C5
:104360005505909156050E94690BE0914605F09124
:104370004705908180914B058095892380836DCE80
:104380008FE9A4CE8036910569F480911D05909146
:104390001E05409739F480913905813029F08FEA64
:1043A00080935405C2E095CE80E1FACFE0914605B6
:1043B000F0914705808190914B05892B8083D1CE68
:1043C0008CE392E090931805809317058091360551
:1043D00090913705009711F00C94D82508958F928D
:1043E0009F92AF92BF92CF92DF92EF92FF92CF93C4
:1043F000DF93EC01688179818A819B816115710568
:104400008105910521F464E279ED8BE597E02DE1DA
:1044100033EF41E050E00E94932249015A019B0191
:10442000AC01A7EAB1E40E94B2226B017C01ACEEC0
:10443000B4EFA50194010E94C022C60ED71EE81E4B
:10444000F91EF7FE06C081E0C81AD108E10880E82D
:10445000F80AC882D982EA82FB82C701B6019F7737
:10446000DF91CF91FF90EF90DF90CF90BF90AF9012
:104470009F908F9008958F929F92AF92BF92CF920C
:10448000DF92EF92FF9260910A0270910B0280918D
:104490000C0290910D02611571058105910521F4C1
:1044A00064E279ED8BE597E02DE133EF41E050E0F8
:1044B0000E94932249015A019B01AC01A7EAB1E491
:1044C0000E94B2226B017C01ACEEB4EFA501940115
:1044D0000E94C022C60ED71EE81EF91EF7FE06C0B7
:1044E00081E0C81AD108E10880E8F80AC0920A02FF
:1044F000D0920B02E0920C02F0920D02C701B601BD
:104500009F77FF90EF90DF90CF90BF90AF909F90FC
:104510008F90089560930A0270930B0280930C02AF
:1045200090930D020895052E97FB1EF400940E94AF
:10453000AA2257FD07D00E94C52207FC03D04EF4E3
:104540000C94AA2250954095309521953F4F4F4F9E
:104550005F4F089590958095709561957F4F8F4F2F
:104560009F4F08950E94E722A59F900DB49F900D44
:10457000A49F800D911D11240895B7FF0C94B222C1
:104580000E94B222821B930B0895A1E21A2EAA1B4D
:10459000BB1BFD010DC0AA1FBB1FEE1FFF1FA217F3
:1045A000B307E407F50720F0A21BB30BE40BF50BF0
:1045B000661F771F881F991F1A9469F76095709579
:1045C000809590959B01AC01BD01CF010895A29FFC
:1045D000B001B39FC001A39F700D811D1124911DD7
:1045E000B29F700D811D1124911D08955058BB2755
:1045F000AA270E940E230C9488240E947A2438F063
:104600000E94812420F039F49F3F19F426F40C9481
:1046100077240EF4E095E7FB0C947124E92F0E94B7
:10462000992458F3BA17620773078407950720F097
:1046300079F4A6F50C94BB240EF4E0950B2EBA2F5A
:10464000A02D0B01B90190010C01CA01A001112498
:10465000FF27591B99F0593F50F4503E68F11A1644
:10466000F040A22F232F342F4427585FF3CF4695D5
:1046700037952795A795F0405395C9F77EF41F16F7
:10468000BA0B620B730B840BBAF09150A1F0FF0FC1
:10469000BB1F661F771F881FC2F70EC0BA0F621FAD
:1046A000731F841F48F4879577956795B795F7959D
:1046B0009E3F08F0B0CF9395880F08F09927EE0F32
:1046C0009795879508950E944D2408F481E00895F8
:1046D0000E947C230C9488240E94812458F00E941C
:1046E0007A2440F029F45F3F29F00C947124511191
:1046F0000C94BC240C9477240E94992468F3992389
:10470000B1F3552391F3951B550BBB27AA276217CD
:104710007307840738F09F5F5F4F220F331F441FDA
:10472000AA1FA9F335D00E2E3AF0E0E832D091500E
:104730005040E695001CCAF72BD0FE2F29D0660FFB
:10474000771F881FBB1F261737074807AB07B0E83E
:1047500009F0BB0B802DBF01FF2793585F4F3AF044
:104760009E3F510578F00C9471240C94BC245F3F5B
:10477000E4F3983ED4F3869577956795B795F795CA
:104780009F5FC9F7880F911D9695879597F90895B2
:10479000E1E0660F771F881FBB1F6217730784074E
:1047A000BA0720F0621B730B840BBA0BEE1F88F75D
:1047B000E09508950E94E1236894B1110C94BC2403
:1047C00008950E94A12488F09F5798F0B92F992747
:1047D000B751B0F0E1F0660F771F881F991F1AF0EC
:1047E000BA95C9F714C0B13091F00E94BB24B1E072
:1047F00008950C94BB24672F782F8827B85F39F071
:10480000B93FCCF3869577956795B395D9F73EF484
:1048100090958095709561957F4F8F4F9F4F08952C
:10482000E89409C097FB3EF490958095709561954A
:104830007F4F8F4F9F4F9923A9F0F92F96E9BB2700
:104840009395F695879577956795B795F111F8CF7C
:10485000FAF4BB0F11F460FF1BC06F5F7F4F8F4FE7
:104860009F4F16C0882311F096E911C0772321F0DD
:104870009EE8872F762F05C0662371F096E8862F75
:1048800070E060E02AF09A95660F771F881FDAF7CC
:10489000880F9695879597F90895990F0008550FF9
:1048A000AA0BE0E8FEEF16161706E807F907C0F0B6
:1048B00012161306E407F50798F0621B730B840BBE
:1048C000950B39F40A2661F0232B242B252B21F498
:1048D00008950A2609F4A140A6958FEF811D811D38
:1048E000089597F99F6780E870E060E008959FEF72
:1048F00080EC089500240A94161617061806090677
:10490000089500240A941216130614060506089545
:10491000092E0394000C11F4882352F0BB0F40F4CD
:10492000BF2B11F460FF04C06F5F7F4F8F4F9F4F0D
:10493000089557FD9058440F551F59F05F3F71F08F
:104940004795880F97FB991F61F09F3F79F08795F6
:104950000895121613061406551FF2CF4695F1DF7F
:1049600008C0161617061806991FF1CF869571050F
:10497000610508940895E894BB2766277727CB0143
:1049800097F908950E944D2408F48FEF08950E942E
:10499000DA240C9488240E947A2438F00E9481241E
:1049A00020F0952311F00C9471240C947724112499
:1049B0000C94BC240E94992470F3959FC1F3950F29
:1049C00050E0551F629FF001729FBB27F00DB11D93
:1049D000639FAA27F00DB11DAA1F649F6627B00D23
:1049E000A11D661F829F2227B00DA11D621F739F0C
:1049F000B00DA11D621F839FA00D611D221F749F1A
:104A00003327A00D611D231F849F600D211D822F60
:104A1000762F6A2F11249F5750409AF0F1F0882387
:104A20004AF0EE0FFF1FBB1F661F771F881F9150B4
:104A30005040A9F79E3F510580F00C9471240C94CE
:104A4000BC245F3FE4F3983ED4F386957795679551
:104A5000B795F795E7959F5FC1F7FE2B880F911DDE
:104A60009695879597F90895EE0FFF1F881F8BBFC6
:104A70000790F691E02D19940F931F93CF93DF9336
:104A80008230910510F482E090E0E0915905F091B8
:104A90005A0530E020E0B0E0A0E0309799F421150D
:104AA000310509F44AC0281B390B24303105D8F5EB
:104AB0008A819B816115710589F1FB019383828352
:104AC000FE0111C0408151810281138148175907AD
:104AD000E0F04817590799F4109761F012960C937B
:104AE000129713961C933296CF01DF91CF911F91AD
:104AF0000F9108950093590510935A05F4CF21158D
:104B0000310551F04217530738F0A901DB019A0132
:104B1000BD01DF01F801C1CFEF01F9CF90935A0534
:104B200080935905CDCFFE01E20FF31F819391933E
:104B30002250310939832883D7CF209157053091EE
:104B40005805232B41F4209110023091110230932B
:104B500058052093570520910E0230910F02211520
:104B6000310541F42DB73EB7409112025091130226
:104B7000241B350BE0915705F0915805E217F30718
:104B8000A0F42E1B3F0B2817390778F0AC014E5FBD
:104B90005F4F2417350748F04E0F5F1F509358059D
:104BA00040935705819391939FCFF0E0E0E09CCF35
:104BB000CF93DF930097E9F0FC01329713821282C2
:104BC000A0915905B0915A05ED0130E020E0109711
:104BD000A1F420813181820F931F209157053091DC
:104BE00058052817390709F061C0F0935805E0937C
:104BF0005705DF91CF910895EA01CE17DF07E8F559
:104C00004A815B819E0141155105B1F7E901FB83A2
:104C1000EA8349915991C40FD51FEC17FD0761F440
:104C2000808191810296840F951FE9019983888381
:104C3000828193819B838A83F0E0E0E012968D91DC
:104C40009C9113970097B9F52D913C911197CD0147
:104C50000296820F931F209157053091580528170F
:104C6000390739F6309751F510925A0510925905C7
:104C7000B0935805A0935705BCCFD383C28340811E
:104C80005181840F951FC817D90761F44E5F5F4F9C
:104C900088819981480F591F518340838A819B8164
:104CA000938382832115310509F0B0CFF0935A0523
:104CB000E09359059ECFFD01DC01C0CF1382128223
:104CC000D7CF81E090E0F8940C946D26DC0101C010
:104CD0006D9341505040E0F7089516E0CAE5D6E0E4
:104CE00000E006C0802FFE010E9434252196011DA0
:104CF000CB35D10780E00807A9F7F894FFCFE80388
:104D000000002000400003000100000000005B05DF
:104D10008000000000006D08D7070408BA083508B5
:104D200013082708000000001D12F011D1158E068F
:104D3000E911D611C71100000000A70DD707D11542
:104D40006011B20A8E064C10241040103410B410BA
:104D50008E066D0B7B15220A6B0A6D0F500FD80E55
:104D6000790E2053746172740020204578697400B4
:104D7000202020202047616D65204F76657200203D
:104D80002020596F75722053636F72653A2030008E
:104D90002020546573656B6B75726C6572000D0A2B
:024DA000000011
:020000040003F7
:10E000000D9489F10D94B2F10D94B2F10D94B2F129
:10E010000D94B2F10D94B2F10D94B2F10D94B2F1F0
:10E020000D94B2F10D94B2F10D94B2F10D94B2F1E0
:10E030000D94B2F10D94B2F10D94B2F10D94B2F1D0
:10E040000D94B2F10D94B2F10D94B2F10D94B2F1C0
:10E050000D94B2F10D94B2F10D94B2F10D94B2F1B0
:10E060000D94B2F10D94B2F10D94B2F10D94B2F1A0
:10E070000D94B2F10D94B2F10D94B2F10D94B2F190
:10E080000D94B2F10D94B2F10D94B2F10D94B2F180
:10E090000D94B2F10D94B2F10D94B2F10D94B2F170
:10E0A0000D94B2F10D94B2F10D94B2F10D94B2F160
:10E0B0000D94B2F10D94B2F10D94B2F10D94B2F150
:10E0C0000D94B2F10D94B2F10D94B2F10D94B2F140
:10E0D0000D94B2F10D94B2F10D94B2F10D94B2F130
:10E0E0000D94B2F141546D656761323536300041AF
:10E0F000726475696E6F206578706C6F72657220DE
:10E1000073746B3530305632206279204D4C530099
:10E11000426F6F746C6F616465723E004875683F52
:10E1200000436F6D70696C6564206F6E203D200048
:10E130004350552054797065202020203D20005FF9
:10E140005F4156525F415243485F5F3D2000415658
:10E1500052204C696243205665723D20004743437C
:10E160002056657273696F6E203D20004350552024
:10E1700049442020202020203D20004C6F7720663D
:10E18000757365202020203D20004869676820665F
:10E190007573652020203D200045787420667573D6
:10E1A00065202020203D20004C6F636B2066757336
:10E1B000652020203D20004D617220203720323024
:10E1C000313300312E362E3800342E332E350056A2
:10E1D00023202020414444522020206F7020636F70
:10E1E00064652020202020696E73747275637469E1
:10E1F0006F6E2061646472202020496E74657272B3
:10E20000757074006E6F20766563746F7200726A49
:10E210006D702020006A6D70200057686174207056
:10E220006F72743A00506F7274206E6F7420737541
:10E2300070706F72746564004D7573742062652030
:10E2400061206C6574746572002000577269747483
:10E25000696E672045450052656164696E672045B7
:10E26000450045452065727220636E743D00504F35
:10E27000525400303D5A65726F2061646472003FF1
:10E280003D43505520737461747300403D454550C3
:10E29000524F4D207465737400423D426C696E6B41
:10E2A000204C454400453D44756D70204545505215
:10E2B0004F4D00463D44756D7020464C415348001B
:10E2C000483D48656C70004C3D4C69737420492F83
:10E2D0004F20506F72747300513D51756974005234
:10E2E0003D44756D702052414D00563D73686F7707
:10E2F00020696E7465727275707420566563746FF0
:10E30000727300593D506F727420626C696E6B00BD
:10E310002A0011241FBECFEFD1E2DEBFCDBF01E046
:10E320000CBF12E0A0E0B2E0EEE1FDEF03E00BBFB6
:10E3300002C007900D92A030B107D9F712E0A0E01B
:10E34000B2E001C01D92AE30B107E1F70F9460F367
:10E350000D948DFE01E20EBF0FEF0DBF11241FBE05
:10E360000D9460F30D9400F020E030E040ED57E0B4
:10E3700005C0FA013197F1F72F5F3F4F2817390792
:10E38000C0F308959C01260F311DC901A0E0B0E043
:10E390002F5F3F4FABBFFC018791882361F08093D3
:10E3A000C6008091C00086FFFCCF8091C0008064D1
:10E3B0008093C000EACF08958DE08093C6008091DD
:10E3C000C00086FFFCCF8091C00080648093C000B5
:10E3D0008AE08093C6008091C00086FFFCCF8091C8
:10E3E000C00080648093C00008950F94C2F10F9420
:10E3F000DCF10895FC019081992359F09093C600B7
:10E400008091C00086FFFCCF8091C0008064809323
:10E41000C0003196992379F70895282F982F929567
:10E420009F70892F805D8A3308F0895F8093C600D2
:10E430008091C00086FFFCCF8091C00080648093F3
:10E44000C000822F8F70982F905D9A3308F0995FEB
:10E450009093C6008091C00086FFFCCF8091C000E1
:10E4600080648093C00008959C01FB01853691056E
:10E470001CF46330710594F0C90164E670E00F94F8
:10E480002EFE605D7F4F6093C6008091C00086FFC6
:10E49000FCCF8091C00080648093C0002B30310598
:10E4A00014F43297B4F0C90164E670E00F942EFEC4
:10E4B0006AE070E00F942EFE605D7F4F6093C600AF
:10E4C0008091C00086FFFCCF8091C0008064809363
:10E4D000C000C9016AE070E00F942EFEC0968093E0
:10E4E000C6008091C00086FFFCCF8091C000806490
:10E4F0008093C00008951F93182F8EE692EE60E07F
:10E500000F94C2F11093C6008091C00086FFFCCF2B
:10E510008091C00080648093C0000F94DCF11F9153
:10E5200008952F923F924F925F926F927F928F92B7
:10E530009F92AF92BF92CF92DF92EF92FF920F9392
:10E540001F93DF93CF93CDB7DEB762970FB6F894E2
:10E55000DEBF0FBECDBF382E622ECA01DB015C01CB
:10E560006D01772420E2222E2E010894411C511CBB
:10E570008BC081E0A81680E0B80681E0C80680E084
:10E58000D80628F0C601AA27BB270F940DF2BB2797
:10E59000AD2D9C2D8B2D0F940DF28A2D0F940DF225
:10E5A0002092C6008091C00086FFFCCF8091C00001
:10E5B00080648093C0009DE29093C6008091C0006B
:10E5C00086FFFCCF8091C00080648093C0002092C1
:10E5D000C6008091C00086FFFCCF8091C00080649F
:10E5E0008093C00019828601750188249924A1E0D6
:10E5F0003A1651F03A1620F0B2E03B1661F409C029
:10E600000BBFF701779007C0C7010F9477FE782EF4
:10E6100002C0F7017080872D0F940DF22092C60082
:10E620008091C00086FFFCCF8091C0008064809301
:10E63000C000872D8052F401EF70F0708F3520F408
:10E64000E40DF51D708204C0E40DF51D8EE280839B
:10E650000894E11CF11C011D111D0894811C911CE2
:10E6600090E18916910409F0C2CF80E190E0A0E02A
:10E67000B0E0A80EB91ECA1EDB1E198AC2010F9493
:10E68000FAF10F94DCF16A94662009F072CF629679
:10E690000FB6F894DEBF0FBECDBFCF91DF911F91B3
:10E6A0000F91FF90EF90DF90CF90BF90AF909F9031
:10E6B0008F907F906F905F904F903F902F90089534
:10E6C0002F923F924F925F926F927F928F929F9282
:10E6D000AF92BF92CF92DF92EF92FF920F931F9370
:10E6E000DF93CF93CDB7DEB7CD53D1400FB6F894BB
:10E6F000DEBF0FBECDBF01E20EBF0FEF0DBF94B75F
:10E70000F894A89514BE80916000886180936000A1
:10E7100010926000789493FF05C0E0910002F091A0
:10E7200001021995279A2F9A8091C00082608093E8
:10E73000C00080E18093C40088E18093C1000000A4
:10E74000EE24FF24870144E0A42EB12CCC24DD2448
:10E7500024C0C5010197F1F70894E11CF11C011DCB
:10E76000111D21E2E2162EE4F20620E0020720E06D
:10E77000120718F031E0C32ED12CC801B70127ECE5
:10E780003BE140E050E00F9441FE611571058105C9
:10E79000910519F485B1805885B98091C00087FD35
:10E7A00003C0C114D104A9F2A6014F5F5F4FC25E3E
:10E7B000DE4F59834883CE51D140C25EDE4F8881FF
:10E7C0009981CE51D140019711F00D9410FEC05D9A
:10E7D000DE4F19821882C053D14060E0C15DDE4F28
:10E7E0001882CF52D14088249924C35DDE4F19820C
:10E7F0001882CD52D140C05EDE4F188219821A8233
:10E800001B82C052D140CE5CDE4F188219821A8220
:10E810001B82C253D140EE24FF2487010BBFF701B6
:10E8200007911691C45CDE4F19830883CC53D14005
:10E830000D940BFEC25EDE4F28813981CE51D1404E
:10E840002130310509F52091C600C25EDE4F1982E4
:10E850001882CE51D14022C02F5F3F4F4F4F5F4FA4
:10E86000213082E138078AE7480780E0580780F0C6
:10E87000C45CDE4FE881F981CC53D140EF5FFF4F9C
:10E8800019F0EE27FF27099420E030E040E050E047
:10E890008091C00087FFE0CF2091C600C35DDE4FAE
:10E8A00048815981CD52D1404F5F5F4FC35DDE4FEC
:10E8B00059834883CD52D140213209F063C64A3092
:10E8C000510508F05FC60894811C911C53E0851621
:10E8D000910409F059C600E010E018C081E280936D
:10E8E000C6008091C00086FFFCCF8091C00080648C
:10E8F0008093C0002F5F3F4F2931310579F70F9486
:10E90000DCF10F5F1F4F0530110519F020E030E0FA
:10E91000E5CF10920A0210920B0210920C02109294
:10E920000D02109206021092070210920802109235
:10E930000902109202021092030210920402109235
:10E9400005028FEE90EE60E00F94F5F180E191EE1C
:10E9500060E00F94C2F18091C00087FFFCCF9091DE
:10E96000C600903608F09F759032B8F09093C600BC
:10E970008091C00086FFFCCF8091C00080648093AE
:10E98000C000A0E2A093C6008091C00086FFFCCF2B
:10E990008091C00080648093C000983409F4D7C18E
:10E9A0009934B8F4923409F459C1933458F490333B
:10E9B00019F1903308F4E3C59F33A1F1903409F0C5
:10E9C000DEC5BDC0953409F470C1963409F0D7C5D1
:10E9D00098C1923509F42BC2933538F49C3409F46C
:10E9E000F5C1913509F0CBC518C2963509F445C279
:10E9F000993509F0C4C567C483E792EE62E00F94CD
:10EA0000F5F110920602109207021092080210927D
:10EA1000090210920A0210920B0210920C0210923C
:10EA20000D0213C18FE792EE62E00F94F5F18FEEC5
:10EA300090EE60E00F94F5F181E291EE60E00F94CA
:10EA4000C2F187EB91EE60E00F94F5F180E391EE77
:10EA500060E00F94C2F184EE90EE60E00F94F5F167
:10EA60008FE391EE60E00F94C2F186E090E061E008
:10EA700070E00F9434F20F94DCF18DE591EE60E0DC
:10EA80000F94C2F189EC91EE60E00F94F5F18EE401
:10EA900091EE60E00F94C2F183EC91EE60E00F9490
:10EAA000F5F18CE691EE60E00F94C2F18EE10F94E7
:10EAB0000DF288E90F940DF281E00F940DF20F949E
:10EAC000DCF18BE791EE60E00F94C2F119E0E0E039
:10EAD000F0E010935700E4918E2F0F940DF20F94F5
:10EAE000DCF18AE891EE60E00F94C2F1E3E0F0E03F
:10EAF00010935700E4918E2F0F940DF20F94DCF1D8
:10EB000089E991EE60E00F94C2F1E2E0F0E0109349
:10EB10005700E4918E2F0F940DF20F94DCF188EAE8
:10EB200091EE60E00F94C2F1E1E0F0E01093570045
:10EB30001491812F0F940DF20F94DCF107CF8BE825
:10EB400092EE62E00F94F5F18BE492EE60E00F94A8
:10EB5000F5F10F94DCF100E010E019C0C8016F2D51
:10EB60000F947FFEFF2031F489E492EE60E00F9471
:10EB7000C2F10BC0F092C6008091C00086FFFCCFAE
:10EB80008091C00080648093C0000F5F1F4FC80158
:10EB900081519F41A0E0B0E0ABBFFC01F790BAE229
:10EBA000FB1621F0E2E000301E07C1F60F94DCF105
:10EBB0000F94DCF187E592EE60E00F94F5F10F948D
:10EBC000DCF1CC24DD2400E010E01EC0C8010F946D
:10EBD00077FEF82E882331F489E492EE60E00F94FA
:10EBE000C2F10BC08093C6008091C00086FFFCCFAD
:10EBF0008091C00080648093C000FE1419F00894D6
:10EC0000C11CD11C0F5F1F4FC80181519F41A0E063
:10EC1000B0E0ABBFFC01E790FAE2EF1621F022E092
:10EC20000030120799F60F94DCF10F94DCF182E6C4
:10EC300092EE60E00F94C2F1C60161E070E00F94C3
:10EC400034F20F94DCF10F94DCF110920202109276
:10EC50000302109204021092050278CE89E992EE26
:10EC600062E00F94F5F1279A2F9A16C02F9880E052
:10EC700090E0E0EDF7E03197F1F7019684369105E9
:10EC8000C1F72F9A80E090E0E0EDF7E03197F1F7DF
:10EC9000019684369105C1F78091C00087FFE6CFC9
:10ECA0008091C00087FFFCCF64C485EA92EE62E0E9
:10ECB0000F94F5F140910202509103026091040219
:10ECC0007091050281E020E10F9491F2809102029F
:10ECD00090910302A0910402B091050280509F4FD1
:10ECE000AF4FBF4F8093020290930302A0930402A0
:10ECF000B093050280509041A040B04008F426CE69
:10ED0000A4CF83EB92EE62E00F94F5F140910602FE
:10ED100050910702609108027091090280E020E1A1
:10ED20000F9491F28091060290910702A09108023F
