:100000000C946F060C94A0060C94A0060C94A00609
:100010000C94A0060C94A0060C94A0060C94A006C8
:100020000C94A0060C94A0060C94A0060C94A006B8
:100030000C94A0060C94A0060C94A0060C94A006A8
:100040000C94A0060C94A0060C94A0060C94A00698
:100050000C94A0060C94A0060C94A0060C94B21D5F
:100060000C94A0060C94261E0C94FC1D0C94A00667
:100070000C94A0060C94A0060C94A0060C94A00668
:100080000C94A0060C94A0060C94A0060C94A00658
:100090000C94A0060C94A0060C94A0060C945C1E74
:1000A0000C94A0060C94A0060C94A0060C94A00638
:1000B0000C94A0060C94A0060C94A0060C94A00628
:1000C0000C94A0060C94A0060C94A0060C94A00618
:1000D0000C94A0060C94A0060C94A0060C94A00608
:1000E0000C94A0060C94801F0C94C8100C94C106AC
:1000F0000C94C1160C94E5150C94C7060C94D60606
:100100000C9489160C9401070C943B080C94C716A8
:100110000C94DC060C94810B0C94640F0C94041268
:100120000C94CB060C9406070C94EA070C94381038
:100130000C945D160C94BB0D0C9418080C94F406EA
:100140000C9431120C94810F0C94EE060C948F15C4
:100150000C948D0E0C94BF160C949B160C94EA1103
:100160000C94DB110C94E9070C94C60A0C94EC0E69
:100170000C941F160C94A9160C9448100C94EB07C1
:100180000C9477160C94CF060C947F0A0C94A2065C
:100190000C9449080C9427080C94EA060C948108E6
:1001A0000C94E0060C9447160C9454100C94932372
:1001B0000C94E6060C94FD110C94CE080C9460107F
:1001C0000C94D3060C94F8060C9402070C94FC06CD
:1001D0000C94360A0C94741100000000003E5B4F32
:1001E0005B3E3E6B4F6B3E1C3E7C3E1C183C7E3C97
:1001F000181C577D571C1C5E7F5E1C00183C1800A5
:10020000FFE7C3E7FF0018241800FFE7DBE7FF3034
:10021000483A060E2629792926407F050507407FA2
:1002200005253F5A3CE73C5A7F3E1C1C08081C1C15
:100230003E7F14227F22145F5F005F5F06097F010B
:100240007F006689956A606060606094A2FFA294F6
:1002500008047E040810207E201008082A1C0808C4
:100260001C2A08081E101010100C1E0C1E0C303812
:100270003E3830060E3E0E06000000000000005F13
:1002800000000007000700147F147F14242A7F2A2F
:1002900012231308646236495620500008070300F1
:1002A000001C2241000041221C002A1C7F1C2A083D
:1002B000083E0808008070300008080808080000A0
:1002C00060600020100804023E5149453E00427F14
:1002D000400072494949462141494D331814127F63
:1002E0001027454545393C4A494931412111090703
:1002F0003649494936464949291E00001400000084
:100300004034000000081422411414141414004155
:1003100022140802015909063E415D594E7C121112
:10032000127C7F494949363E414141227F4141414A
:100330003E7F494949417F090909013E41415173C5
:100340007F0808087F00417F41002040413F017F36
:10035000081422417F404040407F021C027F7F04FE
:1003600008107F3E4141413E7F090909063E415147
:10037000215E7F09192946264949493203017F0137
:10038000033F4040403F1F2040201F3F4038403F38
:10039000631408146303047804036159494D43004E
:1003A0007F4141410204081020004141417F040285
:1003B000010204404040404000030708002054541C
:1003C00078407F28444438384444442838444428FA
:1003D0007F385454541800087E090218A4A49C784D
:1003E0007F0804047800447D40002040403D007FA9
:1003F0001028440000417F40007C047804787C0889
:100400000404783844444438FC182424181824245C
:1004100018FC7C08040408485454542404043F4441
:10042000243C4040207C1C2040201C3C4030403C70
:1004300044281028444C9090907C4464544C4400D0
:100440000836410000007700000041360800020134
:100450000204023C2623263C1EA1A161123A404020
:10046000207A38545455592155557941225454789D
:1004700042215554784020545579400C1E52721236
:1004800039555555593954545459395554545800BF
:1004900000457C410002457D420001457C407D12C3
:1004A00011127DF0282528F07C5455450020545425
:1004B0007C547C0A097F4932494949323A444444D0
:1004C0003A324A4848303A4141217A3A424020780B
:1004D000009DA0A07D3D4242423D3D4040403D3C0C
:1004E00024FF2424487E4943662B2FFC2F2BFF0931
:1004F00029F620C0887E0903205454794100004425
:100500007D413048484A32384040227A007A0A0A0F
:10051000727D0D19317D2629292F28262929292682
:1005200030484D4020380808080808080808382FC7
:1005300010C8ACBA2F102834FA00007B0000081451
:100540002A142222142A14085500550055AA55AA27
:1005500055AAFF55FF55FF000000FF00101010FFC7
:1005600000141414FF001010FF00FF1010F010F022
:10057000141414FC001414F700FF0000FF00FF1413
:1005800014F404FC141417101F10101F101F14145F
:10059000141F00101010F0000000001F10101010A9
:1005A0001F10101010F010000000FF10101010109D
:1005B00010101010FF10000000FF140000FF00FFDB
:1005C00000001F10170000FC04F414141710171477
:1005D00014F404F40000FF00F71414141414141499
:1005E000F700F7141414171410101F101F1414140C
:1005F000F4141010F010F000001F101F0000001F76
:1006000014000000FC140000F010F01010FF10FFA8
:10061000141414FF141010101F00000000F010FF3D
:10062000FFFFFFFFF0F0F0F0F0FFFFFF0000000021
:1006300000FFFF0F0F0F0F0F3844443844FC4A4AA5
:100640004A347E02020606027E027E02635549415A
:10065000633844443C04407E201E2006027E020291
:1006600099A5E7A5991C2A492A1C4C7201724C30A5
:100670004A4D4D303048784830BC625A463D3E497C
:100680004949007E0101017E2A2A2A2A2A44445F20
:10069000444440514A444040444A51400000FF0114
:1006A00003E080FF000008086B6B08361236243622
:1006B000060F090F06000018180000001010003087
:1006C00040FF0101001F01011E00191D1712003C0F
:1006D0003C3C3C0000000000000103070F1F3F7F6F
:1006E0000080C0E0F0F8FCFEDB40A4A62EAF2000A6
:1006F000A1C8D300408DAED580A8000060000000E6
:100700000000000000000000000000E00000000009
:1007100000000000000000000001E00000000000F8
:10072000000000000000000001F0000000000000D8
:100730000000000000000003F000000000000000C6
:1007400000000000000007F00000000000000000B2
:10075000000000000007F80000000000000000009A
:10076000000000000FF800000003C0007E00000140
:10077000E0007F0FF800000003C000FE000001E071
:1007800000FFEFF800000003C000FE000001E000E1
:10079000FFFFF800000003C000F00000000F007F22
:1007A000FE7FC0000003C000F00000000F003FFE0D
:1007B0007FF83FF1FBCFFCFEF3BC3DEFE01FFE7F77
:1007C000FF7FFBFFDFFEFEFFBC3DEFE01FC6FFFF2C
:1007D0007FFBFFDFFEFEFFBC3DEFE00FE3C7FE78CF
:1007E0007BC3DE1EF0FFBC3DEF0007FF87FC787B7C
:1007F000C3DE1EF0F83C3DEF0001FFFFF0007BC3BD
:10080000C01EF0F03C3DEF0001F37FE03FFBC3CFA3
:10081000FEF0F03C3DEF0003E33F807FFBC3DFFED3
:10082000F0F03C3DEF0007E73C00787BC3DE1EF0B4
:10083000F03C3DEF0007FFBE00787BC3DE1EF0F00A
:100840003C3DEF0007FFFE00787BC3DE1EF0F03C6E
:100850003DEF000FFFFE007FFBFFDFFEF0F03FFDEE
:10086000EFE00FFFFF007FFBFFDFFEF0F03FFDEF4B
:10087000E00FF9FF003E79F9CF9EF0F01F3DE7E071
:100880001FF1FF0000000000000000000000001F3A
:1008900080FF007FFFFFFFFFFFFFFFFFFFE01C0067
:1008A0007F007FFFFFFFFEB46D888D18E000001F02
:1008B000007FFFFFFFFE95AD7DB577E000000F00E4
:1008C0007FFFFFFFFEA5AD9D8D19E0000006007FB4
:1008D000FFFFFFFEB5ADEDB57EE0000000000001BA
:1008E0008000000000000000000003800000000005
:1008F000000000000007C000000000000000000031
:1009000007C00000000000000000000FC000000051
:100910000000000000001FE00000000000000000D8
:10092000001FE00000000000000000003FE00000A9
:10093000000000000000003FF00000000000000088
:1009400000007FF0000000000000001FF87FF000B2
:100950000000000000003FFE7FF0000000000000EB
:10096000003FFF7FF0000000000000001FFFFBE0E1
:10097000000000000000000FFFF9FFC000000000B1
:1009800000000FFFF9FFF800000000000007FFF172
:10099000FFFF00000000000003FC73FFFF80000069
:1009A00000000001FE3FFFFF80000000000000FF8C
:1009B0001E0FFF000000000000007FFE1FFC000073
:1009C00000000000003FFFFFF800000000000000F2
:1009D0000FDFFFE0000000000000001F19FFC00053
:1009E0000000000000003F3CFF000000000000008D
:1009F000007E7CF800000000000000007FFE7C000C
:100A000000000000000000FFFFFC000000000000EC
:100A10000000FFFFFE0000000000000000FFFFFEDE
:100A20000000000000000001FFEFFE0000000000D9
:100A3000000001FFCFFE0000000000000003FF07E0
:100A4000FE0000000000000003FC07FE00000000A4
:100A500000000003F003FE00000000000000018021
:100A600000FE000000000000000000007E0000000A
:100A7000000000000000003E000000000000000038
:100A800000000C000000000000078000FC000003D4
:100A9000C0000000078001FC000003C00000000748
:100AA0008001FC000003C0000000078001E000009E
:100AB000001E000000078001E00000001E007FE330
:100AC000F79FF9FDE7787BDFC0FFF7FFBFFDFDFF74
:100AD000787BDFC0FFF7FFBFFDFDFF787BDFC0F055
:100AE000F787BC3DE1FF787BDE00F0F787BC3DE196
:100AF000F0787BDE0000F787803DE1E0787BDE0068
:100B00007FF7879FFDE1E0787BDE00FFF787BFFD81
:100B1000E1E0787BDE00F0F787BC3DE1E0787BDE4A
:100B200000F0F787BC3DE1E0787BDE00F0F787BCA2
:100B30003DE1E0787BDE00FFF7FFBFFDE1E07FFBFA
:100B4000DFC0FFF7FFBFFDE1E07FFBDFC07CF3F319
:100B50009F3DE1E03E7BCFC00000000000000000B0
:100B6000000000FFFFFFFFFFFFFFFFFFFFC0FFFFD1
:100B7000FFFFFD68DB111A31C0FFFFFFFFFD2B5A9D
:100B8000FB6AEFC0FFFFFFFFFD4B5B3B1A33C0FF6B
:100B9000FFFFFFFD6B5BDB6AFDC053534431333015
:100BA00036206261C59F6C61746D612068617461FB
:100BB00073C4B1210000002100240027002A002D69
:100BC000003000330001010000040107010A0100A8
:100BD000002200250028002B002E003100340002E6
:100BE000010000050108010B010000200023002680
:100BF0000029002C002F0032000001000003010634
:100C00000109010505050507050808080802020293
:100C1000020A0A0808040404040101010101010197
:100C2000010303030303030303040707070C0C0C6E
:100C30000C0C0C0C0C020202020606060606060646
:100C4000060B0B0B0B0B0B0B0B01021020200808E3
:100C5000102040102040800201020108040201011E
:100C60000204081020408080402010080402018007
:100C7000040201804020100804020108040201015E
:100C80000204081020408001020408102040800067
:100C9000000A0B02090C0D0E0807030401000000F6
:100CA0000000000000000000000000000000000044
:100CB0000000000000000000000000121110000001
:100CC0000000000000000000000000000000000024
:100CD00000000000002200FF2100801F9323112448
:100CE0001FBECFEFD1E2DEBFCDBF00E00CBF12E0F0
:100CF000A0E0B2E0E4EBF0E500E00BBF02C007903B
:100D00000D92A03DB107D9F725E0A0EDB2E001C0FA
:100D10001D92A938B207E1F716E0CEE6D6E000E072
:100D200006C021970109802FFE010E94FB26CD36C7
:100D3000D10780E00807A9F70E9439200C944828C1
:100D40000C94000008958150823108F05AC0E82FB9
:100D5000F0E08827E155F94F8F4F0C94FB26CF0622
:100D6000D306C106C706CB060107D606DC06E00699
:100D7000E606EA06EE06F406F8060107FC06020798
:100D80000607809180008F7780938000089580917E
:100D900080008F7DF9CF80918000877FF5CF84B56B
:100DA0008F7784BD089584B58F7DFBCF8091B0008F
:100DB0008F778093B00008958091B0008F7DF9CF38
:100DC000809190008F77809390000895809190009B
:100DD0008F7DF9CF80919000877FF5CF8091A00023
:100DE0008F778093A00008958091A0008F7DF9CF28
:100DF0008091A000877FF5CF809120018F7780932D
:100E000020010895809120018F7DF9CF80912001EC
:100E1000877FF5CFCF93DF93282F30E0F901E1579B
:100E2000F34F8491F901E75BF34FD491F901ED5F42
:100E3000F34FC491CC23A1F081110E94A306EC2FA3
:100E4000F0E0EE0FFF1FE751F44FA591B491EC9144
:100E5000ED2381E090E009F480E0DF91CF910895E7
:100E600080E090E0FACF1F93CF93DF93282F30E0FC
:100E7000F901E157F34F8491F901E75BF34FD49106
:100E8000F901ED5FF34FC491CC23A9F0162F811126
:100E90000E94A306EC2FF0E0EE0FFF1FE153F44F8A
:100EA000A591B4918FB7F894EC91111108C0D09529
:100EB000DE23DC938FBFDF91CF911F910895DE2B4E
:100EC000F8CFCF93DF9390E0FC01E75BF34F2491E1
:100ED0008D5F934FFC0184918823D1F090E0880FBF
:100EE000991FFC01EB54F44FA591B491FC01E1531F
:100EF000F44FC591D49161110EC09FB7F8948C91B5
:100F0000E22FE0958E238C932881E223E8839FBF14
:100F1000DF91CF9108958FB7F894EC91E22BEC9389
:100F20008FBFF6CF3FB7F89480918C0490918D04D9
:100F3000A0918E04B0918F0426B5A89B05C02F3FC9
:100F400019F00196A11DB11D3FBFBA2FA92F982FEF
:100F50008827BC01CD01620F711D811D911D42E0EA
:100F6000660F771F881F991F4A95D1F708958F92B2
:100F70009F92AF92BF92CF92DF92EF92FF924B017E
:100F80005C010E9492076B017C010E9492076C1920
:100F90007D098E099F09683E734081059105A8F37C
:100FA00021E0821A9108A108B10888EEC80E83E0FA
:100FB000D81EE11CF11C81149104A104B10429F78D
:100FC000FF90EF90DF90CF90BF90AF909F908F9069
:100FD000089508950895AF92BF92CF92DF92EF9255
:100FE000FF920F931F93CF93DF936C017B018B01D3
:100FF000040F151FEB015E01AE18BF08C017D10723
:1010000059F06991D601ED91FC910190F081E02DAC
:10101000C6011995892B79F7C501DF91CF911F91F1
:101020000F91FF90EF90DF90CF90BF90AF90089519
:10103000FC01538D448D252F30E0842F90E0821BDE
:10104000930B541710F0CF96089501970895FC0163
:10105000918D828D981761F0A28DAE0FBF2FB11DBB
:101060005D968C91928D9F5F9F73928F90E0089513
:101070008FEF9FEF0895FC01918D828D981731F0CD
:10108000828DE80FF11D858D90E008958FEF9FEF21
:101090000895FC01918D228D892F90E0805C9F4FF7
:1010A000821B91098F739927089584E994E00E9427
:1010B000490821E0892B09F420E0822F0895FC01E2
:1010C000A48DA80FB92FB11DA35ABF4F2C91848DA9
:1010D00090E001968F739927848FA689B7892C9306
:1010E000A089B1898C91837080648C93938D848D59
:1010F000981306C00288F389E02D80818F7D80835C
:101100000895EF92FF920F931F93CF93DF93EC011B
:1011100081E0888F9B8D8C8D98131AC0E889F9899E
:10112000808185FF15C09FB7F894EE89FF896083A1
:10113000E889F98980818370806480839FBF81E022
:1011400090E0DF91CF911F910F91FF90EF90089564
:10115000F62E0B8D10E00F5F1F4F0F731127E02E3F
:101160008C8D8E110CC00FB607FCFACFE889F98977
:10117000808185FFF5CFCE010E945F08F1CFEB8D16
:10118000EC0FFD2FF11DE35AFF4FF0829FB7F8944B
:101190000B8FEA89FB8980818062CFCFCF93DF9369
:1011A000EC01888D8823B9F0AA89BB89E889F9897F
:1011B0008C9185FD03C0808186FD0DC00FB607FCB4
:1011C000F7CF8C9185FFF2CF808185FFEDCFCE01E7
:1011D0000E945F08E9CFDF91CF91089580E090E011
:1011E000892B29F00E94550881110E94000080E09F
:1011F00090E0892B49F080E090E0892B29F00E9453
:10120000000081110E94000080E090E0892B49F0ED
:1012100080E090E0892B29F00E94000081110E945B
:10122000000080E090E0892B49F080E090E0892B7D
:1012300029F00E94000081110C9400000895EF92A3
:10124000FF920F931F93CF93DF93EC01EC80FD800F
:101250006E157F050CF070C057FF04C0240F351FBA
:1012600050E040E08E819F81FA01E20FF31F8E175C
:101270009F071CF49C01241B350B121613060CF05F
:101280005BC0922F842F8695869586958E9DD00182
:101290008F9DB00D11246A0F7B1FAF8DB8A1A60FD3
:1012A000B71F477049F188E0841B482F682F70E012
:1012B000FB01E052F94FE491281708F063C0621B6C
:1012C00071092FEF30E002C0359527956A95E2F756
:1012D000E2230130110539F0B0F10230110561F55A
:1012E0008C91E82702C08C91E82BEC93941720F1A5
:1012F0002C813D81A20FB31FE92FE41BE83078F069
:101300000230110521F58E2F9C9190959C932C8194
:101310003D81A20FB31F88508830B0F7E770EE23ED
:1013200059F0F0E0E852F94FE49101301105F9F07D
:1013300010F10230110519F1DF91CF911F910F913A
:10134000FF90EF900895E0958C91E823CECF81E057
:101350000115110509F480E081959E2F8C932C8155
:101360003D81A20FB31F98509830C0F7D7CF8C9112
:10137000E82BEC93E1CFE0958C91E823FACF8C91A8
:10138000E827F7CF0130110509F4ADCFE0F20230C4
:10139000110509F4A5CFAE0DBF1DAECF0F931F935E
:1013A000CF93DF9377FF04C0260F371F70E060E014
:1013B000DC011496CD91DC91FB01E20FF31FCE17F7
:1013C000DF071CF49E01261B370B121613064CF583
:1013D000FA0157FD3796A3E0F595E795AA95E1F751
:1013E000EC9FD001ED9FB00DFC9FB00D11246A0F52
:1013F0007B1FDC015F96ED91FC91E60FF71F4770B4
:10140000552781E090E001C0880F4A95EAF7482F00
:101410000130110559F0A8F02E0F3F1F02301105C1
:10142000E1F0DF91CF911F910F9108952E0F3F1F93
:10143000E217F307B1F38191DF011197842B8C93AD
:10144000F7CF80952E0F3F1FE217F30751F39191CD
:10145000DF01119798239C93F7CFE217F30709F365
:101460008191DF01119784278C93F7CF0F931F93FE
:10147000FA01DC0156964C9156974230E9F0433020
:10148000A1F1413061F514964D915C91DA01AE1BEA
:10149000BF0BFD01E21BF30B77FD0BC0DC011696C1
:1014A0004D915C916417750724F4AB01BF010E9454
:1014B000CE091F910F91089514964D915C91DA0118
:1014C000A61BB70BBD0161507109DC0116964D9149
:1014D0005C91DA01AE1BBF0BFD01E21BF30B77FD44
:1014E000E8CFAF010E941F09E4CF16964D915C91A1
:1014F000DA01A61BB70BBD0161507109CDCF0F9367
:101500001F93FA01DC0156964C9156974230A9F090
:10151000433091F1413019F514964D915C91DA0107
:10152000AE1BBF0BFD013197F7FD04C0AB01BF013E
:101530000E941F091F910F91089514964D915C917F
:10154000DA01A61BB70BBD01DC0116964D915C912B
:10155000DA01AE1BBF0BFD013197621B730BF7FD68
:10156000E9CFDC0116964D915C91E417F50714F76D
:10157000AF010E94CE09DECF16964D915C91DA0143
:10158000A61BB70BBD01621B730BCECFFC0177FD11
:1015900064C080859185681779070CF05EC057FD9F
:1015A0005CC082859385481759070CF056C0868920
:1015B0008230B1F0833029F1813041F4848195810A
:1015C000841B950BAB01BC016150710921303105C1
:1015D00009F108F443C02230310509F463C00895CD
:1015E00084819581DC01A61BB70BBD016150710997
:1015F00086819781DC01A41BB50BAD0141505109D7
:10160000E5CF86819781861B970BBA01AC014150CB
:101610005109DCCFCA0157FD0796A3E09595879540
:10162000AA95E1F7A481B5818A9F90018B9F300D27
:101630009A9F300D1124620F731F078CF0A1E02DCB
:10164000E60FF71F4770552721E030E001C0220F59
:101650004A95EAF78081822B80830895CA0157FD5D
:10166000079633E0959587953A95E1F7A481B58182
:101670008A9F90018B9F300D9A9F300D1124620F2D
:10168000731F078CF0A1E02DE60FF71F4770552759
:1016900081E090E001C0880F4A95EAF7809590813B
:1016A0008923DACFCA0157FD079623E095958795E0
:1016B0002A95E1F7A481B5818A9F90018B9F300D17
:1016C0009A9F300D1124620F731F078CF0A1E02D3B
:1016D000E60FF71F4770552721E030E001C0220FC9
:1016E0004A95EAF780818227B7CF08958EBD000022
:1016F0000DB407FEFDCF8EB508958CBD9DBD089538
:101700000895FC016370668B848195812681378101
:10171000613039F0633029F09187808733872287E1
:101720000895318720879387828708952F923F926B
:101730004F925F926F927F928F929F92AF92BF92E1
:10174000CF92DF92EF92FF920F931F93CF93DF938D
:10175000CDB7DEB76A970FB6F894DEBF0FBECDBF28
:101760009A8F898F7A8369834A01D22E18870F83D3
:101770003701BC2CDC0159962D913C915A972115CB
:10178000310509F015C118968D919C91199768172C
:1017900079070CF0D7C11A968D919C91481759077B
:1017A0000CF0D0C14C2C512CB6E0CB9E600D711DBD
:1017B00011247C876B87161617060CF0C3C1EA2D1F
:1017C000F0E0FA87E98793E0EE0FFF1F9A95E1F7C3
:1017D000F88BEF87CF01840F951F181619060CF0B0
:1017E000B1C1A98DBA8D58968C91811104C0BFEA00
:1017F000BD1508F4D394A98DBA8DED91FC91119784
:101800000284F385E02DCD011995B5E0DB9EC00182
:101810001124E981FA81FC83EB83312C212C9C017A
:1018200028523E4F388F2F8B4A2D50E05E8B4D8BC8
:10183000EF89F88DE20DF31D44919E828D82D12CAB
:10184000C12C69817A81620D731D7A8B698B842F1B
:1018500090E09C8B8B8BE98DFA8DA081B18140FF4C
:1018600082C0F1E0BF126FC0AF126DC01C96ED9147
:10187000FC912F813885A4014C0D5D1D69897A8901
:10188000898D9A8D1995EB89FC89F595E7954E2FF1
:101890005FEFC51AD50A6D817E818D899E89680F9B
:1018A000791F7E836D8398E0C916D10481F6AFEF6E
:1018B0002A1A3A0AEB81FC81E40DF51DFC83EB83C7
:1018C000F5E02F16310409F0B3CF2F8138852615A6
:1018D0003705B9F0A98DBA8DED91FC91B1E0BB123D
:1018E00057C0AB1255C069817A816B5F7F4F00880A
:1018F000F189E02D830128E030E0A401898D9A8DE3
:101900001995A98DBA8DED91FC9111970688F789EB
:10191000E02DCD016A960FB6F894DEBF0FBECDBFA5
:10192000DF91CF911F910F91FF90EF90DF90CF90BB
:10193000BF90AF909F908F907F906F905F904F90EF
:101940003F902F9019941E96ED91FC91EF80F884B2
:1019500009851A8592014D815E816B817C81898D1B
:101960009A8D199590CF2F8138852615370509F462
:101970008ACF31E0B31207C0A31205C01C96ED91C7
:10198000FC91930178CF1E96ED91FC917301E0CF0D
:101990006B857C85641975090684F785E02D7301D4
:1019A0000F8518899201A401898D9A8D1995A9CF67
:1019B000F90134969491329745915491D91AB7E030
:1019C000DB9E400D511D1124F901259134913C8B72
:1019D0002B8BFA0125903490FA013296749031964F
:1019E0003491398B329664903196449041E04C1595
:1019F00018F04A1508F07FC0662D062C000C770BF6
:101A00007C836B83842D042C000C990B9E838D8327
:101A1000A98DBA8DED91FC9111970284F385E02D8B
:101A2000CD011995512CD12CC12CEA2DF0E0FA876B
:101A3000E9872B2D30E03C872B87A401440D511DF5
:101A400047FC5A95588F4F8B69817A81660D711DBD
:101A500067FC7A957E876D877989C71608F051CF24
:101A60002C2D30E04D815E81420F531FA985BA8530
:101A70004A9FC0014B9F900D5A9F900D1124FC016D
:101A8000E80DF91DF88BEF87852D612C4F89588D56
:101A9000420F531F5E8B4D8B671408F050C04424D7
:101AA0004394480E877041F4C1010196EB89FC898B
:101AB000E20DF31DD4901C01D7FE19C0A98DBA8D7B
:101AC000ED91FC91662D70E0B1E0BB1219C0AB1234
:101AD00017C02D853E85620F731F0484F585E02DA8
:101AE0002F8138854D895E89898D9A8D1995DD0CF8
:101AF0006394842DD1CF1E821D821C821B8288CFCD
:101B00004B815C81640F751FAB85BC856A9FC001EA
:101B10006B9F900D7A9F900D112469817A81680FD7
:101B2000791F0684F785E02DEF80F88409851A85F2
:101B30009D014F855889898D9A8D1995D8CF570C5D
:101B4000C3948ACF6A960FB6F894DEBF0FBECDBF9E
:101B5000DF91CF911F910F91FF90EF90DF90CF9089
:101B6000BF90AF909F908F907F906F905F904F90BD
:101B70003F902F9008958F929F92AF92CF92EF92C5
:101B8000FF920F931F93CF93DF93EC01262F898D44
:101B90009A8D009709F051C06A30D1F41D861C86D9
:101BA0008D8948E0849F900111248E859F85820F46
:101BB000931F9F878E8781E090E0DF91CF911F91E7
:101BC0000F91FF90EF90CF90AF909F908F900895DE
:101BD0006D3089F3CC88AD888F898823C1F08C85DE
:101BE0009D8536E0C39E800D911D11244885598541
:101BF0004817590764F44E855F851D861C8638E0BA
:101C0000A39EC0011124840F951F9F878E87EA88A9
:101C1000FB88088919894E855F856C857D85CE0195
:101C20000E94960B2C898C859D8546E0249F800D13
:101C3000911D11249D878C87BECF6A3069F41D8663
:101C40001C86FC013896E4912D898E859F85E29F44
:101C5000800D911D1124ADCF6D3009F4ACCFFC0186
:101C600034963491631708F4A6CF3296E491E617C0
:101C700008F4A1CFFC01329685909490462F431B27
:101C8000342F47E0349F800C911C1124F4013296CC
:101C900034913196E4913323A9F1EE2399F1CC8864
:101CA000F4013596E491AD884F89442301F10E2E5D
:101CB000000CFF0BE30FF11DCE9EA001CF9E500D37
:101CC00011246C857D85460F571F688579856417BB
:101CD00075076CF44E855F851D861C86FC01389661
:101CE000E491AE9E400D511D11245F874E87EA8816
:101CF000FB88088919894E855F856C857D85CE01B5
:101D00000E94960BF4013496E4912C898C859D8574
:101D1000E29F800D911D11248DCF6F927F928F9243
:101D20009F92AF92BF92CF92DF92EF92FF920F936A
:101D30001F93CF93DF93EC016B015A0139014801E6
:101D4000E881F9810284F385E02D1995E881F98114
:101D50000288F389E02D87019301A501B601CE0128
:101D60001995A501480D591D41505109E881F98186
:101D70000288F389E02D9301B601CE011995E8811F
:101D8000F9810088F189E02D9401A501B601CE0109
:101D90001995C60CD71CB60161507109E881F9810B
:101DA0000088F189E02D9401A501CE011995E88103
:101DB000F9810688F789E02DCE01DF91CF911F913F
:101DC0000F91FF90EF90DF90CF90BF90AF909F90DA
:101DD0008F907F906F9019946F927F928F929F92C5
:101DE000AF92BF92CF92DF92EF92FF920F931F9329
:101DF000CF93DF935C01EB016A0149013801870150
:101E0000DC01ED91FC916217730719F564167506F4
:101E10002CF0962D872D3A01C92ED82E9601261921
:101E200037092F5F3F4F048CF58DE02DA301BE01D4
:101E3000C5011995DF91CF911F910F91FF90EF9000
:101E4000DF90CF90BF90AF909F908F907F906F90DA
:101E500008954615570591F42617370724F0892D64
:101E60004B01C22FD82F9E01281939092F5F3F4FF0
:101E7000068CF78DE02DA601B401DACF0284F3853C
:101E8000E02D1995D501ED91FC910488F589E02D9F
:101E900083019401A601BE01C5011995D501ED91FB
:101EA000FC910688F789E02DC501DF91CF911F9144
:101EB0000F91FF90EF90DF90CF90BF90AF909F90E9
:101EC0008F907F906F901994EF92FF920F931F93D2
:101ED000DC011A960D911C911B9718962D913C913F
:101EE0001997ED91FC9100A0F1A1E02D7B0150E04C
:101EF00040E070E060E019951F910F91FF90EF9026
:101F000008954F925F926F927F928F929F92AF92BD
:101F1000BF92CF92DF92EF92FF920F931F93CF93D6
:101F2000DF936C012B015A0139014801DC01ED916D
:101F3000FC910284F385E02D1995E201640C751C77
:101F4000D601ED91FC91C615D7055CF40088F189A6
:101F5000E02D87019401A501BE01C60119952196C6
:101F6000EFCF0688F789E02DC601DF91CF911F9151
:101F70000F91FF90EF90DF90CF90BF90AF909F9028
:101F80008F907F906F905F904F9019948F929F9257
:101F9000AF92BF92CF92DF92EF92FF920F931F9377
:101FA000CF93DF93EC015B014A016901E881F9817C
:101FB0000284F385E02D199595012C0D3D1D2150CE
:101FC0003109E881F9810488F589E02D78018401DF
:101FD000A401B501CE011995E881F9810688F78938
:101FE000E02DCE01DF91CF911F910F91FF90EF90E7
:101FF000DF90CF90BF90AF909F908F9019948F9269
:102000009F92AF92BF92CF92DF92EF92FF920F9387
:102010001F93CF93DF93EC015B014A0169017801C3
:10202000E881F9810284F385E02D1995C80CD91C4B
:10203000860101501109E881F9810488F589E02DB4
:102040009501A401B501CE011995E881F9810688B1
:10205000F789E02DCE01DF91CF911F910F91FF9075
:10206000EF90DF90CF90BF90AF909F908F9019949A
:10207000EF92FF920F931F93DC01ED91FC9100A072
:10208000F1A1E02D19951F910F91FF90EF90089508
:102090000F931F93DC01ED91FC91068CF78DE02DE1
:1020A00019951F910F9108950F931F93DC01ED91E6
:1020B000FC91048CF58DE02D19951F910F910895D9
:1020C000DC01ED91FC910084F185E02D19943F92A3
:1020D0004F925F926F927F928F929F92AF92BF9238
:1020E000CF92DF92EF92FF920F931F93CF93DF93E4
:1020F0005C017B014A016901390187E0680E711CAE
:1021000093E0759467949A95E1F72B01400E511E68
:1021100010E000E0312CD0E0C0E0CE0187709927BC
:10212000330C892B59F4FE0183E0F595E7958A95E8
:10213000E1F7E00FF11FE80DF91D349037FE0AC0FA
:1021400021E030E0A701B5016C0F7D1F85E495E02B
:102150000E9460102196CC16DD06F9F68FEFE81A82
:10216000F80A060D171DE414F504A9F6DF91CF91C6
:102170001F910F91FF90EF90DF90CF90BF90AF90A5
:102180009F908F907F906F905F904F903F900895B9
:102190002F923F924F925F926F927F928F929F9277
:1021A000AF92BF92CF92DF92EF92FF920F931F9365
:1021B000CF93DF9300D000D0CDB7DEB73C016A01EA
:1021C0003E832D83FC82EB825801A41AB50AB7FE28
:1021D00003C0B194A194B1088D809E80861A970A9D
:1021E00097FE03C09194819491088A149B045CF03B
:1021F000902F812F0D811E819D838E839C2D8D2D8F
:102200006B01692F782F0C151D055CF09D818E8167
:102210007E836D83692F782F902F812F8601C92EA1
:10222000D82E1601201A310A2B012D813E81421A27
:10223000530A57FE03C0519441945108710137FE6F
:1022400003C03FEFE31AF30AF594E7948D819E8172
:10225000861797075CF5A1E0B0E0BA83A983C016A2
:10226000D1064CF1D301ED91FC910484F585E02D6C
:102270002B813C81A8016D817E818A149B041CF016
:102280004D815E81B801C3011995E418F508F7FE88
:102290000AC02D813E8189819A81280F391F3E8392
:1022A0002D83E20CF31C0F5F1F4FD9CF2FEF3FEFB1
:1022B0003A832983D4CF26960FB6F894DEBF0FBE9B
:1022C000CDBFDF91CF911F910F91FF90EF90DF90E5
:1022D000CF90BF90AF909F908F907F906F905F90C6
:1022E0004F903F902F900895089520914603260F18
:1022F0003327331F21323105ECF420916A03FC01AE
:1023000090E080E0243069F082E00895A0914603D7
:102310002191AC014A5D5C4FA40FB52FB11D2C93E8
:102320000196861798F380914603680F60934603E1
:1023300080E0089581E0089510926A0381E080931F
:102340006C0310926B0361E084E10E94330761E04B
:1023500085E10E943307E9EBF0E080818E7F808386
:1023600080818D7F808388E48093B80085E48093AA
:10237000BC000895CF93DF9391E0909325038823C9
:10238000B9F0C091B800D091BA008091BC008A7BAE
:102390008093BC0060E084E10E94330760E085E147
:1023A0000E9433070E949C11D093BA00C093B800DA
:1023B000DF91CF910895E091960380919503E817FE
:1023C00030F4F0E0E050FD4F808190E008958FEF11
:1023D0009FEF089590919603809195032FEF3FEF23
:1023E000981748F4E92FF0E0E050FD4F208130E0ED
:1023F0009F5F90939603C9010895809195039091F2
:102400009603891B990B0895CF92DF92EF92FF926A
:102410000F931F93CF93DF937C01CB018A0120910F
:102420009304222389F0EB016B01C40ED51ECC1559
:10243000DD0569F06991D701ED91FC910190F08182
:10244000E02DC7011995F3CF642F0E947511C801C3
:10245000DF91CF911F910F91FF90EF90DF90CF9080
:102460000895CF93DF931F92CDB7DEB76983209194
:1024700093042223F9F020919004203258F021E0B7
:1024800030E0FC013383228390E080E00F90DF9105
:10249000CF91089580919104E82FF0E0E052FD4F34
:1024A000998190838F5F809391048093900481E061
:1024B00090E0ECCF61E0CE0101960E947511F7CF5C
:1024C000CF92DF92EF92FF920F931F93CF93DF9300
:1024D000D091900481E0D13208F09CC0C091920468
:1024E0000E9492076B017C0180916A0381116CC08C
:1024F00082E080936A0381E080936C038FEF809386
:10250000690310928E03D0938D03A0EEB2E0EDE646
:10251000F3E080E0D8138DC010928F0380918F0379
:10252000CC0FC82BC0938F0380916B03813009F0CF
:1025300084C010926B030E9492076B017C01809112
:102540008F038093BB008091210390912203A0917F
:102550002303B0912403892B8A2B8B2BA1F00E949B
:1025600092070091210310912203209123033091BF
:1025700024036C197D098E099F0906171707280780
:10258000390708F442C08091BC0083FDD8CF85ECA8
:102590008093BC000E9492076B017C0180916A03CA
:1025A000823009F44CC0809169038F3F09F469C0FF
:1025B00080916903803209F466C080916903803399
:1025C00009F463C084E026C0809121039091220326
:1025D000A0912303B0912403892B8A2B8B2B09F420
:1025E00083CF0E9492070091210310912203209132
:1025F0002303309124036C197D098E099F09061766
:1026000017072807390708F06FCF809120030E9431
:10261000BA1185E0109291041092900410929304E4
:10262000DF91CF911F910F91FF90EF90DF90CF90AE
:1026300008959D9191938F5F6DCF85EEA9CF809185
:10264000210390912203A0912303B0912403892BAD
:102650008A2B8B2B09F4A2CF0E94920700912103B1
:102660001091220320912303309124036C197D09DA
:102670008E099F09061717072807390708F08ECF1C
:10268000C4CF80E0C7CF82E0C5CF83E0C3CFEF9255
:10269000FF920F931F93CF93DF937C01C62F8091FE
:1026A000620590916305009709F459C02091660571
:1026B00031E030939304209392041092910410928D
:1026C0009004DC01ED91FC910190F081E02D60E03F
:1026D00019958701EE24E394F12CD1E0C15080914B
:1026E000620590916305CF3F91F1B0E2EB16F104E2
:1026F000D8F00E946012809162059091630520914C
:102700006605D09393042093920410929104109242
:102710009004DC01ED91FC910190F081E02D60E0EE
:102720001995EE24E394F12C809162059091630554
:10273000F8016491DC01ED91FC910190F081E02DB4
:102740001995BFEFEB1AFB0A0F5F1F4FC7CFDF9141
:10275000CF911F910F91FF90EF900C946012E09138
:102760007205F09173059081809178058095892399
:1027700080838701C15008F438C0F801849120910A
:10278000600530916105232B29F00E94760B0F5FC5
:102790001F4FF0CF28E030E040E8E0916E05F09167
:1027A0006F0590917605582F5423D9F05081952BC1
:1027B0009083E0917005F0917105908150917705BB
:1027C000952B9083E0917005F09171055081909167
:1027D0007705909595239083469521503109E9F628
:1027E000D6CF508190959523E3CFDF91CF911F9164
:1027F0000F91FF90EF9008951F93CF93DF93EC011B
:102800008D8D9E8D009721F1162F29A131E03093F7
:102810009304209392041092910410929004DC018E
:10282000ED91FC910190F081E02D60E019958D8D86
:102830009E8DDC01ED91FC910190F081E02D612FE6
:1028400019958D8D9E8DDF91CF911F910C94601203
:10285000ADA5BEA59C918BA9809589238C938B8D6A
:102860009C8D892B31F0862FDF91CF911F910C9495
:10287000760B28E030E080E8A9A5BAA599A9462FF3
:102880004823C1F04C91942B9C93ABA5BCA59C9183
:102890004AA9942B9C93ABA5BCA54C919AA9909561
:1028A00094239C9386952150310931F7DF91CF9184
:1028B0001F9108954C9190959423E6CFDF92EF926B
:1028C000FF920F931F93CF93DF93809162059091B6
:1028D0006305892B09F498C020917A0530917B0516
:1028E00040917C0550917D0560E074E284EF90E0BA
:1028F0000E94782420513109410951095695479584
:10290000379527952093B80065E085ED9CE00E94FF
:10291000471360914905615085E495E00E94FC13DE
:1029200020914B0530914C05C901079697FD0796FC
:1029300033E0959587953A95E1F7209149053091D7
:102940004A05829F8001839F100D929F100D1124D4
:10295000C0916405D09165058091620590916305F1
:102960000C0F1D1F009709F48FC02091660531E000
:102970003093930420939204109291041092900447
:10298000DC01ED91FC910190F081E02D60E419955E
:10299000EE24E394F12CDD24D39480916205909190
:1029A00063050C171D0709F446C0B0E2EB16F104ED
:1029B000D8F00E9460128091620590916305209189
:1029C0006605D09293042093920410929104109281
:1029D0009004DC01ED91FC910190F081E02D60E428
:1029E0001995EE24E394F12C809162059091630592
:1029F0006991DC01ED91FC910190F081E02D199538
:102A0000BFEFEB1AFB0AC9CF809160059091610579
:102A1000892B31F080918305909184050E947D0B74
:102A2000E0917405F091750590818091790580950C
:102A30008923808369CF0E94601280916205909102
:102A40006305892B09F461C020917E0530917F05D3
:102A5000409180055091810560E074E284EF90E040
:102A60000E94782420513109410951095695479512
:102A7000379527952093B800DF91CF911F910F9143
:102A8000FF90EF90DF900895E0917205F09173054B
:102A9000808190917805892B80830C171D0769F23E
:102AA00089912091600530916105232B19F00E94D6
:102AB000760BF3CF28E030E040E8E0916E05F0912E
:102AC0006F0590917605582F5423D9F05081952B9E
:102AD0009083E0917005F091710590815091770598
:102AE000952B9083E0917005F09171055081909144
:102AF0007705909595239083469521503109E9F605
:102B0000CCCF508190959523E3CFE0917405F0915F
:102B10007505808190917905892B8083ADCF1F93B6
:102B2000CF93DF93EC01162F8D8D9E8D892BB1F104
:102B30002DA93EA94FA958AD60E074E284EF90E062
:102B40000E94782420513109410951095695479531
:102B5000379527952093B80066EA111167EACE01F0
:102B60000E94FC138D8D9E8D892B41F129AD3AADCC
:102B70004BAD5CAD60E074E284EF90E00E9478249D
:102B800020513109410951095695479537952795A7
:102B90002093B800DF91CF911F9108958B8D9C8D6C
:102BA000892B21F08EAD9FAD0E947D0BEFA5F8A97A
:102BB00090818CA9809589238083CECFEFA5F8A939
:102BC00080819CA9892B8083E5CF90E080E00895E7
:102BD0008F929F92AF92BF92CF92DF92EF92FF922D
:102BE0000F931F93CF93DF934B012FEF821A920A1B
:102BF0005B0122E0A20EB11C6B0123E0C20ED11CCE
:102C00007B0124E0E20EF11C8B010B5F1F4FEB01F7
:102C100026968A30910508F0C0C09B01FC018827E8
:102C2000EB5EF94E8F4F0C94FB261F1647165D1670
:102C3000771689169B16A916BF16C116C71660E02F
:102C4000822F0E94330760E0882D0E94330760E0E6
:102C50008A2D0E94330760E08C2D0E94330760E0CC
:102C60008E2D0E94330760E0802F0E94330761E0C1
:102C70008C2FDF91CF911F910F91FF90EF90DF90FC
:102C8000CF90BF90AF909F908F900C94330761E0EE
:102C9000822F0E94330760E0882D0E94330760E096
:102CA0008A2D0E94330761E08C2D0E94330761E07A
:102CB0008E2D0E94330761E0D7CF60E0822F0E9403
:102CC000330760E0882D0E94330761E08A2D0E945F
:102CD000330760E08C2D0E94330760E08E2D0E9448
:102CE000330761E0802F0E94330760E0C1CF60E0CE
:102CF000822F0E94330760E0882D0E94330760E036
:102D00008A2D0E94330760E08C2D0E94330761E01A
:102D1000E5CF61E0822F0E94330760E0882D0E949A
:102D2000330760E08A2D0E94330761E08C2D0E94FA
:102D3000330761E01FC060E0822F0E94330761E02B
:102D4000882D0E94330760E08A2D0E94330760E0DF
:102D5000EDCF60E0822F0E94330761E0882D0E9452
:102D6000330760E08A2D0E94330760E08C2D0E94BB
:102D7000330760E08E2D0E94330760E0B3CF60E040
:102D800087CF60E0822F0E94330760E0E7CF60E0EA
:102D9000822F0E94330760E0D3CFDF91CF911F9144
:102DA0000F91FF90EF90DF90CF90BF90AF909F90EA
:102DB0008F90089520914B0530914C05C9010796DD
:102DC00097FD079623E0959587952A95E1F7209141
:102DD000490530914A05829FA001839F500D929F23
:102DE000500D112470E060E08091640590916505BC
:102DF0000C9441280E943C28FB0101900020E9F737
:102E00003197AF01461B570BDC01ED91FC9102801D
:102E1000F381E02D19942F923F924F925F926F921F
:102E20007F928F929F92AF92BF92CF92DF92EF925A
:102E3000FF920F931F93CF93DF93CDB7DEB7C655A5
:102E4000D1090FB6F894DEBF0FBECDBFE090DE0211
:102E5000F090DF0221E0E216F10409F401C132E052
:102E6000E316F10409F46CC5EF2809F0B1C00E9423
:102E7000DA161092DD021092DC0288E290E0909364
:102E800052058093510584E190E09093540580931E
:102E9000530581E090E090935805809357059093F7
:102EA0005605809355058093590580935A0564E62D
:102EB00072E085E495E00E94FC1688E00E940A0713
:102EC0008130910541F49093D5028093D402109201
:102ED000D3021092D2028AE00E940A078130910543
:102EE00041F49093D3028093D2021092D5021092B3
:102EF000D40289E00E940A078130910509F09DC043
:102F00009093D1028093D0028091D4029091D50207
:102F1000019779F4EE24E394F12C01E110E02CE325
:102F200030E04FE050E060E270E085E495E00E9420
:102F30008D0E88E290E09093520580935105909316
:102F400054058093530581E090E090935805809359
:102F500057059093560580935505809359058093A6
:102F60005A056BE672E085E495E00E94FC168091BC
:102F7000D2029091D302019779F4EE24E394F12CDC
:102F800001E110E02CE330E043E250E060E270E069
:102F900085E495E00E948D0E8091D0029091D1023F
:102FA0000197A1F48091D4029091D50281309105CE
:102FB00009F048C09093DF028093DE021092D502A0
:102FC0001092D4021092D1021092D0020E945E148C
:102FD0008091DC029091DD02883E53E0950708F075
:102FE000D0C40AE010E0B8010E94E7267B0168E245
:102FF00070E00E94E815C701B8010E94E7266FE261
:1030000070E00E94E815CA5ADF4F0FB6F894DEBF91
:103010000FBECDBFDF91CF911F910F91FF90EF9029
:10302000DF90CF90BF90AF909F908F907F906F90E8
:103030005F904F903F902F9008951092D102109280
:10304000D00262CF8091D2029091D302019709F011
:10305000BDCF82E090E09093DF028093DE02B6CF96
:103060000E94DA168091080290910902833091053E
:1030700009F093C161E08BE10E94330761E08CE1CC
:103080000E94330761E08DE10E943307E7E9F3E036
:10309000FCA3EBA327EC33E03CAB2BAB47E254E0C3
:1030A0005AAB49ABA7EC4A2EA3E05A2E4A0139018C
:1030B0005F01D12CC12CF501EC0DFD1D8081882311
:1030C000E1F0C601880F991FF301E80FF91F408155
:1030D00051814F5F5F4F880D991DDC016D917C918F
:1030E000665F7F4FEE24E394F12C04E010E028E0CB
:1030F00030E085E495E00E94810FBFEFCB1ADB0A38
:10310000ECE0CE16D104B9F6FCE0AF0EB11C28E11C
:10311000620E711C38E1830E911C4A145B0449F65F
:1031200080917B00877F80937B0081E480937C008B
:1031300080917A00806480937A0080917A0086FD85
:10314000FCCF6091780070917900072E000C880BFD
:10315000990B0E94C52520E030EC4FE754E40E9413
:103160001B2520E030E048EC52E40E947A266B01F7
:103170007C0120E030E0A9010E94752620E030E0CB
:1031800040E05FE387FDBDC1C701B6010E94AA24EC
:103190000E948D257093DB026093DA02EE24E394A3
:1031A000F12C02E010E02CE130E04EE350E085E449
:1031B00095E00E94810F4090350550903605609053
:1031C0003705709038056091060270910702072E4E
:1031D000000C880B990B0E94C525A30192010E9447
:1031E000AA240E948D256B0170930702609306024A
:1031F0008090310590903205A0903305B090340551
:103200006091040270910502072E000C880B990B47
:103210000E94C525A50194010E94AA240E948D2523
:1032200070930502609304029601235031092B37F5
:103230003105F0F077FA709477F870944092350584
:103240005092360560923705709238054FE7C416E4
:10325000D1041CF02EE7C22ED12C52E0C516D104A9
:103260001CF492E0C92ED12CD0920702C092060223
:103270009B01235031092B333105D0F0B7FAB094BC
:10328000B7F8B0948092310590923205A092330540
:10329000B09234056F33710514F06EE370E0623064
:1032A000710514F462E070E070930502609304020B
:1032B0000091060210910702B8016E5F7F4FC801AE
:1032C0000297C0900402D0900502DCA6CBA6A6010E
:1032D0004E5F5F4F960122503109C0903105D0906A
:1032E0003205E0903305F0903405CDA6DEA6EFA6BA
:1032F000F8AAC0903505D0903605E0903705F090DB
:103300003805CDA2DEA2EFA2F8A6E090DC02F09094
:10331000DD02FAA6E9A66B01770FEE08FF082396F7
:10332000CCAEDDAEEEAEFFAE23976A01550FEE08D0
:10333000FF082796CCAEDDAEEEAEFFAE2797690153
:10334000330FEE08FF082B96CCAEDDAEEEAEFFAE2F
:103350002B976801012E000CEE08FF082F96CCAECB
:10336000DDAEEEAEFFAE2F97CBA4DCA40D2C000C8F
:10337000EE08FF086396CCAEDDAEEEAEFFAE63970F
:103380006C01990FEE08FF086796CCAEDDAEEEAE8D
:10339000FFAE6797312C212C18C28230910551F471
:1033A00061E08BE10E94330761E08CE10E9433070A
:1033B00060E069CE61E08130910519F0009731F449
:1033C00060E08BE10E94330760E0EFCF019609F0E7
:1033D0005DCE0E94DA16F0925805E0925705F09201
:1033E0005605E092550581E08093590580935A0572
:1033F0000AE010E0109352050093510584E190E03B
:10340000909354058093530562E772E085E495E05C
:103410000E94FC1610935205009351058EE190E036
:10342000909354058093530561E872E085E495E03C
:103430000E94FC16C090DC02D090DD020D2C000C26
:10344000EE08FF08F7FE42C06DE285E495E00E94B9
:10345000BB0D22273327A9012C193D094E095F090D
:1034600019A2BE016F5D7F4F7B011AE0812E912C66
:10347000A12CB12CCA01B901A50194010E947824A4
:10348000605DD7016E937D01211531054105510520
:1034900089F7E114F10429F0B70185E495E00E9471
:1034A000FC160E945E1468E873E180E090E00E94E0
:1034B000B7071092DF021092DE0283E090E0909353
:1034C0000902809308020E940B17E0CDA701960124
:1034D00019A2FE01B1967F01BAE08B2E912CA12C8E
:1034E000B12CCA01B901A50194010E947824605D44
:1034F000D7016E937D01211531054105510589F7ED
:10350000C8CFC701B6010E94A92442CE2BA13CA17D
:10351000245F3F4F3CA32BA349A95AA9485E5F4FA4
:103520005AAB49AB6BA97CA9685E7F4F7CAB6BAB98
:10353000CAA0CC2009F42ECFE9A4FAA4F092DD02AF
:10354000E092DC02CDA4DEA4EFA4F8A8C09231057D
:10355000D0923205E0923305F0923405CDA0DEA082
:10356000EFA0F8A4C0923505D0923605E092370559
:10357000F09238058091DA029091DB0298012E5F7B
:103580003F4F281739070CF45BC0025011094C96C5
:10359000801791070CF454C08BA59CA5CC97079776
:1035A00008F04EC00E94EE2326E030E040E050E0FC
:1035B0000E94462463507109810991090E94C52522
:1035C0006B017C0120E030E040E85FE30E941625BB
:1035D000882309F497C1C0923505D0923605E09250
:1035E0003705F092380520E030E040E85FEB60916D
:1035F00035057091360580913705909138050E9408
:10360000162581110CC080E090E0A0E0B0EC809322
:10361000350590933605A0933705B0933805809112
:10362000310590913205A0913305B0913405B05821
:103630008093310590933205A0933305B093340500
:103640008091040290910502CE970CF479C02FB7B7
:10365000F8948091880490918904A0918A04B09193
:103660008B042FBF4091D6025091D7026091D802AF
:103670007091D902841B950BA60BB70B40910002E9
:103680005091010260910202709103028417950724
:10369000A607B70708F443C12FB7F89480918804B0
:1036A00090918904A0918A04B0918B042FBF8093DC
:1036B000D6029093D702A093D802B093D90280E4A7
:1036C00090E0909307028093060280E290E090934E
:1036D00005028093040210920002109201021092DF
:1036E00002021092030280E090E0A0E0B0E4809338
:1036F000350590933605A0933705B0933805809330
:10370000310590933205A0933305B0933405809131
:103710000802909109020197909309028093080290
:10372000019641F467E772E085E495E00E94FC169B
:103730000E94DA1668EE73E080E090E00E94B7071E
:10374000C0900402D0900502E0900602F0900702BB
:10375000560132E0A31AB10801E010E025E030E0A4
:10376000A501B70185E495E00E945410B7016F5F91
:103770007F4F25E030E0A50185E495E00E945410DC
:10378000B7016150710925E030E0A50185E495E0BD
:103790000E94541041E0C41AD108B7016E5F7F4FF8
:1037A00023E030E0A60185E495E00E945410B701C3
:1037B0006250710923E030E0A60185E495E00E94A3
:1037C000541004CCDAA0D1108FC1CBA0DCA0C20C65
:1037D000D31CDEAECDAED601BC91BAA3BB2309F497
:1037E0006EC15101AA0CBB1CE9A9FAA9EA0DFB1D87
:1037F00080809180B40162507109072E000C880B03
:10380000990B0E94C5256B017C01B401665F7F4F57
:10381000072E000C880B990B0E94C5252B013C013B
:10382000EBA9FCA9EA0DFB1DA080B180B501625097
:103830007109072E000C880B990B0E94C5256DABF2
:103840007EAB8FAB98AF23966CAD7DAD8EAD9FAD4B
:1038500023970E94C5259B01AC01C701B6010E94B8
:10386000162518168CF067966CAD7DAD8EAD9FADAC
:1038700067970E94C5259B01AC01E1E0EAA3C30163
:10388000B2010E94752687FD1AA227966CAD7DAD08
:103890008EAD9FAD27970E94C5259B01AC016DA9F8
:1038A0007EA98FA998AD0E9416251816FCF0B501C7
:1038B0006A5F7F4F072E000C880B990B0E94C5256D
:1038C00069AF7AAF8BAF9CAF2B966CAD7DAD8EADF3
:1038D0009FAD2B970E94C5259B01AC0169AD7AADC8
:1038E0008BAD9CAD0E94752687FF58C01AA2E7C019
:1038F0004DA55EA56FA578A970584DA75EA76FA7C7
:1039000078ABD5C080E090E0A0E0B0E480933505CE
:1039100090933605A0933705B093380564CE109286
:103920003505109236051092370510923805109221
:103930003105109232051092330510923405E7CE0E
:103940000E94DA1684E190E090935205809351052D
:10395000909354058093530581E090E0909358052F
:10396000809357059093560580935505809359058C
:1039700080935A0560E972E085E495E00E94FC16A8
:1039800025CB6EE972E084E994E00E94FC166CECB1
:1039900072E084E994E00E94FC1635CB6AA16623AC
:1039A00009F48DC02F966CAD7DAD8EAD9FAD2F9778
:1039B0000E94C5254B015C01A70196010E94A92424
:1039C0006B017C0120E030E0A9010E9475261816E9
:1039D00024F0F7FAF094F7F8F094A3019201C501EE
:1039E000B4010E94A9244B015C0120E030E0A90150
:1039F0000E947526181624F0B7FAB094B7F8B09460
:103A0000A5019401C701B6010E94162587FF02C0D7
:103A10004601570163966CAD7DAD8EAD9FAD63974A
:103A20000E94C5256B017C012DA93EA94FA958AD67
:103A30000E94A9242B013C0120E030E0A9010E9452
:103A40007526181624F077FA709477F8709429ADDB
:103A50003AAD4BAD5CADC701B6010E94A9246B0124
:103A60007C0120E030E0A9010E947526181624F0A0
:103A7000F7FAF094F7F8F094A7019601C301B201A8
:103A80000E94162587FF02C073016201A7019601FB
:103A9000C501B4010E94162587FF2ACF2DA13EA1A2
:103AA0004FA158A550582DA33EA34FA358A7ADAD85
:103AB000BEAD1C92E9A5FAA53196FAA7E9A7FFEFDA
:103AC0002F1A3F0A2CE02216310409F07BCE4BA1BD
:103AD0005CA14B5B534009F019CDC9A4DAA4D09284
:103AE000DD02C092DC022ECD8BA19CA18B5B9340AA
:103AF000A1F322CD85ED8093BC00809121039091AC
:103B00002203A0912303B09124030796A11DB11DA8
:103B100023E0B695A795979587952A95D1F720919B
:103B2000BC0024FD03C010926A0308954091210354
:103B3000509122036091230370912403452B462B5F
:103B4000472B69F30097A105B10541F02AE22A95B8
:103B5000F1F700C00197A109B109E1CF80912003DD
:103B60000C94BA111F920F920FB60F9211242F933B
:103B70003F938F939F93AF93BF93809188049091CD
:103B80008904A0918A04B0918B043091870423E0CA
:103B9000230F2D3758F50196A11DB11D20938704E1
:103BA0008093880490938904A0938A04B0938B0433
:103BB00080918C0490918D04A0918E04B0918F041B
:103BC0000196A11DB11D80938C0490938D04A09348
:103BD0008E04B0938F04BF91AF919F918F913F91CD
:103BE0002F910F900FBE0F901F90189526E8230F6E
:103BF0000296A11DB11DD2CF1F920F920FB60F9248
:103C000011240BB60F922F933F934F935F936F93B3
:103C10007F938F939F93AF93BF93EF93FF9384E929
:103C200094E00E945F08FF91EF91BF91AF919F9147
:103C30008F917F916F915F914F913F912F910F9055
:103C40000BBE0F900FBE0F901F9018951F920F92F2
:103C50000FB60F9211240BB60F922F938F939F9351
:103C6000EF93FF93E091A404F091A5048081E0918B
:103C7000AA04F091AB0482FD1DC090818091AD0437
:103C80008F5F8F732091AE04821741F0E091AD04F5
:103C9000F0E0EC56FB4F958F8093AD04FF91EF91D0
:103CA0009F918F912F910F900BBE0F900FBE0F9091
:103CB0001F9018958081F2CF1F920F920FB60F922E
:103CC00011240BB60F922F933F934F935F936F93F3
:103CD0007F938F939F93AF93BF93EF93FF938091C5
:103CE000B900887F803609F44DC008F040C08832A2
:103CF00009F4A9C028F5803109F49DC0C8F48823CF
:103D000009F4FBC0883009F496C0FF91EF91BF9190
:103D1000AF919F918F917F916F915F914F913F9163
:103D20002F910F900BBE0F900FBE0F901F90189504
:103D3000883109F488C0803241F78093690314C048
:103D4000803409F49DC040F48033B9F38833E9F638
:103D50008093690385ECB0C0803509F485C088354F
:103D600009F496C0883489F60E947A1DCECF88392E
:103D700009F48CC038F5883729F050F4883611F0F2
:103D8000803719F683E080936A031092680357C066
:103D9000883809F47BC0803919F0803809F0B5CF34
:103DA00080916803803208F071C0E091680381E07F
:103DB0008E0F809368038091BB00F0E0E85BFC4FBE
:103DC00080833DC0803B39F0E0F4803A09F479C04B
:103DD000883A09F09ACF84E080936A0310924703EF
:103DE00010924603E0919303F0919403199580910A
:103DF000460381110FC081E0809346031092260391
:103E000009C0803C09F4A6CF883C09F4A3CF883BC5
:103E100009F07BCFE091470381E08E0F8093470349
:103E2000F0E0EA5DFC4F80818093BB0090914703F6
:103E30008091460329C080918F038093BB0085EC5D
:103E40008093BC0062CF90918E0380918D03981770
:103E500058F5E0918E0381E08E0F80938E03F0E0A1
:103E6000E359FC4F8081E9CFE0918E0381E08E0F12
:103E700080938E038091BB00F0E0E359FC4F808378
:103E800090918E0380918D039817C8F285E8D8CF62
:103E9000E0918E0381E08E0F80938E038091BB00B2
:103EA000F0E0E359FC4F808380916C0381115CCF7B
:103EB00081E080936B0384EA8093BC0010926A03D4
:103EC00024CF85EC8093BC0010926A038091680334
:103ED000803230F4E0916803F0E0E85BFC4F108240
:103EE0006091680370E0E0919103F091920388E49F
:103EF00093E019951092680308CF1092690334CFAC
:103F0000CF92DF92EF92FF92E4E9F4E01382128203
:103F100048EE53E060E070E0448355836683778326
:103F200088E192E09183808385EC90E09587848797
:103F300084EC90E09787868780EC90E0918B808B73
:103F400081EC90E0938B828B82EC90E0958B848B5C
:103F500086EC90E0978B868B118E128E138E148ECA
:103F6000A9E3B5E013961C921E92129714964D93F6
:103F70005D936D937C9317978AE292E011969C93E0
:103F80008E93E5E4F5E01382128220E830E0358379
:103F9000248380E490E0978386833187208793870A
:103FA0008287168A158614861786168681E0858B89
:103FB000848B2FEF3FEF338B228B318B208B878BC2
:103FC000108E128E118E8CE392E091838083148E7A
:103FD000138EB68FA58F10A2178E8FEF84A385A3A3
:103FE00086A387A38CE380A780E89AE1A6E0B0E0EF
:103FF00085AB96ABA7ABB0AF80EA96E8A1E0B0E0A6
:1040000081AF92AFA3AFB4AF80E586AF17AE0E9489
:10401000EE2326E0C22ED12CE12CF12CA701960133
:104020000E94462463507109810991090E94C525A7
:104030006093350570933605809337059093380566
:104040000E94EE23A70196010E9446246350710945
:10405000810991090E94C52560933105709332054D
:104060008093330590933405FF90EF90DF90CF90CD
:104070000895789484B5826084BD84B5816084BDE0
:1040800085B5826085BD85B5816085BD80916E00F6
:10409000816080936E001092810080918100826027
:1040A0008093810080918100816080938100809164
:1040B00080008160809380008091B1008460809353
:1040C000B1008091B00081608093B0008091910038
:1040D0008260809391008091910081608093910033
:1040E000809190008160809390008091A100826017
:1040F0008093A1008091A10081608093A1008091B4
:10410000A00081608093A000809121018260809353
:104110002101809121018160809321018091200102
:1041200081608093200180917A00846080937A007E
:1041300080917A00826080937A0080917A00816019
:1041400080937A0080917A00806880937A00109240
:10415000C10060E087E30E94610760E088E00E94A0
:10416000610760E08AE00E94610760E089E00E94E8
:10417000610761E08BE10E94610761E08CE10E94D0
:10418000610761E08DE10E946107CFE261E08C2F61
:104190000E94610761E089EF8C0F0E946107CF5F89
:1041A000C633A1F7E091A404F091A50482E08083D6
:1041B000E091A004F091A1041082E091A204F0919A
:1041C000A3048FEC80831092AC04E091A804F091DA
:1041D000A90486E08083E091A604F091A704808181
:1041E00080618083E091A604F091A70480818860BB
:1041F0008083E091A604F091A70480818068808389
:10420000E091A604F091A70480818F7D8083809146
:10421000640590916505892B11F10E94DA162091B1
:104220004B0530914C058091490590914A0521320A
:1042300031050CF04AC0B9016052710977FF02C024
:104240006F5F7F4F759567958357910997FD01962D
:1042500000E210E023E730E04AEF56E049C0209149
:104260004B0530914C05C901079697FD0796B3E0C1
:1042700095958795BA95E1F72091490530914A05C2
:10428000AC01429FC001439F900D529F900D11249D
:104290000E9417279093650580936405892B09F088
:1042A000BCCFCAE9DBE0FE016491662339F084E902
:1042B00094E00E9481082196892BA9F76CEC72E0AA
:1042C00084E994E00E94FC16FFCFB90160547109A3
:1042D00077FF02C06F5F7F4F759567958255910993
:1042E00097FD019600E410E022E530E04AED58E049
:1042F000959587950E94671082E08093670580916D
:10430000620590916305892B09F417C18CE38093B2
:1043100066051092960310929503109291041092E4
:1043200090040E949C1189EE97E0909394038093EF
:1043300093038AEE97E09093920380939103809188
:104340006D0587FD1EC061E00E94610761E08091FC
:104350006D050E94330761E070E080E090E00E940C
:10436000B70760E080916D050E9433076AE070E056
:1043700080E090E00E94B70761E080916D050E94A7
:1043800033078091620590916305892B09F494C1EC
:1043900020917A0530917B0540917C0550917D05F7
:1043A00060E074E284EF90E00E94782420513109AB
:1043B0004109510956954795379527952093B8009F
:1043C00064E086EF96E00E94471360914B056150D0
:1043D00085E495E00E94FC1364E082EF96E00E9481
:1043E00047138091670564E1813009F460E185E459
:1043F00095E00E94FC1364E08EEE96E00E94471365
:104400008FE8809382058091490590914A05803814
:10441000910509F06AC180914B0590914C0580345B
:10442000910509F072C180916705813009F45BC183
:104430008FEC80938205C2E16AED85E495E00E94ED
:10444000FC136C2F85E495E00E94FC1361E885E481
:1044500095E00E94FC136091820585E495E00E943E
:10446000FC1369ED85E495E00E94FC1380916705DB
:1044700061EF813009F462E285E495E00E94FC136B
:1044800066E088EE96E00E94471380916205909165
:104490006305892B09F43DC120917E0530917F058C
:1044A000409180055091810560E074E284EF90E0D6
:1044B0000E947824205131094109510956954795A8
:1044C000379527952093B800A7E2B4E087ECC82E73
:1044D00083E0D82E67E973E090E080E011E050E0DF
:1044E00040E0D0E0C0E030E020E07D01E40EF51EC9
:1044F000F701D183C0837601E40EF51EF7019183A5
:1045000080837B01E20EF31EF70110832F5F3F4F84
:1045100029964E5F5F4F2C30310539F75896F8E1F8
:10452000CF0ED11C0596645F7F4F84319105B9F69B
:104530000E940B170E94EE08FBCF61E080916B0593
:104540000E94610761E080916C050E946107809183
:104550006B05082E000C990BFC01ED5FF34FE49105
:10456000F0E0EE0FFF1FE153F44F259134913093AB
:10457000730520937205FC01E75BF34FE491E09330
:10458000780580916C05082E000C990BFC01ED5FFD
:10459000F34FE491F0E0EE0FFF1FE153F44FA591CC
:1045A000B491B0937505A0937405FC01E75BF34FDC
:1045B000E491E09379058C91E82BEC938091600570
:1045C00090916105892B09F434C0CFB7F89480919C
:1045D0009003811127C0E8E3FCE08491EEE7FCE062
:1045E0009491E82FF0E0EE0FFF1FEB54F44FA591EC
:1045F000B491EC91E92321F461E085E30E94330753
:1046000061E085E30E9461078CB580618CBD8CB54B
:1046100080648CBD61E084E30E94610761E083E314
:104620000E946107809190038F5F80939003CFBFBA
:1046300086CE61E0809169050E94610761E080910A
:104640006A050E94610780916905082E000C990B8C
:10465000FC01ED5FF34FE491F0E0EE0FFF1FE1533B
:10466000F44F2591349130936F0520936E05FC0132
:10467000E75BF34FE491E093760580916A05082E9D
:10468000000C990BFC01ED5FF34FE491F0E0EE0FAD
:10469000FF1FE153F44FA591B491B0937105A0931E
:1046A0007005FC01E75BF34FE491E09377058C9193
:1046B000E095E823EC9343CE8091600590916105ED
:1046C000892B31F080918305909184050E947D0BA8
:1046D000E0917405F0917505908180917905809540
:1046E000892380836DCE8FE9A4CE8036910569F44D
:1046F00080914B0590914C05409739F48091670566
:10470000813029F08FEA80938205C2E095CE80E166
:10471000FACFE0917405F09175058081909179054B
:10472000892B8083D1CE8CE392E0909346058093D1
:1047300045058091640590916505009711F00C94F2
:10474000B32708958F929F92AF92BF92CF92DF923C
:10475000EF92FF92CF93DF93EC01688179818A8198
:104760009B81611571058105910521F464E279ED64
:104770008BE597E02DE133EF41E050E00E944624C5
:1047800049015A019B01AC01A7EAB1E40E946524EA
:104790006B017C01ACEEB4EFA50194010E9473247F
:1047A000C60ED71EE81EF91EF7FE06C081E0C81A25
:1047B000D108E10880E8F80AC882D982EA82FB823F
:1047C000C701B6019F77DF91CF91FF90EF90DF9007
:1047D000CF90BF90AF909F908F9008958F929F92AF
:1047E000AF92BF92CF92DF92EF92FF9260910A0256
:1047F00070910B0280910C0290910D026115710570
:104800008105910521F464E279ED8BE597E02DE1D6
:1048100033EF41E050E00E94462449015A019B01D8
:10482000AC01A7EAB1E40E9465246B017C01ACEE07
:10483000B4EFA50194010E947324C60ED71EE81E92
:10484000F91EF7FE06C081E0C81AD108E10880E829
:10485000F80AC0920A02D0920B02E0920C02F09287
:104860000D02C701B6019F77FF90EF90DF90CF90C8
:10487000BF90AF909F908F90089560930A027093BD
:104880000B0280930C0290930D020895052E97FB66
:104890001EF400940E945D2457FD07D00E947824E6
:1048A00007FC03D04EF40C945D2450954095309550
:1048B00021953F4F4F4F5F4F08959095809570958C
:1048C00061957F4F8F4F9F4F08950E949A24A59F17
:1048D000900DB49F900DA49F800D911D11240895FB
:1048E000B7FF0C9465240E946524821B930B0895E6
:1048F000A1E21A2EAA1BBB1BFD010DC0AA1FBB1FE4
:10490000EE1FFF1FA217B307E407F50720F0A21B55
:10491000B30BE40BF50B661F771F881F991F1A94C2
:1049200069F760957095809590959B01AC01BD01EC
:10493000CF010895A29FB001B39FC001A39F700D46
:10494000811D1124911DB29F700D811D1124911D97
:1049500008955058BB27AA270E94C1240C943B26D7
:104960000E942D2638F00E94342620F039F49F3F13
:1049700019F426F40C942A260EF4E095E7FB0C9427
:104980002426E92F0E944C2658F3BA1762077307B2
:104990008407950720F079F4A6F50C946E260EF4A2
:1049A000E0950B2EBA2FA02D0B01B90190010C013F
:1049B000CA01A0011124FF27591B99F0593F50F457
:1049C000503E68F11A16F040A22F232F342F4427AF
:1049D000585FF3CF469537952795A795F0405395A7
:1049E000C9F77EF41F16BA0B620B730B840BBAF077
:1049F0009150A1F0FF0FBB1F661F771F881FC2F7E2
:104A00000EC0BA0F621F731F841F48F487957795F5
:104A10006795B795F7959E3F08F0B0CF9395880FAF
:104A200008F09927EE0F9795879508950E94002624
:104A300008F481E008950E942F250C943B260E94E3
:104A4000342658F00E942D2640F029F45F3F29F0CB
:104A50000C94242651110C946F260C942A260E9443
:104A60004C2668F39923B1F3552391F3951B550B0D
:104A7000BB27AA2762177307840738F09F5F5F4F31
:104A8000220F331F441FAA1FA9F335D00E2E3AF070
:104A9000E0E832D091505040E695001CCAF72BD088
:104AA000FE2F29D0660F771F881FBB1F26173707D9
:104AB0004807AB07B0E809F0BB0B802DBF01FF270B
:104AC00093585F4F3AF09E3F510578F00C9424269E
:104AD0000C946F265F3FE4F3983ED4F38695779568
:104AE0006795B795F7959F5FC9F7880F911D9695C4
:104AF000879597F90895E1E0660F771F881FBB1F20
:104B0000621773078407BA0720F0621B730B840BCC
:104B1000BA0BEE1F88F7E09508950E9494256894DB
:104B2000B1110C946F2608950E94542688F09F5767
:104B300098F0B92F9927B751B0F0E1F0660F771FC1
:104B4000881F991F1AF0BA95C9F714C0B13091F0B7
:104B50000E946E26B1E008950C946E26672F782F80
:104B60008827B85F39F0B93FCCF38695779567957C
:104B7000B395D9F73EF490958095709561957F4FE8
:104B80008F4F9F4F0895E89409C097FB3EF490958E
:104B90008095709561957F4F8F4F9F4F9923A9F016
:104BA000F92F96E9BB279395F695879577956795A5
:104BB000B795F111F8CFFAF4BB0F11F460FF1BC0E9
:104BC0006F5F7F4F8F4F9F4F16C0882311F096E97C
:104BD00011C0772321F09EE8872F762F05C066232A
:104BE00071F096E8862F70E060E02AF09A95660FE3
:104BF000771F881FDAF7880F9695879597F908959C
:104C0000990F0008550FAA0BE0E8FEEF16161706DD
:104C1000E807F907C0F012161306E407F50798F045
:104C2000621B730B840B950B39F40A2661F0232B5E
:104C3000242B252B21F408950A2609F4A140A695DA
:104C40008FEF811D811D089597F99F6780E870E0BF
:104C500060E008959FEF80EC089500240A941616F2
:104C6000170618060906089500240A94121613065A
:104C7000140605060895092E0394000C11F48823E8
:104C800052F0BB0F40F4BF2B11F460FF04C06F5F04
:104C90007F4F8F4F9F4F089557FD9058440F551FDA
:104CA00059F05F3F71F04795880F97FB991F61F0AE
:104CB0009F3F79F087950895121613061406551F25
:104CC000F2CF4695F1DF08C0161617061806991F91
:104CD000F1CF86957105610508940895E894BB2786
:104CE00066277727CB0197F908950E94002608F4DC
:104CF0008FEF08950E948D260C943B260E942D264E
:104D000038F00E94342620F0952311F00C942426CC
:104D10000C942A2611240C946F260E944C2670F3C2
:104D2000959FC1F3950F50E0551F629FF001729F50
:104D3000BB27F00DB11D639FAA27F00DB11DAA1F5F
:104D4000649F6627B00DA11D661F829F2227B00DAC
:104D5000A11D621F739FB00DA11D621F839FA00D37
:104D6000611D221F749F3327A00D611D231F849F87
:104D7000600D211D822F762F6A2F11249F575040DE
:104D80009AF0F1F088234AF0EE0FFF1FBB1F661F59
:104D9000771F881F91505040A9F79E3F510580F022
:104DA0000C9424260C946F265F3FE4F3983ED4F3D2
:104DB000869577956795B795F795E7959F5FC1F7C6
:104DC000FE2B880F911D9695879597F9089597FB6F
:104DD000072E16F4009407D077FD09D00E94032710
:104DE00007FC05D03EF4909581959F4F08957095EE
:104DF00061957F4F0895EE0FFF1F881F8BBF0790AF
:104E0000F691E02D1994AA1BBB1B51E107C0AA1F04
:104E1000BB1FA617B70710F0A61BB70B881F991F5B
:104E20005A95A9F780959095BC01CD0108950F93EF
:104E30001F93CF93DF938230910510F482E090E0CE
:104E4000E0918705F091880530E020E0B0E0A0E037
:104E5000309799F42115310509F44AC0281B390B04
:104E600024303105D8F58A819B816115710589F15E
:104E7000FB0193838283FE0111C040815181028135
:104E8000138148175907E0F04817590799F410970C
:104E900061F012960C93129713961C933296CF01E1
:104EA000DF91CF911F910F91089500938705109383
:104EB0008805F4CF2115310551F04217530738F01A
:104EC000A901DB019A01BD01DF01F801C1CFEF01AA
:104ED000F9CF9093880580938705CDCFFE01E20F2F
:104EE000F31F819391932250310939832883D7CFBF
:104EF0002091850530918605232B41F420911002E5
:104F000030911102309386052093850520910E0281
:104F100030910F022115310541F42DB73EB7409174
:104F2000120250911302241B350BE0918505F0917C
:104F30008605E217F307A0F42E1B3F0B281739074D
:104F400078F0AC014E5F5F4F2417350748F04E0FE5
:104F50005F1F5093860540938505819391939FCF62
:104F6000F0E0E0E09CCFCF93DF930097E9F0FC0105
:104F7000329713821282A0918705B0918805ED01C6
:104F800030E020E01097A1F420813181820F931F3F
:104F900020918505309186052817390709F061C0F1
:104FA000F0938605E0938505DF91CF910895EA019E
:104FB000CE17DF07E8F54A815B819E014115510557
:104FC000B1F7E901FB83EA8349915991C40FD51FD9
:104FD000EC17FD0761F4808191810296840F951F83
:104FE000E90199838883828193819B838A83F0E09E
:104FF000E0E012968D919C9113970097B9F52D9151
:105000003C911197CD010296820F931F2091850547
:10501000309186052817390739F6309751F51092E7
:10502000880510928705B0938605A0938505BCCFAF
:10503000D383C28340815181840F951FC817D9073C
:1050400061F44E5F5F4F88819981480F591F5183EA
:1050500040838A819B81938382832115310509F0E6
:10506000B0CFF0938805E09387059ECFFD01DC016A
:10507000C0CF13821282D7CF81E090E0F8940C94D5
:105080004828DC0101C06D9341505040E0F708957D
:1050900016E0CEE6D6E000E006C0802FFE010E94BA
:1050A000FB262196011DCF36D10780E00807A9F71E
:0450B000F894FFCFA2
:1050B400E80300002000400003000100000000009D
:1050C40089058000000000008108EB071808CE085D
:1050D400490827083B080000000031120412E515B6
:1050E400A206FD11EA11DB1100000000BB0DEB0765
:1050F400E5157411C60AA206601038105410481041
:10510400C810A206810B8F15360A7F0A810F640F1F
:10511400EC0E8D0E20537461727400202045786962
:105124007400202020202047616D65204F76657231
:1051340000202020596F75722053636F72653A0006
:105144002020546573656B6B75726C657200372033
:105154005365676D656E7420646973706C61792042
:1051640069C3A7696E20686174616CC4B1207361FE
:1051740079C4B120676972696C6469000D0A000022
:00000001FF
