:020000040000FA
:100000000C946F060C94A0060C94A0060C94A00609
:100010000C94A0060C94A0060C94A0060C94A006C8
:100020000C94A0060C94A0060C94A0060C94A006B8
:100030000C94A0060C94A0060C94A0060C94A006A8
:100040000C94A0060C94A0060C94A0060C94A00698
:100050000C94A0060C94A0060C94A0060C94F81D19
:100060000C94A0060C946C1E0C94421E0C94A006DA
:100070000C94A0060C94A0060C94A0060C94A00668
:100080000C94A0060C94A0060C94A0060C94A00658
:100090000C94A0060C94A0060C94A0060C94A21E2E
:1000A0000C94A0060C94A0060C94A0060C94A00638
:1000B0000C94A0060C94A0060C94A0060C94A00628
:1000C0000C94A0060C94A0060C94A0060C94A00618
:1000D0000C94A0060C94A0060C94A0060C94A00608
:1000E0000C94A0060C9418080C94FC060C948F1524
:1000F0000C94C1160C94A2060C9438100C94EA06C9
:100100000C94EA110C947F0A0C9401070C94C70616
:100110000C9460100C948D0E0C94C8100C949B16CB
:100120000C94BA230C9447160C94810F0C94741100
:100130000C94C60A0C94D6060C94EE060C943B085C
:100140000C9406070C9402070C945D160C94EB07B4
:100150000C9449080C94360A0C94BB0D0C94E907D6
:100160000C94EC0E0C9404120C9448100C94311264
:100170000C94F8060C94D3060C94CB060C941F1622
:100180000C94E5150C94810B0C94E0060C94F40689
:100190000C9454100C94C7160C9481080C94640FA2
:1001A0000C94E6060C9427080C9489160C94771688
:1001B0000C94FD110C94DC060C94CE080C94EA0708
:1001C0000C94C1060C94A9160C94BF160C94DB1168
:1001D0000C94CF060C94C61F00000000003E5B4F3D
:1001E0005B3E3E6B4F6B3E1C3E7C3E1C183C7E3C97
:1001F000181C577D571C1C5E7F5E1C00183C1800A5
:10020000FFE7C3E7FF0018241800FFE7DBE7FF3034
:10021000483A060E2629792926407F050507407FA2
:1002200005253F5A3CE73C5A7F3E1C1C08081C1C15
:100230003E7F14227F22145F5F005F5F06097F010B
:100240007F006689956A606060606094A2FFA294F6
:1002500008047E040810207E201008082A1C0808C4
:100260001C2A08081E101010100C1E0C1E0C303812
:100270003E3830060E3E0E06000000000000005F13
:1002800000000007000700147F147F14242A7F2A2F
:1002900012231308646236495620500008070300F1
:1002A000001C2241000041221C002A1C7F1C2A083D
:1002B000083E0808008070300008080808080000A0
:1002C00060600020100804023E5149453E00427F14
:1002D000400072494949462141494D331814127F63
:1002E0001027454545393C4A494931412111090703
:1002F0003649494936464949291E00001400000084
:100300004034000000081422411414141414004155
:1003100022140802015909063E415D594E7C121112
:10032000127C7F494949363E414141227F4141414A
:100330003E7F494949417F090909013E41415173C5
:100340007F0808087F00417F41002040413F017F36
:10035000081422417F404040407F021C027F7F04FE
:1003600008107F3E4141413E7F090909063E415147
:10037000215E7F09192946264949493203017F0137
:10038000033F4040403F1F2040201F3F4038403F38
:10039000631408146303047804036159494D43004E
:1003A0007F4141410204081020004141417F040285
:1003B000010204404040404000030708002054541C
:1003C00078407F28444438384444442838444428FA
:1003D0007F385454541800087E090218A4A49C784D
:1003E0007F0804047800447D40002040403D007FA9
:1003F0001028440000417F40007C047804787C0889
:100400000404783844444438FC182424181824245C
:1004100018FC7C08040408485454542404043F4441
:10042000243C4040207C1C2040201C3C4030403C70
:1004300044281028444C9090907C4464544C4400D0
:100440000836410000007700000041360800020134
:100450000204023C2623263C1EA1A161123A404020
:10046000207A38545455592155557941225454789D
:1004700042215554784020545579400C1E52721236
:1004800039555555593954545459395554545800BF
:1004900000457C410002457D420001457C407D12C3
:1004A00011127DF0282528F07C5455450020545425
:1004B0007C547C0A097F4932494949323A444444D0
:1004C0003A324A4848303A4141217A3A424020780B
:1004D000009DA0A07D3D4242423D3D4040403D3C0C
:1004E00024FF2424487E4943662B2FFC2F2BFF0931
:1004F00029F620C0887E0903205454794100004425
:100500007D413048484A32384040227A007A0A0A0F
:10051000727D0D19317D2629292F28262929292682
:1005200030484D4020380808080808080808382FC7
:1005300010C8ACBA2F102834FA00007B0000081451
:100540002A142222142A14085500550055AA55AA27
:1005500055AAFF55FF55FF000000FF00101010FFC7
:1005600000141414FF001010FF00FF1010F010F022
:10057000141414FC001414F700FF0000FF00FF1413
:1005800014F404FC141417101F10101F101F14145F
:10059000141F00101010F0000000001F10101010A9
:1005A0001F10101010F010000000FF10101010109D
:1005B00010101010FF10000000FF140000FF00FFDB
:1005C00000001F10170000FC04F414141710171477
:1005D00014F404F40000FF00F71414141414141499
:1005E000F700F7141414171410101F101F1414140C
:1005F000F4141010F010F000001F101F0000001F76
:1006000014000000FC140000F010F01010FF10FFA8
:10061000141414FF141010101F00000000F010FF3D
:10062000FFFFFFFFF0F0F0F0F0FFFFFF0000000021
:1006300000FFFF0F0F0F0F0F3844443844FC4A4AA5
:100640004A347E02020606027E027E02635549415A
:10065000633844443C04407E201E2006027E020291
:1006600099A5E7A5991C2A492A1C4C7201724C30A5
:100670004A4D4D303048784830BC625A463D3E497C
:100680004949007E0101017E2A2A2A2A2A44445F20
:10069000444440514A444040444A51400000FF0114
:1006A00003E080FF000008086B6B08361236243622
:1006B000060F090F06000018180000001010003087
:1006C00040FF0101001F01011E00191D1712003C0F
:1006D0003C3C3C0000000000000103070F1F3F7F6F
:1006E0000080C0E0F0F8FCFEDB40A4A62EAF2000A6
:1006F000A1C8D300408DAED580A8000060000000E6
:100700000000000000000000000000E00000000009
:1007100000000000000000000001E00000000000F8
:10072000000000000000000001F0000000000000D8
:100730000000000000000003F000000000000000C6
:1007400000000000000007F00000000000000000B2
:10075000000000000007F80000000000000000009A
:10076000000000000FF800000003C0007E00000140
:10077000E0007F0FF800000003C000FE000001E071
:1007800000FFEFF800000003C000FE000001E000E1
:10079000FFFFF800000003C000F00000000F007F22
:1007A000FE7FC0000003C000F00000000F003FFE0D
:1007B0007FF83FF1FBCFFCFEF3BC3DEFE01FFE7F77
:1007C000FF7FFBFFDFFEFEFFBC3DEFE01FC6FFFF2C
:1007D0007FFBFFDFFEFEFFBC3DEFE00FE3C7FE78CF
:1007E0007BC3DE1EF0FFBC3DEF0007FF87FC787B7C
:1007F000C3DE1EF0F83C3DEF0001FFFFF0007BC3BD
:10080000C01EF0F03C3DEF0001F37FE03FFBC3CFA3
:10081000FEF0F03C3DEF0003E33F807FFBC3DFFED3
:10082000F0F03C3DEF0007E73C00787BC3DE1EF0B4
:10083000F03C3DEF0007FFBE00787BC3DE1EF0F00A
:100840003C3DEF0007FFFE00787BC3DE1EF0F03C6E
:100850003DEF000FFFFE007FFBFFDFFEF0F03FFDEE
:10086000EFE00FFFFF007FFBFFDFFEF0F03FFDEF4B
:10087000E00FF9FF003E79F9CF9EF0F01F3DE7E071
:100880001FF1FF0000000000000000000000001F3A
:1008900080FF007FFFFFFFFFFFFFFFFFFFE01C0067
:1008A0007F007FFFFFFFFEB46D888D18E000001F02
:1008B000007FFFFFFFFE95AD7DB577E000000F00E4
:1008C0007FFFFFFFFEA5AD9D8D19E0000006007FB4
:1008D000FFFFFFFEB5ADEDB57EE0000000000001BA
:1008E0008000000000000000000003800000000005
:1008F000000000000007C000000000000000000031
:1009000007C00000000000000000000FC000000051
:100910000000000000001FE00000000000000000D8
:10092000001FE00000000000000000003FE00000A9
:10093000000000000000003FF00000000000000088
:1009400000007FF0000000000000001FF87FF000B2
:100950000000000000003FFE7FF0000000000000EB
:10096000003FFF7FF0000000000000001FFFFBE0E1
:10097000000000000000000FFFF9FFC000000000B1
:1009800000000FFFF9FFF800000000000007FFF172
:10099000FFFF00000000000003FC73FFFF80000069
:1009A00000000001FE3FFFFF80000000000000FF8C
:1009B0001E0FFF000000000000007FFE1FFC000073
:1009C00000000000003FFFFFF800000000000000F2
:1009D0000FDFFFE0000000000000001F19FFC00053
:1009E0000000000000003F3CFF000000000000008D
:1009F000007E7CF800000000000000007FFE7C000C
:100A000000000000000000FFFFFC000000000000EC
:100A10000000FFFFFE0000000000000000FFFFFEDE
:100A20000000000000000001FFEFFE0000000000D9
:100A3000000001FFCFFE0000000000000003FF07E0
:100A4000FE0000000000000003FC07FE00000000A4
:100A500000000003F003FE00000000000000018021
:100A600000FE000000000000000000007E0000000A
:100A7000000000000000003E000000000000000038
:100A800000000C000000000000078000FC000003D4
:100A9000C0000000078001FC000003C00000000748
:100AA0008001FC000003C0000000078001E000009E
:100AB000001E000000078001E00000001E007FE330
:100AC000F79FF9FDE7787BDFC0FFF7FFBFFDFDFF74
:100AD000787BDFC0FFF7FFBFFDFDFF787BDFC0F055
:100AE000F787BC3DE1FF787BDE00F0F787BC3DE196
:100AF000F0787BDE0000F787803DE1E0787BDE0068
:100B00007FF7879FFDE1E0787BDE00FFF787BFFD81
:100B1000E1E0787BDE00F0F787BC3DE1E0787BDE4A
:100B200000F0F787BC3DE1E0787BDE00F0F787BCA2
:100B30003DE1E0787BDE00FFF7FFBFFDE1E07FFBFA
:100B4000DFC0FFF7FFBFFDE1E07FFBDFC07CF3F319
:100B50009F3DE1E03E7BCFC00000000000000000B0
:100B6000000000FFFFFFFFFFFFFFFFFFFFC0FFFFD1
:100B7000FFFFFD68DB111A31C0FFFFFFFFFD2B5A9D
:100B8000FB6AEFC0FFFFFFFFFD4B5B3B1A33C0FF6B
:100B9000FFFFFFFD6B5BDB6AFDC053534431333015
:100BA00036206261C59F6C61746D612068617461FB
:100BB00073C4B1210000002100240027002A002D69
:100BC000003000330001010000040107010A0100A8
:100BD000002200250028002B002E003100340002E6
:100BE000010000050108010B010000200023002680
:100BF0000029002C002F0032000001000003010634
:100C00000109010505050507050808080802020293
:100C1000020A0A0808040404040101010101010197
:100C2000010303030303030303040707070C0C0C6E
:100C30000C0C0C0C0C020202020606060606060646
:100C4000060B0B0B0B0B0B0B0B01021020200808E3
:100C5000102040102040800201020108040201011E
:100C60000204081020408080402010080402018007
:100C7000040201804020100804020108040201015E
:100C80000204081020408001020408102040800067
:100C9000000A0B02090C0D0E0807030401000000F6
:100CA0000000000000000000000000000000000044
:100CB0000000000000000000000000121110000001
:100CC0000000000000000000000000000000000024
:100CD00000000000002200FF2100C61FBA231124DB
:100CE0001FBECFEFD1E2DEBFCDBF00E00CBF13E0EF
:100CF000A0E0B2E0E2E0F1E500E00BBF02C0079047
:100D00000D92A230B107D9F725E0A2E0B3E001C00F
:100D10001D92AC3BB207E1F716E0CEE6D6E000E06C
:100D200006C021970109802FFE010E942227CD369F
:100D3000D10780E00807A9F70E9460200C946F2873
:100D40000C94000008958150823108F05AC0E82FB9
:100D5000F0E08827E155F94F8F4F0C942227CF06FA
:100D6000D306C106C706CB060107D606DC06E00699
:100D7000E606EA06EE06F406F8060107FC06020798
:100D80000607809180008F7780938000089580917E
:100D900080008F7DF9CF80918000877FF5CF84B56B
:100DA0008F7784BD089584B58F7DFBCF8091B0008F
:100DB0008F778093B00008958091B0008F7DF9CF38
:100DC000809190008F77809390000895809190009B
:100DD0008F7DF9CF80919000877FF5CF8091A00023
:100DE0008F778093A00008958091A0008F7DF9CF28
:100DF0008091A000877FF5CF809120018F7780932D
:100E000020010895809120018F7DF9CF80912001EC
:100E1000877FF5CFCF93DF93282F30E0F901E1579B
:100E2000F34F8491F901E75BF34FD491F901ED5F42
:100E3000F34FC491CC23A1F081110E94A306EC2FA3
:100E4000F0E0EE0FFF1FE751F44FA591B491EC9144
:100E5000ED2381E090E009F480E0DF91CF910895E7
:100E600080E090E0FACF1F93CF93DF93282F30E0FC
:100E7000F901E157F34F8491F901E75BF34FD49106
:100E8000F901ED5FF34FC491CC23A9F0162F811126
:100E90000E94A306EC2FF0E0EE0FFF1FE153F44F8A
:100EA000A591B4918FB7F894EC91111108C0D09529
:100EB000DE23DC938FBFDF91CF911F910895DE2B4E
:100EC000F8CFCF93DF9390E0FC01E75BF34F2491E1
:100ED0008D5F934FFC0184918823D1F090E0880FBF
:100EE000991FFC01EB54F44FA591B491FC01E1531F
:100EF000F44FC591D49161110EC09FB7F8948C91B5
:100F0000E22FE0958E238C932881E223E8839FBF14
:100F1000DF91CF9108958FB7F894EC91E22BEC9389
:100F20008FBFF6CF3FB7F8948091C3049091C4046B
:100F3000A091C504B091C60426B5A89B05C02F3F5B
:100F400019F00196A11DB11D3FBFBA2FA92F982FEF
:100F50008827BC01CD01620F711D811D911D42E0EA
:100F6000660F771F881F991F4A95D1F708958F92B2
:100F70009F92AF92BF92CF92DF92EF92FF924B017E
:100F80005C010E9492076B017C010E9492076C1920
:100F90007D098E099F09683E734081059105A8F37C
:100FA00021E0821A9108A108B10888EEC80E83E0FA
:100FB000D81EE11CF11C81149104A104B10429F78D
:100FC000FF90EF90DF90CF90BF90AF909F908F9069
:100FD000089508950895AF92BF92CF92DF92EF9255
:100FE000FF920F931F93CF93DF936C017B018B01D3
:100FF000040F151FEB015E01AE18BF08C017D10723
:1010000059F06991D601ED91FC910190F081E02DAC
:10101000C6011995892B79F7C501DF91CF911F91F1
:101020000F91FF90EF90DF90CF90BF90AF90089519
:10103000FC01538D448D252F30E0842F90E0821BDE
:10104000930B541710F0CF96089501970895FC0163
:10105000918D828D981761F0A28DAE0FBF2FB11DBB
:101060005D968C91928D9F5F9F73928F90E0089513
:101070008FEF9FEF0895FC01918D828D981731F0CD
:10108000828DE80FF11D858D90E008958FEF9FEF21
:101090000895FC01918D228D892F90E0805C9F4FF7
:1010A000821B91098F73992708958BEC94E00E941D
:1010B000490821E0892B09F420E0822F0895FC01E2
:1010C000A48DA80FB92FB11DA35ABF4F2C91848DA9
:1010D00090E001968F739927848FA689B7892C9306
:1010E000A089B1898C91837080648C93938D848D59
:1010F000981306C00288F389E02D80818F7D80835C
:101100000895EF92FF920F931F93CF93DF93EC011B
:1011100081E0888F9B8D8C8D98131AC0E889F9899E
:10112000808185FF15C09FB7F894EE89FF896083A1
:10113000E889F98980818370806480839FBF81E022
:1011400090E0DF91CF911F910F91FF90EF90089564
:10115000F62E0B8D10E00F5F1F4F0F731127E02E3F
:101160008C8D8E110CC00FB607FCFACFE889F98977
:10117000808185FFF5CFCE010E945F08F1CFEB8D16
:10118000EC0FFD2FF11DE35AFF4FF0829FB7F8944B
:101190000B8FEA89FB8980818062CFCFCF93DF9369
:1011A000EC01888D8823B9F0AA89BB89E889F9897F
:1011B0008C9185FD03C0808186FD0DC00FB607FCB4
:1011C000F7CF8C9185FFF2CF808185FFEDCFCE01E7
:1011D0000E945F08E9CFDF91CF91089580E090E011
:1011E000892B29F00E94550881110E94000080E09F
:1011F00090E0892B49F080E090E0892B29F00E9453
:10120000000081110E94000080E090E0892B49F0ED
:1012100080E090E0892B29F00E94000081110E945B
:10122000000080E090E0892B49F080E090E0892B7D
:1012300029F00E94000081110C9400000895EF92A3
:10124000FF920F931F93CF93DF93EC01EC80FD800F
:101250006E157F050CF070C057FF04C0240F351FBA
:1012600050E040E08E819F81FA01E20FF31F8E175C
:101270009F071CF49C01241B350B121613060CF05F
:101280005BC0922F842F8695869586958E9DD00182
:101290008F9DB00D11246A0F7B1FAF8DB8A1A60FD3
:1012A000B71F477049F188E0841B482F682F70E012
:1012B000FB01E052F94FE491281708F063C0621B6C
:1012C00071092FEF30E002C0359527956A95E2F756
:1012D000E2230130110539F0B0F10230110561F55A
:1012E0008C91E82702C08C91E82BEC93941720F1A5
:1012F0002C813D81A20FB31FE92FE41BE83078F069
:101300000230110521F58E2F9C9190959C932C8194
:101310003D81A20FB31F88508830B0F7E770EE23ED
:1013200059F0F0E0E852F94FE49101301105F9F07D
:1013300010F10230110519F1DF91CF911F910F913A
:10134000FF90EF900895E0958C91E823CECF81E057
:101350000115110509F480E081959E2F8C932C8155
:101360003D81A20FB31F98509830C0F7D7CF8C9112
:10137000E82BEC93E1CFE0958C91E823FACF8C91A8
:10138000E827F7CF0130110509F4ADCFE0F20230C4
:10139000110509F4A5CFAE0DBF1DAECF0F931F935E
:1013A000CF93DF9377FF04C0260F371F70E060E014
:1013B000DC011496CD91DC91FB01E20FF31FCE17F7
:1013C000DF071CF49E01261B370B121613064CF583
:1013D000FA0157FD3796A3E0F595E795AA95E1F751
:1013E000EC9FD001ED9FB00DFC9FB00D11246A0F52
:1013F0007B1FDC015F96ED91FC91E60FF71F4770B4
:10140000552781E090E001C0880F4A95EAF7482F00
:101410000130110559F0A8F02E0F3F1F02301105C1
:10142000E1F0DF91CF911F910F9108952E0F3F1F93
:10143000E217F307B1F38191DF011197842B8C93AD
:10144000F7CF80952E0F3F1FE217F30751F39191CD
:10145000DF01119798239C93F7CFE217F30709F365
:101460008191DF01119784278C93F7CF0F931F93FE
:10147000FA01DC0156964C9156974230E9F0433020
:10148000A1F1413061F514964D915C91DA01AE1BEA
:10149000BF0BFD01E21BF30B77FD0BC0DC011696C1
:1014A0004D915C916417750724F4AB01BF010E9454
:1014B000CE091F910F91089514964D915C91DA0118
:1014C000A61BB70BBD0161507109DC0116964D9149
:1014D0005C91DA01AE1BBF0BFD01E21BF30B77FD44
:1014E000E8CFAF010E941F09E4CF16964D915C91A1
:1014F000DA01A61BB70BBD0161507109CDCF0F9367
:101500001F93FA01DC0156964C9156974230A9F090
:10151000433091F1413019F514964D915C91DA0107
:10152000AE1BBF0BFD013197F7FD04C0AB01BF013E
:101530000E941F091F910F91089514964D915C917F
:10154000DA01A61BB70BBD01DC0116964D915C912B
:10155000DA01AE1BBF0BFD013197621B730BF7FD68
:10156000E9CFDC0116964D915C91E417F50714F76D
:10157000AF010E94CE09DECF16964D915C91DA0143
:10158000A61BB70BBD01621B730BCECFFC0177FD11
:1015900064C080859185681779070CF05EC057FD9F
:1015A0005CC082859385481759070CF056C0868920
:1015B0008230B1F0833029F1813041F4848195810A
:1015C000841B950BAB01BC016150710921303105C1
:1015D00009F108F443C02230310509F463C00895CD
:1015E00084819581DC01A61BB70BBD016150710997
:1015F00086819781DC01A41BB50BAD0141505109D7
:10160000E5CF86819781861B970BBA01AC014150CB
:101610005109DCCFCA0157FD0796A3E09595879540
:10162000AA95E1F7A481B5818A9F90018B9F300D27
:101630009A9F300D1124620F731F078CF0A1E02DCB
:10164000E60FF71F4770552721E030E001C0220F59
:101650004A95EAF78081822B80830895CA0157FD5D
:10166000079633E0959587953A95E1F7A481B58182
:101670008A9F90018B9F300D9A9F300D1124620F2D
:10168000731F078CF0A1E02DE60FF71F4770552759
:1016900081E090E001C0880F4A95EAF7809590813B
:1016A0008923DACFCA0157FD079623E095958795E0
:1016B0002A95E1F7A481B5818A9F90018B9F300D17
:1016C0009A9F300D1124620F731F078CF0A1E02D3B
:1016D000E60FF71F4770552721E030E001C0220FC9
:1016E0004A95EAF780818227B7CF08958EBD000022
:1016F0000DB407FEFDCF8EB508958CBD9DBD089538
:101700000895FC016370668B848195812681378101
:10171000613039F0633029F09187808733872287E1
:101720000895318720879387828708952F923F926B
:101730004F925F926F927F928F929F92AF92BF92E1
:10174000CF92DF92EF92FF920F931F93CF93DF938D
:10175000CDB7DEB76A970FB6F894DEBF0FBECDBF28
:101760009A8F898F7A8369834A01D22E18870F83D3
:101770003701BC2CDC0159962D913C915A972115CB
:10178000310509F015C118968D919C91199768172C
:1017900079070CF0D7C11A968D919C91481759077B
:1017A0000CF0D0C14C2C512CB6E0CB9E600D711DBD
:1017B00011247C876B87161617060CF0C3C1EA2D1F
:1017C000F0E0FA87E98793E0EE0FFF1F9A95E1F7C3
:1017D000F88BEF87CF01840F951F181619060CF0B0
:1017E000B1C1A98DBA8D58968C91811104C0BFEA00
:1017F000BD1508F4D394A98DBA8DED91FC91119784
:101800000284F385E02DCD011995B5E0DB9EC00182
:101810001124E981FA81FC83EB83312C212C9C017A
:1018200028523E4F388F2F8B4A2D50E05E8B4D8BC8
:10183000EF89F88DE20DF31D44919E828D82D12CAB
:10184000C12C69817A81620D731D7A8B698B842F1B
:1018500090E09C8B8B8BE98DFA8DA081B18140FF4C
:1018600082C0F1E0BF126FC0AF126DC01C96ED9147
:10187000FC912F813885A4014C0D5D1D69897A8901
:10188000898D9A8D1995EB89FC89F595E7954E2FF1
:101890005FEFC51AD50A6D817E818D899E89680F9B
:1018A000791F7E836D8398E0C916D10481F6AFEF6E
:1018B0002A1A3A0AEB81FC81E40DF51DFC83EB83C7
:1018C000F5E02F16310409F0B3CF2F8138852615A6
:1018D0003705B9F0A98DBA8DED91FC91B1E0BB123D
:1018E00057C0AB1255C069817A816B5F7F4F00880A
:1018F000F189E02D830128E030E0A401898D9A8DE3
:101900001995A98DBA8DED91FC9111970688F789EB
:10191000E02DCD016A960FB6F894DEBF0FBECDBFA5
:10192000DF91CF911F910F91FF90EF90DF90CF90BB
:10193000BF90AF909F908F907F906F905F904F90EF
:101940003F902F9019941E96ED91FC91EF80F884B2
:1019500009851A8592014D815E816B817C81898D1B
:101960009A8D199590CF2F8138852615370509F462
:101970008ACF31E0B31207C0A31205C01C96ED91C7
:10198000FC91930178CF1E96ED91FC917301E0CF0D
:101990006B857C85641975090684F785E02D7301D4
:1019A0000F8518899201A401898D9A8D1995A9CF67
:1019B000F90134969491329745915491D91AB7E030
:1019C000DB9E400D511D1124F901259134913C8B72
:1019D0002B8BFA0125903490FA013296749031964F
:1019E0003491398B329664903196449041E04C1595
:1019F00018F04A1508F07FC0662D062C000C770BF6
:101A00007C836B83842D042C000C990B9E838D8327
:101A1000A98DBA8DED91FC9111970284F385E02D8B
:101A2000CD011995512CD12CC12CEA2DF0E0FA876B
:101A3000E9872B2D30E03C872B87A401440D511DF5
:101A400047FC5A95588F4F8B69817A81660D711DBD
:101A500067FC7A957E876D877989C71608F051CF24
:101A60002C2D30E04D815E81420F531FA985BA8530
:101A70004A9FC0014B9F900D5A9F900D1124FC016D
:101A8000E80DF91DF88BEF87852D612C4F89588D56
:101A9000420F531F5E8B4D8B671408F050C04424D7
:101AA0004394480E877041F4C1010196EB89FC898B
:101AB000E20DF31DD4901C01D7FE19C0A98DBA8D7B
:101AC000ED91FC91662D70E0B1E0BB1219C0AB1234
:101AD00017C02D853E85620F731F0484F585E02DA8
:101AE0002F8138854D895E89898D9A8D1995DD0CF8
:101AF0006394842DD1CF1E821D821C821B8288CFCD
:101B00004B815C81640F751FAB85BC856A9FC001EA
:101B10006B9F900D7A9F900D112469817A81680FD7
:101B2000791F0684F785E02DEF80F88409851A85F2
:101B30009D014F855889898D9A8D1995D8CF570C5D
:101B4000C3948ACF6A960FB6F894DEBF0FBECDBF9E
:101B5000DF91CF911F910F91FF90EF90DF90CF9089
:101B6000BF90AF909F908F907F906F905F904F90BD
:101B70003F902F9008958F929F92AF92CF92EF92C5
:101B8000FF920F931F93CF93DF93EC01262F898D44
:101B90009A8D009709F051C06A30D1F41D861C86D9
:101BA0008D8948E0849F900111248E859F85820F46
:101BB000931F9F878E8781E090E0DF91CF911F91E7
:101BC0000F91FF90EF90CF90AF909F908F900895DE
:101BD0006D3089F3CC88AD888F898823C1F08C85DE
:101BE0009D8536E0C39E800D911D11244885598541
:101BF0004817590764F44E855F851D861C8638E0BA
:101C0000A39EC0011124840F951F9F878E87EA88A9
:101C1000FB88088919894E855F856C857D85CE0195
:101C20000E94960B2C898C859D8546E0249F800D13
:101C3000911D11249D878C87BECF6A3069F41D8663
:101C40001C86FC013896E4912D898E859F85E29F44
:101C5000800D911D1124ADCF6D3009F4ACCFFC0186
:101C600034963491631708F4A6CF3296E491E617C0
:101C700008F4A1CFFC01329685909490462F431B27
:101C8000342F47E0349F800C911C1124F4013296CC
:101C900034913196E4913323A9F1EE2399F1CC8864
:101CA000F4013596E491AD884F89442301F10E2E5D
:101CB000000CFF0BE30FF11DCE9EA001CF9E500D37
:101CC00011246C857D85460F571F688579856417BB
:101CD00075076CF44E855F851D861C86FC01389661
:101CE000E491AE9E400D511D11245F874E87EA8816
:101CF000FB88088919894E855F856C857D85CE01B5
:101D00000E94960BF4013496E4912C898C859D8574
:101D1000E29F800D911D11248DCF6F927F928F9243
:101D20009F92AF92BF92CF92DF92EF92FF920F936A
:101D30001F93CF93DF93EC016B015A0139014801E6
:101D4000E881F9810284F385E02D1995E881F98114
:101D50000288F389E02D87019301A501B601CE0128
:101D60001995A501480D591D41505109E881F98186
:101D70000288F389E02D9301B601CE011995E8811F
:101D8000F9810088F189E02D9401A501B601CE0109
:101D90001995C60CD71CB60161507109E881F9810B
:101DA0000088F189E02D9401A501CE011995E88103
:101DB000F9810688F789E02DCE01DF91CF911F913F
:101DC0000F91FF90EF90DF90CF90BF90AF909F90DA
:101DD0008F907F906F9019946F927F928F929F92C5
:101DE000AF92BF92CF92DF92EF92FF920F931F9329
:101DF000CF93DF935C01EB016A0149013801870150
:101E0000DC01ED91FC916217730719F564167506F4
:101E10002CF0962D872D3A01C92ED82E9601261921
:101E200037092F5F3F4F048CF58DE02DA301BE01D4
:101E3000C5011995DF91CF911F910F91FF90EF9000
:101E4000DF90CF90BF90AF909F908F907F906F90DA
:101E500008954615570591F42617370724F0892D64
:101E60004B01C22FD82F9E01281939092F5F3F4FF0
:101E7000068CF78DE02DA601B401DACF0284F3853C
:101E8000E02D1995D501ED91FC910488F589E02D9F
:101E900083019401A601BE01C5011995D501ED91FB
:101EA000FC910688F789E02DC501DF91CF911F9144
:101EB0000F91FF90EF90DF90CF90BF90AF909F90E9
:101EC0008F907F906F901994EF92FF920F931F93D2
:101ED000DC011A960D911C911B9718962D913C913F
:101EE0001997ED91FC9100A0F1A1E02D7B0150E04C
:101EF00040E070E060E019951F910F91FF90EF9026
:101F000008954F925F926F927F928F929F92AF92BD
:101F1000BF92CF92DF92EF92FF920F931F93CF93D6
:101F2000DF936C012B015A0139014801DC01ED916D
:101F3000FC910284F385E02D1995E201640C751C77
:101F4000D601ED91FC91C615D7055CF40088F189A6
:101F5000E02D87019401A501BE01C60119952196C6
:101F6000EFCF0688F789E02DC601DF91CF911F9151
:101F70000F91FF90EF90DF90CF90BF90AF909F9028
:101F80008F907F906F905F904F9019948F929F9257
:101F9000AF92BF92CF92DF92EF92FF920F931F9377
:101FA000CF93DF93EC015B014A016901E881F9817C
:101FB0000284F385E02D199595012C0D3D1D2150CE
:101FC0003109E881F9810488F589E02D78018401DF
:101FD000A401B501CE011995E881F9810688F78938
:101FE000E02DCE01DF91CF911F910F91FF90EF90E7
:101FF000DF90CF90BF90AF909F908F9019948F9269
:102000009F92AF92BF92CF92DF92EF92FF920F9387
:102010001F93CF93DF93EC015B014A0169017801C3
:10202000E881F9810284F385E02D1995C80CD91C4B
:10203000860101501109E881F9810488F589E02DB4
:102040009501A401B501CE011995E881F9810688B1
:10205000F789E02DCE01DF91CF911F910F91FF9075
:10206000EF90DF90CF90BF90AF909F908F9019949A
:10207000EF92FF920F931F93DC01ED91FC9100A072
:10208000F1A1E02D19951F910F91FF90EF90089508
:102090000F931F93DC01ED91FC91068CF78DE02DE1
:1020A00019951F910F9108950F931F93DC01ED91E6
:1020B000FC91048CF58DE02D19951F910F910895D9
:1020C000DC01ED91FC910084F185E02D19943F92A3
:1020D0004F925F926F927F928F929F92AF92BF9238
:1020E000CF92DF92EF92FF920F931F93CF93DF93E4
:1020F0005C017B014A016901390187E0680E711CAE
:1021000093E0759467949A95E1F72B01400E511E68
:1021100010E000E0312CD0E0C0E0CE0187709927BC
:10212000330C892B59F4FE0183E0F595E7958A95E8
:10213000E1F7E00FF11FE80DF91D349037FE0AC0FA
:1021400021E030E0A701B5016C0F7D1F88E795E025
:102150000E9460102196CC16DD06F9F68FEFE81A82
:10216000F80A060D171DE414F504A9F6DF91CF91C6
:102170001F910F91FF90EF90DF90CF90BF90AF90A5
:102180009F908F907F906F905F904F903F900895B9
:102190002F923F924F925F926F927F928F929F9277
:1021A000AF92BF92CF92DF92EF92FF920F931F9365
:1021B000CF93DF9300D000D0CDB7DEB73C016A01EA
:1021C0003E832D83FC82EB825801A41AB50AB7FE28
:1021D00003C0B194A194B1088D809E80861A970A9D
:1021E00097FE03C09194819491088A149B045CF03B
:1021F000902F812F0D811E819D838E839C2D8D2D8F
:102200006B01692F782F0C151D055CF09D818E8167
:102210007E836D83692F782F902F812F8601C92EA1
:10222000D82E1601201A310A2B012D813E81421A27
:10223000530A57FE03C0519441945108710137FE6F
:1022400003C03FEFE31AF30AF594E7948D819E8172
:10225000861797075CF5A1E0B0E0BA83A983C016A2
:10226000D1064CF1D301ED91FC910484F585E02D6C
:102270002B813C81A8016D817E818A149B041CF016
:102280004D815E81B801C3011995E418F508F7FE88
:102290000AC02D813E8189819A81280F391F3E8392
:1022A0002D83E20CF31C0F5F1F4FD9CF2FEF3FEFB1
:1022B0003A832983D4CF26960FB6F894DEBF0FBE9B
:1022C000CDBFDF91CF911F910F91FF90EF90DF90E5
:1022D000CF90BF90AF909F908F907F906F905F90C6
:1022E0004F903F902F900895089520917D03260FE1
:1022F0003327331F21323105ECF42091A103FC0177
:1023000090E080E0243069F082E00895A0917D03A0
:102310002191AC01435A5C4FA40FB52FB11D2C93F2
:102320000196861798F380917D03680F60937D0373
:1023300080E0089581E008951092A10381E08093E8
:10234000A3031092A20361E084E10E94330761E0DD
:1023500085E10E943307E9EBF0E080818E7F808386
:1023600080818D7F808388E48093B80085E48093AA
:10237000BC000895CF93DF9391E090935C03882392
:10238000B9F0C091B800D091BA008091BC008A7BAE
:102390008093BC0060E084E10E94330760E085E147
:1023A0000E9433070E949C11D093BA00C093B800DA
:1023B000DF91CF910895E091CD038091CC03E81790
:1023C00030F4F0E0E95CFC4F808190E008958FEFFD
:1023D0009FEF08959091CD038091CC032FEF3FEFB5
:1023E000981748F4E92FF0E0E95CFC4F208130E0D9
:1023F0009F5F9093CD03C90108958091CC03909184
:10240000CD03891B990B0895CF92DF92EF92FF9233
:102410000F931F93CF93DF937C01CB018A0120910F
:10242000CA04222389F0EB016B01C40ED51ECC1522
:10243000DD0569F06991D701ED91FC910190F08182
:10244000E02DC7011995F3CF642F0E947511C801C3
:10245000DF91CF911F910F91FF90EF90DF90CF9080
:102460000895CF93DF931F92CDB7DEB76983209194
:10247000CA042223F9F02091C704203258F021E049
:1024800030E0FC013383228390E080E00F90DF9105
:10249000CF9108958091C804E82FF0E0E95EFC4FE9
:1024A000998190838F5F8093C8048093C70481E0F3
:1024B00090E0ECCF61E0CE0101960E947511F7CF5C
:1024C000CF92DF92EF92FF920F931F93CF93DF9300
:1024D000D091C70481E0D13208F09CC0C091C904FA
:1024E0000E9492076B017C018091A10381116CC055
:1024F00082E08093A10381E08093A3038FEF809318
:10250000A0031092C503D093C403A7E1B3E0E4EAAB
:10251000F3E080E0D8138DC01092C6038091C6030B
:10252000CC0FC82BC093C6038091A203813009F061
:1025300084C01092A2030E9492076B017C018091DB
:10254000C6038093BB008091580390915903A091DA
:102550005A03B0915B03892B8A2B8B2BA1F00E942D
:102560009207009158031091590320915A0330911A
:102570005B036C197D098E099F0906171707280749
:10258000390708F442C08091BC0083FDD8CF85ECA8
:102590008093BC000E9492076B017C018091A10393
:1025A000823009F44CC08091A0038F3F09F469C0C8
:1025B0008091A003803209F466C08091A00380332B
:1025C00009F463C084E026C08091580390915903B8
:1025D000A0915A03B0915B03892B8A2B8B2B09F4B2
:1025E00083CF0E94920700915803109159032091C4
:1025F0005A0330915B036C197D098E099F090617F8
:1026000017072807390708F06FCF809157030E94FA
:10261000BA1185E01092C8041092C7041092CA043F
:10262000DF91CF911F910F91FF90EF90DF90CF90AE
:1026300008959D9191938F5F6DCF85EEA9CF809185
:10264000580390915903A0915A03B0915B03892BD1
:102650008A2B8B2B09F4A2CF0E949207009158037A
:102660001091590320915A0330915B036C197D0935
:102670008E099F09061717072807390708F08ECF1C
:10268000C4CF80E0C7CF82E0C5CF83E0C3CFEF9255
:10269000FF920F931F93CF93DF937C01C62F8091FE
:1026A000950590919605009709F459C020919905D8
:1026B00031E03093CA042093C9041092C8041092E8
:1026C000C704DC01ED91FC910190F081E02D60E008
:1026D00019958701EE24E394F12CD1E0C15080914B
:1026E000950590919605CF3F91F1B0E2EB16F1047C
:1026F000D8F00E94601280919505909196052091E6
:102700009905D093CA042093C9041092C80410926A
:10271000C704DC01ED91FC910190F081E02D60E0B7
:102720001995EE24E394F12C8091950590919605EE
:10273000F8016491DC01ED91FC910190F081E02DB4
:102740001995BFEFEB1AFB0A0F5F1F4FC7CFDF9141
:10275000CF911F910F91FF90EF900C946012E09138
:10276000A505F091A60590818091AB058095892300
:1027700080838701C15008F438C0F801849120910A
:10278000930530919405232B29F00E94760B0F5F5F
:102790001F4FF0CF28E030E040E8E091A105F09134
:1027A000A2059091A905582F5423D9F05081952B5B
:1027B0009083E091A305F091A40590815091AA0522
:1027C000952B9083E091A305F091A4055081909101
:1027D000AA05909595239083469521503109E9F6F5
:1027E000D6CF508190959523E3CFDF91CF911F9164
:1027F0000F91FF90EF9008951F93CF93DF93EC011B
:102800008D8D9E8D009721F1162F29A131E03093F7
:10281000CA042093C9041092C8041092C704DC01B2
:10282000ED91FC910190F081E02D60E019958D8D86
:102830009E8DDC01ED91FC910190F081E02D612FE6
:1028400019958D8D9E8DDF91CF911F910C94601203
:10285000ADA5BEA59C918BA9809589238C938B8D6A
:102860009C8D892B31F0862FDF91CF911F910C9495
:10287000760B28E030E080E8A9A5BAA599A9462FF3
:102880004823C1F04C91942B9C93ABA5BCA59C9183
:102890004AA9942B9C93ABA5BCA54C919AA9909561
:1028A00094239C9386952150310931F7DF91CF9184
:1028B0001F9108954C9190959423E6CFDF92EF926B
:1028C000FF920F931F93CF93DF9380919505909183
:1028D0009605892B09F498C02091AD053091AE057D
:1028E0004091AF055091B00560E074E284EF90E054
:1028F0000E949F242051310941095109569547955D
:10290000379527952093B80065E085ED9CE00E94FF
:10291000471360917C05615088E795E00E94FC13A5
:1029200020917E0530917F05C901079697FD079696
:1029300033E0959587953A95E1F720917C053091A4
:102940007D05829F8001839F100D929F100D1124A1
:10295000C0919705D0919805809195059091960525
:102960000C0F1D1F009709F48FC02091990531E0CD
:102970003093CA042093C9041092C8041092C7046B
:10298000DC01ED91FC910190F081E02D60E419955E
:10299000EE24E394F12CDD24D3948091950590915D
:1029A00096050C171D0709F446C0B0E2EB16F104BA
:1029B000D8F00E9460128091950590919605209123
:1029C0009905D092CA042093C9041092C8041092A9
:1029D000C704DC01ED91FC910190F081E02D60E4F1
:1029E0001995EE24E394F12C80919505909196052C
:1029F0006991DC01ED91FC910190F081E02D199538
:102A0000BFEFEB1AFB0AC9CF809193059091940513
:102A1000892B31F08091B6059091B7050E947D0B0E
:102A2000E091A705F091A80590818091AC05809573
:102A30008923808369CF0E946012809195059091CF
:102A40009605892B09F461C02091B1053091B2053A
:102A50004091B3055091B40560E074E284EF90E0DA
:102A60000E949F24205131094109510956954795EB
:102A7000379527952093B800DF91CF911F910F9143
:102A8000FF90EF90DF900895E091A505F091A605E5
:102A900080819091AB05892B80830C171D0769F20B
:102AA00089912091930530919405232B19F00E9470
:102AB000760BF3CF28E030E040E8E091A105F091FB
:102AC000A2059091A905582F5423D9F05081952B38
:102AD0009083E091A305F091A40590815091AA05FF
:102AE000952B9083E091A305F091A40550819091DE
:102AF000AA05909595239083469521503109E9F6D2
:102B0000CCCF508190959523E3CFE091A705F0912C
:102B1000A80580819091AC05892B8083ADCF1F9350
:102B2000CF93DF93EC01162F8D8D9E8D892BB1F104
:102B30002DA93EA94FA958AD60E074E284EF90E062
:102B40000E949F242051310941095109569547950A
:102B5000379527952093B80066EA111167EACE01F0
:102B60000E94FC138D8D9E8D892B41F129AD3AADCC
:102B70004BAD5CAD60E074E284EF90E00E949F2476
:102B800020513109410951095695479537952795A7
:102B90002093B800DF91CF911F9108958B8D9C8D6C
:102BA000892B21F08EAD9FAD0E947D0BEFA5F8A97A
:102BB00090818CA9809589238083CECFEFA5F8A939
:102BC00080819CA9892B8083E5CF90E080E00895E7
:102BD0008F929F92AF92BF92CF92DF92EF92FF922D
:102BE0000F931F93CF93DF934B012FEF821A920A1B
:102BF0005B0122E0A20EB11C6B0123E0C20ED11CCE
:102C00007B0124E0E20EF11C8B010B5F1F4FEB01F7
:102C100026968A30910508F0C0C09B01FC018827E8
:102C2000EB5EF94E8F4F0C9422271F1647165D1648
:102C3000771689169B16A916BF16C116C71660E02F
:102C4000822F0E94330760E0882D0E94330760E0E6
:102C50008A2D0E94330760E08C2D0E94330760E0CC
:102C60008E2D0E94330760E0802F0E94330761E0C1
:102C70008C2FDF91CF911F910F91FF90EF90DF90FC
:102C8000CF90BF90AF909F908F900C94330761E0EE
:102C9000822F0E94330760E0882D0E94330760E096
:102CA0008A2D0E94330761E08C2D0E94330761E07A
:102CB0008E2D0E94330761E0D7CF60E0822F0E9403
:102CC000330760E0882D0E94330761E08A2D0E945F
:102CD000330760E08C2D0E94330760E08E2D0E9448
:102CE000330761E0802F0E94330760E0C1CF60E0CE
:102CF000822F0E94330760E0882D0E94330760E036
:102D00008A2D0E94330760E08C2D0E94330761E01A
:102D1000E5CF61E0822F0E94330760E0882D0E949A
:102D2000330760E08A2D0E94330761E08C2D0E94FA
:102D3000330761E01FC060E0822F0E94330761E02B
:102D4000882D0E94330760E08A2D0E94330760E0DF
:102D5000EDCF60E0822F0E94330761E0882D0E9452
:102D6000330760E08A2D0E94330760E08C2D0E94BB
:102D7000330760E08E2D0E94330760E0B3CF60E040
:102D800087CF60E0822F0E94330760E0E7CF60E0EA
:102D9000822F0E94330760E0D3CFDF91CF911F9144
:102DA0000F91FF90EF90DF90CF90BF90AF909F90EA
:102DB0008F90089520917E0530917F05C901079677
:102DC00097FD079623E0959587952A95E1F7209141
:102DD0007C0530917D05829FA001839F500D929FBD
:102DE000500D112470E060E0809197059091980556
:102DF0000C9468280E946328FB0101900020E9F7E9
:102E00003197AF01461B570BDC01ED91FC9102801D
:102E1000F381E02D1994CF93DF93BC018BEC94E008
:102E20000E94FC16EC0168E672E08BEC94E00E94D4
:102E3000FC168C0F9D1FDF91CF9108952F923F922A
:102E40004F925F926F927F928F929F92AF92BF92BA
:102E5000CF92DF92EF92FF920F931F93CF93DF9366
:102E6000CDB7DEB7CF54D1090FB6F894DEBF0FBE91
:102E7000CDBF00911503109116030130110509F41F
:102E800000C10230110509F407C4012B09F0B1C0DB
:102E90000E94DA16109214031092130388E290E055
:102EA000909385058093840584E190E09093870555
:102EB0008093860581E090E090938B0580938A054E
:102EC000909389058093880580938C0580938D0568
:102ED0006BE672E088E795E00E94FC1688E00E94AD
:102EE0000A078130910541F490930703809306030C
:102EF00010920503109204038AE00E940A078130B1
:102F0000910541F490930503809304031092070305
:102F10001092060389E00E940A078130910509F0AA
:102F20009DC09093030380930203809106039091C8
:102F30000703019779F4EE24E394F12C01E110E00A
:102F40002CE330E04FE050E060E270E088E795E08D
:102F50000E948D0E88E290E0909385058093840511
:102F6000909387058093860581E090E090938B0590
:102F700080938A05909389058093880580938C05BA
:102F800080938D0562E772E088E795E00E94FC1669
:102F90008091040390910503019779F4EE24E39462
:102FA000F12C01E110E02CE330E043E250E060E27C
:102FB00070E088E795E00E948D0E80910203909169
:102FC00003030197A1F480910603909107038130D8
:102FD000910509F048C09093160380931503109251
:102FE00007031092060310920303109202030E943B
:102FF0005E148091130390911403883EA3E09A0716
:1030000008F06BC30AE010E0B8010E940E277B01B4
:1030100068E270E00E94E815C701B8010E940E271F
:103020006FE270E00E94E815C15BDF4F0FB6F894C5
:10303000DEBF0FBECDBFDF91CF911F910F91FF90EB
:10304000EF90DF90CF90BF90AF909F908F907F9048
:103050006F905F904F903F902F90089510920303D0
:103060001092020362CF80910403909105030197AF
:1030700009F0BDCF82E090E0909316038093150392
:10308000B6CF0E94DA1680910C0290910D02833027
:10309000910509F00DC261E08BE10E94330761E008
:1030A0008CE10E94330761E08DE10E9433078EECD2
:1030B00093E09BA38AA3AEEFB3E0BDA3ACA3EEE580
:1030C000F4E0FBA7EAA74F013D015C01D12CC12C24
:1030D000F501EC0DFD1D80818823E1F0C601880F0C
:1030E000991FF301E80FF91F408151814F5F5F4F36
:1030F000880D991DDC016D917C91665F7F4FEE24F8
:10310000E394F12C04E010E028E030E088E795E05B
:103110000E94810FBFEFCB1ADB0AECE0CE16D10480
:10312000B9F6FCE0AF0EB11C28E1620E711C88E11B
:10313000880E911C9EEFA91693E0B90639F680918E
:103140007B00877F80937B0081E480937C0080916B
:103150007A00806480937A0080917A0086FDFCCFAB
:103160006091780070917900072E000C880B990B04
:103170000E94EC2520E030EC4FE754E40E94422509
:1031800020E030E048EC52E40E94A1266B017C0173
:1031900020E030E0A9010E949C2620E030E040E0E1
:1031A0005FE387FD38C2C701B6010E94D1240E94A7
:1031B000B4257093120360931103EE24E394F12C71
:1031C00002E010E02CE130E04EE350E088E795E0CB
:1031D0000E94810F40900602509007026090080202
:1031E0007090090260910A0270910B02072E000C88
:1031F000880B990B0E94EC25A30192010E94D12417
:103200000E94B4256B0170930B0260930A028090B8
:10321000680590906905A0906A05B0906B05609173
:10322000040270910502072E000C880B990B0E9476
:10323000EC25A50194010E94D1240E94B42570932D
:103240000502609304029601235031092B373105A2
:10325000F0F077FA709477F87094409206025092EA
:1032600007026092080270920902AFE7CA16D10401
:103270001CF04EE7C42ED12CB2E0CB16D1041CF4C6
:1032800032E0C32ED12CD0920B02C0920A029B01D5
:10329000235031092B333105D0F0B7FAB094B7F889
:1032A000B0948092680590926905A0926A05B092E8
:1032B0006B056F33710514F06EE370E062307105D9
:1032C00014F462E070E0709305026093040210E071
:1032D00000E020910A0230910B02D9011296A90157
:1032E000425051098091040290910502FC013296EE
:1032F000BC0162507109C0906805D0906905E090EA
:103300006A05F0906B05CCAADDAAEEAAFFAA312CC3
:10331000212C6D01BB0FEE08FF08C8AED9AEEAAE96
:10332000FBAE6F01FF0FEE08FF08CCAEDDAEEEAED8
:10333000FFAE6B01770FEE08FF082496CCAEDDAE32
:10334000EEAEFFAE24976901330FEE08FF08289612
:10335000CCAEDDAEEEAEFFAE28976C01990FEE0855
:10336000FF082C96CCAEDDAEEEAEFFAE2C976A0118
:10337000550FEE08FF086096CCAEDDAEEEAEFFAEA8
:103380006097EAA1FBA1E20DF31D8081882309F477
:1033900086C07101EE0CFF1CEAA5FBA5EE0DFF1D1A
:1033A000C080D180DFA2CEA2B60162507109072E83
:1033B000000C880B990B0E94EC254B015C01B601B7
:1033C000665F7F4F072E000C880B990B0E94EC253F
:1033D0002B013C01ECA1FDA1EE0DFF1DE080F18071
:1033E000F9A6E8A6B70162507109072E000C880BF8
:1033F000990B0E94EC256CA77DA78EA79FA768ADAF
:1034000079AD8AAD9BAD0E94EC259B01AC01C50155
:10341000B4010E943D2518168CF060966CAD7DAD10
:103420008EAD9FAD60970E94EC259B01AC01FF24FF
:10343000F394C301B2010E949C2687FDF12C6CAD70
:103440007DAD8EAD9FAD0E94EC259B01AC016CA5BE
:103450007DA58EA59FA50E943D25181604F168A59F
:1034600079A56A5F7F4F072E000C880B990B0E948D
:10347000EC2568AB79AB8AAB9BAB24966CAD7DAD8C
:103480008EAD9FAD24970E94EC259B01AC0168A9ED
:1034900079A98AA99BA90E949C2687FF23C1EFEFE7
:1034A0002E1A3E0AFCE02F16310409F06ACFE2C161
:1034B0008230910551F461E08BE10E94330761E0B5
:1034C0008CE10E94330760E0EFCD61E0813091052F
:1034D00019F0009731F460E08BE10E94330760E05F
:1034E000EFCF019609F0E3CD0E94DA1610938B0519
:1034F00000938A05109389050093880581E08093E5
:103500008C0580938D050AE010E0109385050093EB
:10351000840584E190E0909387058093860569E7B0
:1035200072E088E795E00E94FC16109385050093F1
:1035300084058EE190E0909387058093860568E886
:1035400072E088E795E00E94FC16C0901303D090CB
:1035500014030D2C000CEE08FF08F7FE41C06DE2CD
:1035600088E795E00E94BB0D22273327A9012C197B
:103570003D094E095F0919A28E010F5D1F4FAAE098
:10358000CA2ED12CE12CF12CCA01B901A701960158
:103590000E949F24605DD8016E938D012115310535
:1035A0004105510589F70115110529F0B80188E792
:1035B00095E00E94FC160E945E1468E873E180E0CA
:1035C00090E00E94B707109216031092150383E053
:1035D00090E090930D0280930C020E941E1767CD1D
:1035E000A701960119A28E010F5D1F4FFAE0CF2EA1
:1035F000D12CE12CF12CCA01B901A70196010E943E
:103600009F24605DF80162938F012115310541050A
:10361000510589F7C8CFC701B6010E94D024C7CD94
:1036200020E030E0A9016CA97DA98EA99FA90E9484
:103630009C2618160CF433CF8CA99DA9AEA9BFA95E
:10364000B0588093680590936905A0936A05B0937C
:103650006B05D8C080E090E0A0E0B0E4012B09F455
:103660005DC180E090E0A0E4B0E458C11092100386
:1036700087EB92E0AAC11092060210920702109204
:1036800008021092090210926805109269051092C2
:103690006A0510926B0519C20E94DA1684E190E067
:1036A0009093850580938405909387058093860584
:1036B00081E090E090938B0580938A059093890533
:1036C0008093880580938C0580938D0565EC72E06E
:1036D00088E795E00E94FC168ACC83ED92E00E9478
:1036E0000B17A2CCFF2009F4DACE28966CAD7DAD85
:1036F0008EAD9FAD28970E94EC256B017C01A50142
:1037000094010E94D0244B015C0120E030E0A9012B
:103710000E949C26181624F0B7FAB094B7F8B0941B
:10372000A3019201C701B6010E94D0246B017C0164
:1037300020E030E0A9010E949C26181624F0F7FA38
:10374000F094F7F8F094A7019601C501B4010E9426
:103750003D2587FF02C0750164012C966CAD7DADDF
:103760008EAD9FAD2C970E94EC252B013C012CA522
:103770003DA54EA55FA50E94D0244B015C0120E031
:1037800030E0A9010E949C26181624F0B7FAB094E4
:10379000B7F8B09428A939A94AA95BA9C301B20115
:1037A0000E94D0242B013C0120E030E0A9010E94BE
:1037B0009C26181624F077FA709477F87094A30179
:1037C0009201C501B4010E943D2587FF02C024017A
:1037D0003501A3019201C701B6010E943D2587FF73
:1037E0001FCF8091060290910702A0910802B0912C
:1037F0000902B0588093060290930702A093080232
:10380000B09309029CE0F92EF09EC001F19E900D4C
:10381000112482539C4F280E391ED1011C92809195
:103820001303909114030196909314038093130350
:103830000E94152424E630E040E050E00E946D2410
:103840006233710581059105ACF4B1E0B0931003CA
:103850008EA19FA1029690930D0380930C0388A5DF
:1038600099A5049690930F0380930E0387E992E045
:103870000E940B170F5F1F4F8AA59BA548969BA719
:103880008AA7ACA1BDA15896BDA3ACA3EAA1FBA198
:103890003C96FBA3EAA30430110509F01ACD209150
:1038A0000A0230910B028091110390911203A90139
:1038B0004E5F5F4F481759070CF449C02250310939
:1038C0004C96821793070CF442C0809104029091A9
:1038D0000502CC970797D8F50E94152422E030E026
:1038E00040E050E00E946D248B0120E030E0A9010F
:1038F000609106027091070280910802909109027E
:103900000E943D2587FFA6CE80E090E0A0E0B0ECCD
:10391000012B21F080E090E0A0E4B0EC809306025F
:1039200090930702A0930802B09309028091680562
:1039300090916905A0916A05B0916B05B05880938C
:10394000680590936905A0936A05B0936B05809113
:103950001003882309F452C060910E0370910F0385
:10396000072E000C880B990B0E94EC2520E030E01C
:1039700040E85FE30E94D1240E94B42570930F03B6
:1039800060930E036B33710534F1603471050CF0F4
:103990006DCE20910C0330910D0380911103909115
:1039A000120382179307BCF44C96281739079CF42E
:1039B00080910C0290910D02019690930D028093DC
:1039C0000C021092100386EA92E00E940B1780917D
:1039D0001003882399F040910E0350910F036091DA
:1039E0000C0370910D03EE24E394F12C04E010E03D
:1039F00024E030E088E795E00E94810F8091040286
:103A000090910502CE970CF479C02FB7F89480916D
:103A1000BF049091C004A091C104B091C2042FBF13
:103A2000409108035091090360910A0370910B03C0
:103A3000841B950BA60BB70B40910002509101021D
:103A4000609102027091030284179507A607B707D9
:103A500008F411CE2FB7F8948091BF049091C00460
:103A6000A091C104B091C2042FBF8093080390932A
:103A70000903A0930A03B0930B0380E490E09093B2
:103A80000B0280930A0280E290E0909305028093FB
:103A9000040210920002109201021092020210928F
:103AA000030280E090E0A0E0B0E4809306029093EF
:103AB0000702A0930802B0930902809368059093CF
:103AC0006905A0936A05B0936B0580910C029091F3
:103AD0000D02019790930D0280930C02019641F420
:103AE0006EE772E088E795E00E94FC160E94DA1605
:103AF00068EE73E080E090E00E94B707C090040297
:103B0000D0900502E0900A02F0900B02560122E0EC
:103B1000A21AB10801E010E025E030E0A501B701EC
:103B200088E795E00E945410B7016F5F7F4F25E052
:103B300030E0A50188E795E00E945410B70161507C
:103B4000710925E030E0A50188E795E00E94541056
:103B500081E0C81AD108B7016E5F7F4F23E030E0E3
:103B6000A60188E795E00E945410B70162507109E0
:103B700023E030E0A60188E795E00E94541037CAA0
:103B800085ED8093BC008091580390915903A091DA
:103B90005A03B0915B030796A11DB11D23E0B695B2
:103BA000A795979587952A95D1F72091BC0024FD7C
:103BB00003C01092A10308954091580350915903F6
:103BC00060915A0370915B03452B462B472B69F399
:103BD0000097A105B10541F02AE22A95F1F700C04E
:103BE0000197A109B109E1CF809157030C94BA1153
:103BF0001F920F920FB60F9211242F933F938F9322
:103C00009F93AF93BF938091BF049091C004A09104
:103C1000C104B091C2043091BE0423E0230F2D37BC
:103C200058F50196A11DB11D2093BE048093BF04D9
:103C30009093C004A093C104B093C2048091C304C4
:103C40009091C404A091C504B091C6040196A11D31
:103C5000B11D8093C3049093C404A093C504B09392
:103C6000C604BF91AF919F918F913F912F910F907B
:103C70000FBE0F901F90189526E8230F0296A11DE6
:103C8000B11DD2CF1F920F920FB60F9211240BB617
:103C90000F922F933F934F935F936F937F938F93E5
:103CA0009F93AF93BF93EF93FF938BEC94E00E94AD
:103CB0005F08FF91EF91BF91AF919F918F917F919D
:103CC0006F915F914F913F912F910F900BBE0F908D
:103CD0000FBE0F901F9018951F920F920FB60F9264
:103CE00011240BB60F922F938F939F93EF93FF9313
:103CF000E091DB04F091DC048081E091E104F0913B
:103D0000E20482FD1DC090818091E4048F5F8F7377
:103D10002091E504821741F0E091E404F0E0E553DE
:103D2000FB4F958F8093E404FF91EF919F918F91CA
:103D30002F910F900BBE0F900FBE0F901F901895F4
:103D40008081F2CF1F920F920FB60F9211240BB603
:103D50000F922F933F934F935F936F937F938F9324
:103D60009F93AF93BF93EF93FF938091B900887FA8
:103D7000803609F44DC008F040C0883209F4A9C06B
:103D800028F5803109F49DC0C8F4882309F4FBC0EC
:103D9000883009F496C0FF91EF91BF91AF919F9148
:103DA0008F917F916F915F914F913F912F910F90E4
:103DB0000BBE0F900FBE0F901F901895883109F41D
:103DC00088C0803241F78093A00314C0803409F486
:103DD0009DC040F48033B9F38833E9F68093A003A3
:103DE00085ECB0C0803509F485C0883509F496C0EB
:103DF000883489F60E94C01DCECF883909F48CC062
:103E000038F5883729F050F4883611F0803719F6E4
:103E100083E08093A10310929F0357C0883809F470
:103E20007BC0803919F0803809F0B5CF80919F03AD
:103E3000803208F071C0E0919F0381E08E0F809383
:103E40009F038091BB00F0E0E158FC4F80833DC0B0
:103E5000803B39F0E0F4803A09F479C0883A09F0FF
:103E60009ACF84E08093A10310927E0310927D0389
:103E7000E091CA03F091CB03199580917D038111E4
:103E80000FC081E080937D0310925D0309C0803CE8
:103E900009F4A6CF883C09F4A3CF883B09F07BCF77
:103EA000E0917E0381E08E0F80937E03F0E0E35A81
:103EB000FC4F80818093BB0090917E0380917D03B5
:103EC00029C08091C6038093BB0085EC8093BC0021
:103ED00062CF9091C5038091C403981758F5E09183
:103EE000C50381E08E0F8093C503F0E0EC55FC4FD5
:103EF0008081E9CFE091C50381E08E0F8093C503F7
:103F00008091BB00F0E0EC55FC4F80839091C5039D
:103F10008091C4039817C8F285E8D8CFE091C50313
:103F200081E08E0F8093C5038091BB00F0E0EC55DB
:103F3000FC4F80838091A30381115CCF81E080934B
:103F4000A20384EA8093BC001092A10324CF85ECE5
:103F50008093BC001092A10380919F03803230F4C3
:103F6000E0919F03F0E0E158FC4F108260919F03C5
:103F700070E0E091C803F091C9038FE793E01995D1
:103F800010929F0308CF1092A00334CFEBECF4E023
:103F90001382128248EE53E060E070E04483558360
:103FA000668377838CE192E09183808385EC90E057
:103FB0009587848784EC90E09787868780EC90E0F3
:103FC000918B808B81EC90E0938B828B82EC90E0E4
:103FD000958B848B86EC90E0978B868B118E128E5E
:103FE000138E148EACE6B5E013961C921E921297B7
:103FF00014964D935D936D937C9317978EE292E0A8
:1040000011969C938E93E8E7F5E01382128220E8E4
:1040100030E03583248380E490E097838683318782
:10402000208793878287168A1586148617861686B8
:1040300081E0858B848B2FEF3FEF338B228B318B8D
:10404000208B878B108E128E118E80E492E09183EC
:104050008083148E138EB68FA58F10A2178E8FEFCC
:1040600084A385A386A387A38CE380A780E89AE135
:10407000A6E0B0E085AB96ABA7ABB0AF80EA96E820
:10408000A1E0B0E081AF92AFA3AFB4AF80E586AF5F
:1040900017AE0E94152426E030E040E050E00E9478
:1040A0006D2463507109810991090E94EC25609388
:1040B00068057093690580936A0590936B05089570
:1040C000789484B5826084BD84B5816084BD85B5F3
:1040D000826085BD85B5816085BD80916E008160FF
:1040E00080936E00109281008091810082608093A5
:1040F00081008091810081608093810080918000A7
:104100008160809380008091B10084608093B100D1
:104110008091B00081608093B000809191008260B6
:1041200080939100809191008160809391008091B3
:1041300090008160809390008091A10082608093C4
:10414000A1008091A10081608093A1008091A000D6
:1041500081608093A0008091210182608093210181
:1041600080912101816080932101809120018160F3
:104170008093200180917A00846080937A008091FE
:104180007A00826080937A0080917A0081608093C7
:104190007A0080917A00806880937A001092C10042
:1041A00060E087E30E94610760E088E00E946107A9
:1041B00060E08AE00E94610760E089E00E94610798
:1041C00061E08BE10E94610761E08CE10E94610780
:1041D00061E08DE10E946107CFE261E08C2F0E94D7
:1041E000610761E089EF8C0F0E946107CF5FC633E2
:1041F000A1F7E091DB04F091DC0482E08083E091A0
:10420000D704F091D8041082E091D904F091DA0437
:104210008FEC80831092E304E091DF04F091E004DE
:1042200086E08083E091DD04F091DE04808180618E
:104230008083E091DD04F091DE04808188608083DA
:10424000E091DD04F091DE04808180688083E0915C
:10425000DD04F091DE0480818F7D8083809197055D
:1042600090919805892B11F10E94DA1620917E0514
:1042700030917F0580917C0590917D05213231053B
:104280000CF04AC0B9016052710977FF02C06F5F3C
:104290007F4F759567958357910997FD019600E2C9
:1042A00010E023E730E04AEF56E049C020917E0558
:1042B00030917F05C901079697FD0796B3E0959564
:1042C0008795BA95E1F720917C0530917D05AC0189
:1042D000429FC001439F900D529F900D11240E9458
:1042E0003E279093980580939705892B09F0BCCFC2
:1042F000CAE9DBE0FE016491662339F08BEC94E0BF
:104300000E9481082196892BA9F768E672E08BEC60
:1043100094E00E94FC16FFCFB9016054710977FF49
:1043200002C06F5F7F4F759567958255910997FD24
:10433000019600E410E022E530E04AED58E0959562
:1043400087950E94671082E080939A058091950579
:1043500090919605892B09F417C18CE380939905F8
:104360001092CD031092CC031092C8041092C7048F
:104370000E949C1189EE97E09093CB038093CA032F
:104380008AEE97E09093C9038093C8038091A005BB
:1043900087FD1EC061E00E94610761E08091A00579
:1043A0000E94330761E070E080E090E00E94B70770
:1043B00060E08091A0050E9433076AE070E080E031
:1043C00090E00E94B70761E08091A0050E9433074A
:1043D0008091950590919605892B09F494C12091BF
:1043E000AD053091AE054091AF055091B00560E04C
:1043F00074E284EF90E00E949F242051310941092A
:10440000510956954795379527952093B80064E054
:1044100086EF96E00E94471360917E05615088E721
:1044200095E00E94FC1364E082EF96E00E9447133F
:1044300080919A0564E1813009F460E188E795E0B4
:104440000E94FC1364E08EEE96E00E9447138FE812
:104450008093B50580917C0590917D05803891050C
:1044600009F06AC180917E0590917F0580349105A5
:1044700009F072C180919A05813009F45BC18FEC1B
:104480008093B505C2E16AED88E795E00E94FC13D0
:104490006C2F88E795E00E94FC1361E888E795E0BF
:1044A0000E94FC136091B50588E795E00E94FC131B
:1044B00069ED88E795E00E94FC1380919A0561EF11
:1044C000813009F462E288E795E00E94FC1366E01F
:1044D00088EE96E00E94471380919505909196058D
:1044E000892B09F43DC12091B1053091B20540916D
:1044F000B3055091B40560E074E284EF90E00E944F
:104500009F24205131094109510956954795379506
:1045100027952093B800AEE5B4E08EEFC82E83E077
:10452000D82E6EEC73E090E080E011E050E040E0C7
:10453000D0E0C0E030E020E07D01E40EF51EF701A0
:10454000D183C0837601E40EF51EF7019183808349
:104550007B01E20EF31EF70110832F5F3F4F299678
:104560004E5F5F4F2C30310539F75896F8E1CF0E8A
:10457000D11C0596645F7F4F84319105B9F60E9486
:104580001E170E94EE08FBCF61E080919E050E94FD
:10459000610761E080919F050E94610780919E05FF
:1045A000082E000C990BFC01ED5FF34FE491F0E055
:1045B000EE0FFF1FE153F44F259134913093A60580
:1045C0002093A505FC01E75BF34FE491E093AB0575
:1045D00080919F05082E000C990BFC01ED5FF34FB5
:1045E000E491F0E0EE0FFF1FE153F44FA591B49179
:1045F000B093A805A093A705FC01E75BF34FE491F6
:10460000E093AC058C91E82BEC938091930590910D
:104610009405892B09F434C0CFB7F8948091C7036F
:10462000811127C0E8E3FCE08491EEE7FCE094917F
:10463000E82FF0E0EE0FFF1FEB54F44FA591B4917B
:10464000EC91E92321F461E085E30E94330761E006
:1046500085E30E9461078CB580618CBD8CB5806458
:104660008CBD61E084E30E94610761E083E30E9406
:1046700061078091C7038F5F8093C703CFBF86CE4A
:1046800061E080919C050E94610761E080919D0539
:104690000E94610780919C05082E000C990BFC017B
:1046A000ED5FF34FE491F0E0EE0FFF1FE153F44FA5
:1046B000259134913093A2052093A105FC01E75B7D
:1046C000F34FE491E093A90580919D05082E000C1D
:1046D000990BFC01ED5FF34FE491F0E0EE0FFF1F4B
:1046E000E153F44FA591B491B093A405A093A30511
:1046F000FC01E75BF34FE491E093AA058C91E09510
:10470000E823EC9343CE8091930590919405892BF7
:1047100031F08091B6059091B7050E947D0BE09134
:10472000A705F091A80590818091AC05809589231B
:1047300080836DCE8FE9A4CE8036910569F4809197
:104740007E0590917F05409739F480919A058130DC
:1047500029F08FEA8093B505C2E095CE80E1FACFCB
:10476000E091A705F091A80580819091AC05892B77
:104770008083D1CE80E492E0909379058093780590
:104780008091970590919805009711F00C94DA2785
:1047900008958F929F92AF92BF92CF92DF92EF9245
:1047A000FF92CF93DF93EC01688179818A819B81AD
:1047B000611571058105910521F464E279ED8BE5C0
:1047C00097E02DE133EF41E050E00E946D24490174
:1047D0005A019B01AC01A7EAB1E40E948C246B0151
:1047E0007C01ACEEB4EFA50194010E949A24C60EA0
:1047F000D71EE81EF91EF7FE06C081E0C81AD108D0
:10480000E10880E8F80AC882D982EA82FB82C701FF
:10481000B6019F77DF91CF91FF90EF90DF90CF901F
:10482000BF90AF909F908F9008958F929F92AF927C
:10483000BF92CF92DF92EF92FF9260910E02709141
:104840000F0280911002909111026115710581058E
:10485000910521F464E279ED8BE597E02DE133EFEA
:1048600041E050E00E946D2449015A019B01AC01D6
:10487000A7EAB1E40E948C246B017C01ACEEB4EF9A
:10488000A50194010E949A24C60ED71EE81EF91EA7
:10489000F7FE06C081E0C81AD108E10880E8F80AEE
:1048A000C0920E02D0920F02E0921002F09211021A
:1048B000C701B6019F77FF90EF90DF90CF90BF9038
:1048C000AF909F908F90089560930E0270930F02A7
:1048D00080931002909311020895052E97FB1EF409
:1048E00000940E94842457FD07D00E949F2407FC57
:1048F00003D04EF40C948424509540953095219526
:104900003F4F4F4F5F4F08959095809570956195FB
:104910007F4F8F4F9F4F08950E94C124A59F900DF8
:10492000B49F900DA49F800D911D11240895B7FF91
:104930000C948C240E948C24821B930B0895A1E27A
:104940001A2EAA1BBB1BFD010DC0AA1FBB1FEE1F09
:10495000FF1FA217B307E407F50720F0A21BB30B54
:10496000E40BF50B661F771F881F991F1A9469F7D0
:1049700060957095809590959B01AC01BD01CF012C
:104980000895A29FB001B39FC001A39F700D811D28
:104990001124911DB29F700D811D1124911D089548
:1049A0005058BB27AA270E94E8240C9462260E9434
:1049B000542638F00E945B2620F039F49F3F19F40A
:1049C00026F40C9451260EF4E095E7FB0C944B264C
:1049D000E92F0E94732658F3BA17620773078407FA
:1049E000950720F079F4A6F50C9495260EF4E09541
:1049F0000B2EBA2FA02D0B01B90190010C01CA0199
:104A0000A0011124FF27591B99F0593F50F4503E43
:104A100068F11A16F040A22F232F342F4427585F35
:104A2000F3CF469537952795A795F0405395C9F74D
:104A30007EF41F16BA0B620B730B840BBAF0915005
:104A4000A1F0FF0FBB1F661F771F881FC2F70EC0A4
:104A5000BA0F621F731F841F48F487957795679577
:104A6000B795F7959E3F08F0B0CF9395880F08F063
:104A70009927EE0F9795879508950E94272608F4A9
:104A800081E008950E9456250C9462260E945B26C0
:104A900058F00E94542640F029F45F3F29F00C940E
:104AA0004B2651110C9496260C9451260E94732685
:104AB00068F39923B1F3552391F3951B550BBB274D
:104AC000AA2762177307840738F09F5F5F4F220F92
:104AD000331F441FAA1FA9F335D00E2E3AF0E0E889
:104AE00032D091505040E695001CCAF72BD0FE2FD3
:104AF00029D0660F771F881FBB1F26173707480767
:104B0000AB07B0E809F0BB0B802DBF01FF2793581E
:104B10005F4F3AF09E3F510578F00C944B260C9471
:104B200096265F3FE4F3983ED4F386957795679594
:104B3000B795F7959F5FC9F7880F911D9695879553
:104B400097F90895E1E0660F771F881FBB1F621772
:104B500073078407BA0720F0621B730B840BBA0B30
:104B6000EE1F88F7E09508950E94BB256894B11167
:104B70000C94962608950E947B2688F09F5798F003
:104B8000B92F9927B751B0F0E1F0660F771F881F52
:104B9000991F1AF0BA95C9F714C0B13091F00E946C
:104BA0009526B1E008950C949526672F782F8827D5
:104BB000B85F39F0B93FCCF3869577956795B39593
:104BC000D9F73EF490958095709561957F4F8F4F02
:104BD0009F4F0895E89409C097FB3EF49095809507
:104BE000709561957F4F8F4F9F4F9923A9F0F92FB3
:104BF00096E9BB279395F695879577956795B79531
:104C0000F111F8CFFAF4BB0F11F460FF1BC06F5F16
:104C10007F4F8F4F9F4F16C0882311F096E911C028
:104C2000772321F09EE8872F762F05C0662371F049
:104C300096E8862F70E060E02AF09A95660F771F5D
:104C4000881FDAF7880F9695879597F90895990F39
:104C50000008550FAA0BE0E8FEEF16161706E80746
:104C6000F907C0F012161306E407F50798F0621B67
:104C7000730B840B950B39F40A2661F0232B242B3C
:104C8000252B21F408950A2609F4A140A6958FEF5B
:104C9000811D811D089597F99F6780E870E060E0AD
:104CA00008959FEF80EC089500240A9416161706C5
:104CB00018060906089500240A941216130614060D
:104CC00005060895092E0394000C11F4882352F070
:104CD000BB0F40F4BF2B11F460FF04C06F5F7F4F28
:104CE0008F4F9F4F089557FD9058440F551F59F00F
:104CF0005F3F71F04795880F97FB991F61F09F3FC9
:104D000079F087950895121613061406551FF2CFF1
:104D10004695F1DF08C0161617061806991FF1CF41
:104D200086957105610508940895E894BB27662768
:104D30007727CB0197F908950E94272608F48FEF73
:104D400008950E94B4260C9462260E94542638F0DE
:104D50000E945B2620F0952311F00C944B260C94B6
:104D6000512611240C9496260E94732670F3959F69
:104D7000C1F3950F50E0551F629FF001729FBB2752
:104D8000F00DB11D639FAA27F00DB11DAA1F649FEE
:104D90006627B00DA11D661F829F2227B00DA11DA1
:104DA000621F739FB00DA11D621F839FA00D611D27
:104DB000221F749F3327A00D611D231F849F600D48
:104DC000211D822F762F6A2F11249F5750409AF071
:104DD000F1F088234AF0EE0FFF1FBB1F661F771FFD
:104DE000881F91505040A9F79E3F510580F00C94C8
:104DF0004B260C9496265F3FE4F3983ED4F38695B9
:104E000077956795B795F795E7959F5FC1F7FE2B67
:104E1000880F911D9695879597F9089597FB072E12
:104E200016F4009407D077FD09D00E942A2707FCCA
:104E300005D03EF4909581959F4F089570956195AA
:104E40007F4F0895EE0FFF1F881F8BBF0790F691CD
:104E5000E02D1994AA1BBB1B51E107C0AA1FBB1F61
:104E6000A617B70710F0A61BB70B881F991F5A95F6
:104E7000A9F780959095BC01CD0108950F931F93DC
:104E8000CF93DF938230910510F482E090E0E091BF
:104E9000BA05F091BB0530E020E0B0E0A0E030972B
:104EA00099F42115310509F44AC0281B390B243027
:104EB0003105D8F58A819B816115710589F1FB0166
:104EC00093838283FE0111C040815181028113814D
:104ED00048175907E0F04817590799F4109761F0FF
:104EE00012960C93129713961C933296CF01DF9172
:104EF000CF911F910F9108950093BA051093BB05B0
:104F0000F4CF2115310551F04217530738F0A901AC
:104F1000DB019A01BD01DF01F801C1CFEF01F9CF3B
:104F20009093BB058093BA05CDCFFE01E20FF31F2E
:104F3000819391932250310939832883D7CF2091CF
:104F4000B8053091B905232B41F42091140230911A
:104F500015023093B9052093B805209112023091C3
:104F600013022115310541F42DB73EB740911602C9
:104F700050911702241B350BE091B805F091B9054B
:104F8000E217F307A0F42E1B3F0B2817390778F020
:104F9000AC014E5F5F4F2417350748F04E0F5F1F7F
:104FA0005093B9054093B805819391939FCFF0E05A
:104FB000E0E09CCFCF93DF930097E9F0FC013297BC
:104FC00013821282A091BA05B091BB05ED0130E0C9
:104FD00020E01097A1F420813181820F931F20914E
:104FE000B8053091B9052817390709F061C0F09369
:104FF000B905E093B805DF91CF910895EA01CE1786
:10500000DF07E8F54A815B819E0141155105B1F743
:10501000E901FB83EA8349915991C40FD51FEC172D
:10502000FD0761F4808191810296840F951FE9014B
:1050300099838883828193819B838A83F0E0E0E077
:1050400012968D919C9113970097B9F52D913C91F3
:105050001197CD010296820F931F2091B8053091D0
:10506000B9052817390739F6309751F51092BB0565
:105070001092BA05B093B905A093B805BCCFD383FD
:10508000C28340815181840F951FC817D90761F4ED
:105090004E5F5F4F88819981480F591F518340832C
:1050A0008A819B81938382832115310509F0B0CFDA
:1050B000F093BB05E093BA059ECFFD01DC01C0CFA4
:1050C00013821282D7CF81E090E0F8940C946F287D
:1050D000DC0101C06D9341505040E0F7089516E0A7
:1050E000CEE6D6E000E006C0802FFE010E94222717
:1050F0002196011DCF36D10780E00807A9F7F89463
:10510000FFCFE80300002000000000404000030043
:10511000010000000000BC058000000000008108C4
:10512000EB071808CE08490827083B0800000000D4
:1051300031120412E515A206FD11EA11DB1100007F
:105140000000BB0DEB07E5157411C60AA20660103E
:10515000381054104810C810A206810B8F15360A5B
:105160007F0A810F640FEC0E8D0E0D0A0020537420
:10517000617274002020457869740020202020206E
:1051800047616D65204F76657200202020596F754C
:10519000722053636F72653A0048656172742064CF
:1051A000726F707065642E00486561727420636F61
:1051B0006C6C65637465642E004865617274206D63
:1051C00069737365642E002020546573656B6B757D
:1051D000726C65720037205365676D656E7420646C
:1051E0006973706C61792069C3A7696E2068617406
:1051F000616CC4B120736179C4B120676972696C54
:0452000064690000DD
:020000040003F7
:10E000000D9489F10D94B2F10D94B2F10D94B2F129
:10E010000D94B2F10D94B2F10D94B2F10D94B2F1F0
:10E020000D94B2F10D94B2F10D94B2F10D94B2F1E0
:10E030000D94B2F10D94B2F10D94B2F10D94B2F1D0
:10E040000D94B2F10D94B2F10D94B2F10D94B2F1C0
:10E050000D94B2F10D94B2F10D94B2F10D94B2F1B0
:10E060000D94B2F10D94B2F10D94B2F10D94B2F1A0
:10E070000D94B2F10D94B2F10D94B2F10D94B2F190
:10E080000D94B2F10D94B2F10D94B2F10D94B2F180
:10E090000D94B2F10D94B2F10D94B2F10D94B2F170
:10E0A0000D94B2F10D94B2F10D94B2F10D94B2F160
:10E0B0000D94B2F10D94B2F10D94B2F10D94B2F150
:10E0C0000D94B2F10D94B2F10D94B2F10D94B2F140
:10E0D0000D94B2F10D94B2F10D94B2F10D94B2F130
:10E0E0000D94B2F141546D656761323536300041AF
:10E0F000726475696E6F206578706C6F72657220DE
:10E1000073746B3530305632206279204D4C530099
:10E11000426F6F746C6F616465723E004875683F52
:10E1200000436F6D70696C6564206F6E203D200048
:10E130004350552054797065202020203D20005FF9
:10E140005F4156525F415243485F5F3D2000415658
:10E1500052204C696243205665723D20004743437C
:10E160002056657273696F6E203D20004350552024
:10E1700049442020202020203D20004C6F7720663D
:10E18000757365202020203D20004869676820665F
:10E190007573652020203D200045787420667573D6
:10E1A00065202020203D20004C6F636B2066757336
:10E1B000652020203D20004D617220203720323024
:10E1C000313300312E362E3800342E332E350056A2
:10E1D00023202020414444522020206F7020636F70
:10E1E00064652020202020696E73747275637469E1
:10E1F0006F6E2061646472202020496E74657272B3
:10E20000757074006E6F20766563746F7200726A49
:10E210006D702020006A6D70200057686174207056
:10E220006F72743A00506F7274206E6F7420737541
:10E2300070706F72746564004D7573742062652030
:10E2400061206C6574746572002000577269747483
:10E25000696E672045450052656164696E672045B7
:10E26000450045452065727220636E743D00504F35
:10E27000525400303D5A65726F2061646472003FF1
:10E280003D43505520737461747300403D454550C3
:10E29000524F4D207465737400423D426C696E6B41
:10E2A000204C454400453D44756D70204545505215
:10E2B0004F4D00463D44756D7020464C415348001B
:10E2C000483D48656C70004C3D4C69737420492F83
:10E2D0004F20506F72747300513D51756974005234
:10E2E0003D44756D702052414D00563D73686F7707
:10E2F00020696E7465727275707420566563746FF0
:10E30000727300593D506F727420626C696E6B00BD
:10E310002A0011241FBECFEFD1E2DEBFCDBF01E046
:10E320000CBF12E0A0E0B2E0EEE1FDEF03E00BBFB6
:10E3300002C007900D92A030B107D9F712E0A0E01B
:10E34000B2E001C01D92AE30B107E1F70F9460F367
:10E350000D948DFE01E20EBF0FEF0DBF11241FBE05
:10E360000D9460F30D9400F020E030E040ED57E0B4
:10E3700005C0FA013197F1F72F5F3F4F2817390792
:10E38000C0F308959C01260F311DC901A0E0B0E043
:10E390002F5F3F4FABBFFC018791882361F08093D3
:10E3A000C6008091C00086FFFCCF8091C0008064D1
:10E3B0008093C000EACF08958DE08093C6008091DD
:10E3C000C00086FFFCCF8091C00080648093C000B5
:10E3D0008AE08093C6008091C00086FFFCCF8091C8
:10E3E000C00080648093C00008950F94C2F10F9420
:10E3F000DCF10895FC019081992359F09093C600B7
:10E400008091C00086FFFCCF8091C0008064809323
:10E41000C0003196992379F70895282F982F929567
:10E420009F70892F805D8A3308F0895F8093C600D2
:10E430008091C00086FFFCCF8091C00080648093F3
:10E44000C000822F8F70982F905D9A3308F0995FEB
:10E450009093C6008091C00086FFFCCF8091C000E1
:10E4600080648093C00008959C01FB01853691056E
:10E470001CF46330710594F0C90164E670E00F94F8
:10E480002EFE605D7F4F6093C6008091C00086FFC6
:10E49000FCCF8091C00080648093C0002B30310598
:10E4A00014F43297B4F0C90164E670E00F942EFEC4
:10E4B0006AE070E00F942EFE605D7F4F6093C600AF
:10E4C0008091C00086FFFCCF8091C0008064809363
:10E4D000C000C9016AE070E00F942EFEC0968093E0
:10E4E000C6008091C00086FFFCCF8091C000806490
:10E4F0008093C00008951F93182F8EE692EE60E07F
:10E500000F94C2F11093C6008091C00086FFFCCF2B
:10E510008091C00080648093C0000F94DCF11F9153
:10E5200008952F923F924F925F926F927F928F92B7
:10E530009F92AF92BF92CF92DF92EF92FF920F9392
:10E540001F93DF93CF93CDB7DEB762970FB6F894E2
:10E55000DEBF0FBECDBF382E622ECA01DB015C01CB
:10E560006D01772420E2222E2E010894411C511CBB
:10E570008BC081E0A81680E0B80681E0C80680E084
:10E58000D80628F0C601AA27BB270F940DF2BB2797
:10E59000AD2D9C2D8B2D0F940DF28A2D0F940DF225
:10E5A0002092C6008091C00086FFFCCF8091C00001
:10E5B00080648093C0009DE29093C6008091C0006B
:10E5C00086FFFCCF8091C00080648093C0002092C1
:10E5D000C6008091C00086FFFCCF8091C00080649F
:10E5E0008093C00019828601750188249924A1E0D6
:10E5F0003A1651F03A1620F0B2E03B1661F409C029
:10E600000BBFF701779007C0C7010F9477FE782EF4
:10E6100002C0F7017080872D0F940DF22092C60082
:10E620008091C00086FFFCCF8091C0008064809301
:10E63000C000872D8052F401EF70F0708F3520F408
:10E64000E40DF51D708204C0E40DF51D8EE280839B
:10E650000894E11CF11C011D111D0894811C911CE2
:10E6600090E18916910409F0C2CF80E190E0A0E02A
:10E67000B0E0A80EB91ECA1EDB1E198AC2010F9493
:10E68000FAF10F94DCF16A94662009F072CF629679
:10E690000FB6F894DEBF0FBECDBFCF91DF911F91B3
:10E6A0000F91FF90EF90DF90CF90BF90AF909F9031
:10E6B0008F907F906F905F904F903F902F90089534
:10E6C0002F923F924F925F926F927F928F929F9282
:10E6D000AF92BF92CF92DF92EF92FF920F931F9370
:10E6E000DF93CF93CDB7DEB7CD53D1400FB6F894BB
:10E6F000DEBF0FBECDBF01E20EBF0FEF0DBF94B75F
:10E70000F894A89514BE80916000886180936000A1
:10E7100010926000789493FF05C0E0910002F091A0
:10E7200001021995279A2F9A8091C00082608093E8
:10E73000C00080E18093C40088E18093C1000000A4
:10E74000EE24FF24870144E0A42EB12CCC24DD2448
:10E7500024C0C5010197F1F70894E11CF11C011DCB
:10E76000111D21E2E2162EE4F20620E0020720E06D
:10E77000120718F031E0C32ED12CC801B70127ECE5
:10E780003BE140E050E00F9441FE611571058105C9
:10E79000910519F485B1805885B98091C00087FD35
:10E7A00003C0C114D104A9F2A6014F5F5F4FC25E3E
:10E7B000DE4F59834883CE51D140C25EDE4F8881FF
:10E7C0009981CE51D140019711F00D9410FEC05D9A
:10E7D000DE4F19821882C053D14060E0C15DDE4F28
:10E7E0001882CF52D14088249924C35DDE4F19820C
:10E7F0001882CD52D140C05EDE4F188219821A8233
:10E800001B82C052D140CE5CDE4F188219821A8220
:10E810001B82C253D140EE24FF2487010BBFF701B6
:10E8200007911691C45CDE4F19830883CC53D14005
:10E830000D940BFEC25EDE4F28813981CE51D1404E
:10E840002130310509F52091C600C25EDE4F1982E4
:10E850001882CE51D14022C02F5F3F4F4F4F5F4FA4
:10E86000213082E138078AE7480780E0580780F0C6
:10E87000C45CDE4FE881F981CC53D140EF5FFF4F9C
:10E8800019F0EE27FF27099420E030E040E050E047
:10E890008091C00087FFE0CF2091C600C35DDE4FAE
:10E8A00048815981CD52D1404F5F5F4FC35DDE4FEC
:10E8B00059834883CD52D140213209F063C64A3092
:10E8C000510508F05FC60894811C911C53E0851621
